{
  "contractName": "ContestGovernor",
  "abi": [
    {
      "inputs": [
        {
          "internalType": "contract ERC721Version",
          "name": "_token",
          "type": "address"
        }
      ],
      "stateMutability": "nonpayable",
      "type": "constructor"
    },
    {
      "anonymous": false,
      "inputs": [
        {
          "indexed": false,
          "internalType": "uint256",
          "name": "contestId",
          "type": "uint256"
        }
      ],
      "name": "ContestCanceled",
      "type": "event"
    },
    {
      "anonymous": false,
      "inputs": [
        {
          "indexed": false,
          "internalType": "uint256",
          "name": "contestId",
          "type": "uint256"
        },
        {
          "indexed": false,
          "internalType": "address",
          "name": "proposer",
          "type": "address"
        },
        {
          "indexed": false,
          "internalType": "uint256",
          "name": "target",
          "type": "uint256"
        },
        {
          "indexed": false,
          "internalType": "uint256",
          "name": "value",
          "type": "uint256"
        },
        {
          "indexed": false,
          "internalType": "uint256",
          "name": "startBlock",
          "type": "uint256"
        },
        {
          "indexed": false,
          "internalType": "uint256",
          "name": "registrationEndBlock",
          "type": "uint256"
        },
        {
          "indexed": false,
          "internalType": "uint256",
          "name": "endBlock",
          "type": "uint256"
        }
      ],
      "name": "ContestCreated",
      "type": "event"
    },
    {
      "anonymous": false,
      "inputs": [
        {
          "indexed": false,
          "internalType": "uint256",
          "name": "contestId",
          "type": "uint256"
        }
      ],
      "name": "ContestExecuted",
      "type": "event"
    },
    {
      "anonymous": false,
      "inputs": [
        {
          "indexed": false,
          "internalType": "uint256",
          "name": "oldQuorumNumerator",
          "type": "uint256"
        },
        {
          "indexed": false,
          "internalType": "uint256",
          "name": "newQuorumNumerator",
          "type": "uint256"
        }
      ],
      "name": "QuorumNumeratorUpdated",
      "type": "event"
    },
    {
      "anonymous": false,
      "inputs": [
        {
          "indexed": true,
          "internalType": "address",
          "name": "voter",
          "type": "address"
        },
        {
          "indexed": false,
          "internalType": "uint256",
          "name": "proposalId",
          "type": "uint256"
        },
        {
          "indexed": false,
          "internalType": "address",
          "name": "candidate",
          "type": "address"
        },
        {
          "indexed": false,
          "internalType": "uint256",
          "name": "weight",
          "type": "uint256"
        }
      ],
      "name": "VoteCast",
      "type": "event"
    },
    {
      "inputs": [],
      "name": "CONTEST_TYPEHASH",
      "outputs": [
        {
          "internalType": "bytes32",
          "name": "",
          "type": "bytes32"
        }
      ],
      "stateMutability": "view",
      "type": "function"
    },
    {
      "inputs": [
        {
          "internalType": "uint256",
          "name": "",
          "type": "uint256"
        }
      ],
      "name": "_lastEntryForContest",
      "outputs": [
        {
          "internalType": "uint256",
          "name": "",
          "type": "uint256"
        }
      ],
      "stateMutability": "view",
      "type": "function"
    },
    {
      "inputs": [
        {
          "internalType": "address",
          "name": "candidate",
          "type": "address"
        }
      ],
      "name": "castVote",
      "outputs": [
        {
          "internalType": "uint256",
          "name": "",
          "type": "uint256"
        }
      ],
      "stateMutability": "nonpayable",
      "type": "function"
    },
    {
      "inputs": [
        {
          "internalType": "uint256",
          "name": "contestId",
          "type": "uint256"
        }
      ],
      "name": "contestDeadline",
      "outputs": [
        {
          "internalType": "uint256",
          "name": "",
          "type": "uint256"
        }
      ],
      "stateMutability": "view",
      "type": "function"
    },
    {
      "inputs": [
        {
          "internalType": "uint256",
          "name": "contestId",
          "type": "uint256"
        }
      ],
      "name": "contestRegistration",
      "outputs": [
        {
          "internalType": "uint256",
          "name": "",
          "type": "uint256"
        }
      ],
      "stateMutability": "view",
      "type": "function"
    },
    {
      "inputs": [
        {
          "internalType": "uint256",
          "name": "contestId",
          "type": "uint256"
        }
      ],
      "name": "contestVoting",
      "outputs": [
        {
          "internalType": "uint256",
          "name": "",
          "type": "uint256"
        }
      ],
      "stateMutability": "view",
      "type": "function"
    },
    {
      "inputs": [],
      "name": "currentParticipants",
      "outputs": [
        {
          "internalType": "address[]",
          "name": "slicedParticipants",
          "type": "address[]"
        }
      ],
      "stateMutability": "view",
      "type": "function"
    },
    {
      "inputs": [],
      "name": "execute",
      "outputs": [
        {
          "internalType": "uint256",
          "name": "",
          "type": "uint256"
        }
      ],
      "stateMutability": "payable",
      "type": "function"
    },
    {
      "inputs": [
        {
          "internalType": "address[]",
          "name": "_validParticipants",
          "type": "address[]"
        }
      ],
      "name": "findWinners",
      "outputs": [
        {
          "internalType": "address[]",
          "name": "winners",
          "type": "address[]"
        }
      ],
      "stateMutability": "view",
      "type": "function"
    },
    {
      "inputs": [
        {
          "internalType": "address",
          "name": "account",
          "type": "address"
        },
        {
          "internalType": "uint256",
          "name": "blockNumber",
          "type": "uint256"
        }
      ],
      "name": "getVotes",
      "outputs": [
        {
          "internalType": "uint256",
          "name": "",
          "type": "uint256"
        }
      ],
      "stateMutability": "view",
      "type": "function"
    },
    {
      "inputs": [
        {
          "internalType": "uint256",
          "name": "contestId",
          "type": "uint256"
        },
        {
          "internalType": "address",
          "name": "account",
          "type": "address"
        }
      ],
      "name": "hasVoted",
      "outputs": [
        {
          "internalType": "bool",
          "name": "",
          "type": "bool"
        }
      ],
      "stateMutability": "view",
      "type": "function"
    },
    {
      "inputs": [],
      "name": "idOfOpenContests",
      "outputs": [
        {
          "internalType": "uint256",
          "name": "",
          "type": "uint256"
        }
      ],
      "stateMutability": "view",
      "type": "function"
    },
    {
      "inputs": [],
      "name": "initiateContest",
      "outputs": [
        {
          "internalType": "uint256",
          "name": "",
          "type": "uint256"
        }
      ],
      "stateMutability": "nonpayable",
      "type": "function"
    },
    {
      "inputs": [],
      "name": "name",
      "outputs": [
        {
          "internalType": "string",
          "name": "",
          "type": "string"
        }
      ],
      "stateMutability": "view",
      "type": "function"
    },
    {
      "inputs": [],
      "name": "proposalThreshold",
      "outputs": [
        {
          "internalType": "uint256",
          "name": "",
          "type": "uint256"
        }
      ],
      "stateMutability": "view",
      "type": "function"
    },
    {
      "inputs": [],
      "name": "quorumDenominator",
      "outputs": [
        {
          "internalType": "uint256",
          "name": "",
          "type": "uint256"
        }
      ],
      "stateMutability": "view",
      "type": "function"
    },
    {
      "inputs": [],
      "name": "quorumNumerator",
      "outputs": [
        {
          "internalType": "uint256",
          "name": "",
          "type": "uint256"
        }
      ],
      "stateMutability": "view",
      "type": "function"
    },
    {
      "inputs": [
        {
          "internalType": "string",
          "name": "file",
          "type": "string"
        }
      ],
      "name": "register",
      "outputs": [],
      "stateMutability": "payable",
      "type": "function"
    },
    {
      "inputs": [
        {
          "internalType": "uint256",
          "name": "contestId",
          "type": "uint256"
        }
      ],
      "name": "state",
      "outputs": [
        {
          "internalType": "enum IGovernorContest.ContestState",
          "name": "",
          "type": "uint8"
        }
      ],
      "stateMutability": "view",
      "type": "function"
    },
    {
      "inputs": [],
      "name": "token",
      "outputs": [
        {
          "internalType": "contract IVotes",
          "name": "",
          "type": "address"
        }
      ],
      "stateMutability": "view",
      "type": "function"
    },
    {
      "inputs": [],
      "name": "tokenToModify",
      "outputs": [
        {
          "internalType": "contract IERC721Version",
          "name": "",
          "type": "address"
        }
      ],
      "stateMutability": "view",
      "type": "function"
    },
    {
      "inputs": [],
      "name": "treasury",
      "outputs": [
        {
          "internalType": "contract SimpleTreasury",
          "name": "",
          "type": "address"
        }
      ],
      "stateMutability": "view",
      "type": "function"
    },
    {
      "inputs": [
        {
          "internalType": "uint256",
          "name": "newQuorumNumerator",
          "type": "uint256"
        }
      ],
      "name": "updateQuorumNumerator",
      "outputs": [],
      "stateMutability": "nonpayable",
      "type": "function"
    },
    {
      "inputs": [],
      "name": "version",
      "outputs": [
        {
          "internalType": "string",
          "name": "",
          "type": "string"
        }
      ],
      "stateMutability": "view",
      "type": "function"
    },
    {
      "inputs": [],
      "name": "votingDelay",
      "outputs": [
        {
          "internalType": "uint256",
          "name": "",
          "type": "uint256"
        }
      ],
      "stateMutability": "pure",
      "type": "function"
    },
    {
      "inputs": [],
      "name": "votingPeriod",
      "outputs": [
        {
          "internalType": "uint256",
          "name": "",
          "type": "uint256"
        }
      ],
      "stateMutability": "pure",
      "type": "function"
    },
    {
      "inputs": [],
      "name": "registeringDelay",
      "outputs": [
        {
          "internalType": "uint256",
          "name": "",
          "type": "uint256"
        }
      ],
      "stateMutability": "view",
      "type": "function"
    },
    {
      "inputs": [],
      "name": "registrationPeriod",
      "outputs": [
        {
          "internalType": "uint256",
          "name": "",
          "type": "uint256"
        }
      ],
      "stateMutability": "view",
      "type": "function"
    },
    {
      "inputs": [
        {
          "internalType": "uint256",
          "name": "blockNumber",
          "type": "uint256"
        }
      ],
      "name": "quorum",
      "outputs": [
        {
          "internalType": "uint256",
          "name": "",
          "type": "uint256"
        }
      ],
      "stateMutability": "view",
      "type": "function"
    },
    {
      "inputs": [
        {
          "internalType": "bytes4",
          "name": "interfaceId",
          "type": "bytes4"
        }
      ],
      "name": "supportsInterface",
      "outputs": [
        {
          "internalType": "bool",
          "name": "",
          "type": "bool"
        }
      ],
      "stateMutability": "view",
      "type": "function"
    }
  ],
  "bytecode": "0x6101a06040523480156200001257600080fd5b5060405162004b0338038062004b038339818101604052810190620000389190620004a1565b6004816040518060400160405280600c81526020017f476f7665726e6f72436f726500000000000000000000000000000000000000008152508381620000836200024160201b60201c565b60008280519060200120905060008280519060200120905060007f8b73c3c69bb8fe3d512ecc4cf759cc79239f7b179b0ffacaa9a75d522b39400f90508260e081815250508161010081815250504660a08181525050620000ec8184846200027e60201b60201c565b608081815250503073ffffffffffffffffffffffffffffffffffffffff1660c08173ffffffffffffffffffffffffffffffffffffffff1681525050806101208181525050505050505081600090805190602001906200014d92919062000365565b508073ffffffffffffffffffffffffffffffffffffffff166101608173ffffffffffffffffffffffffffffffffffffffff1681525050806040516200019290620003f6565b6200019e91906200053e565b604051809103906000f080158015620001bb573d6000803e3d6000fd5b5073ffffffffffffffffffffffffffffffffffffffff166101408173ffffffffffffffffffffffffffffffffffffffff168152505050508073ffffffffffffffffffffffffffffffffffffffff166101808173ffffffffffffffffffffffffffffffffffffffff1681525050506200023981620002ba60201b60201c565b505062000760565b60606040518060400160405280600181526020017f3100000000000000000000000000000000000000000000000000000000000000815250905090565b600083838346306040516020016200029b959493929190620005a2565b6040516020818303038152906040528051906020012090509392505050565b620002ca6200035c60201b60201c565b8111156200030f576040517f08c379a00000000000000000000000000000000000000000000000000000000081526004016200030690620006ac565b60405180910390fd5b60006006549050816006819055507f0553476bf02ef2726e8ce5ced78d63e26e602e4a2257b1f559418e24b4633997818360405162000350929190620006ce565b60405180910390a15050565b60006064905090565b82805462000373906200072a565b90600052602060002090601f016020900481019282620003975760008555620003e3565b82601f10620003b257805160ff1916838001178555620003e3565b82800160010185558215620003e3579182015b82811115620003e2578251825591602001919060010190620003c5565b5b509050620003f2919062000404565b5090565b610c338062003ed083390190565b5b808211156200041f57600081600090555060010162000405565b5090565b600080fd5b600073ffffffffffffffffffffffffffffffffffffffff82169050919050565b6000620004558262000428565b9050919050565b6000620004698262000448565b9050919050565b6200047b816200045c565b81146200048757600080fd5b50565b6000815190506200049b8162000470565b92915050565b600060208284031215620004ba57620004b962000423565b5b6000620004ca848285016200048a565b91505092915050565b6000819050919050565b6000620004fe620004f8620004f28462000428565b620004d3565b62000428565b9050919050565b60006200051282620004dd565b9050919050565b6000620005268262000505565b9050919050565b620005388162000519565b82525050565b60006020820190506200055560008301846200052d565b92915050565b6000819050919050565b62000570816200055b565b82525050565b6000819050919050565b6200058b8162000576565b82525050565b6200059c8162000448565b82525050565b600060a082019050620005b9600083018862000565565b620005c8602083018762000565565b620005d7604083018662000565565b620005e6606083018562000580565b620005f5608083018462000591565b9695505050505050565b600082825260208201905092915050565b7f476f7665726e6f72566f74657351756f72756d4672616374696f6e3a2071756f60008201527f72756d4e756d657261746f72206f7665722071756f72756d44656e6f6d696e6160208201527f746f720000000000000000000000000000000000000000000000000000000000604082015250565b600062000694604383620005ff565b9150620006a18262000610565b606082019050919050565b60006020820190508181036000830152620006c78162000685565b9050919050565b6000604082019050620006e5600083018562000580565b620006f4602083018462000580565b9392505050565b7f4e487b7100000000000000000000000000000000000000000000000000000000600052602260045260246000fd5b600060028204905060018216806200074357607f821691505b602082108114156200075a5762000759620006fb565b5b50919050565b60805160a05160c05160e05161010051610120516101405161016051610180516136ee620007e260003960008181611ac301528181611f9001526120470152600081816115f70152611d58015260008181610f9a015281816114fe0152611e3b01526000505060005050600050506000505060005050600050506136ee6000f3fe6080604052600436106101cd5760003560e01c806361d027b3116100f7578063e2a8605f11610095578063f8ce560a11610064578063f8ce560a146106a2578063fa9dd2e9146106df578063fb3100551461071c578063fc0c546a14610759576101cd565b8063e2a8605f146105e1578063eb9019d41461061e578063f0ec6f281461065b578063f2c298be14610686576101cd565b8063a7713a70116100d1578063a7713a7014610535578063b58131b014610560578063d782f74d1461058b578063db91caa8146105b6576101cd565b806361d027b3146104b457806397c3d334146104df5780639b3662bf1461050a576101cd565b8063438596321161016f5780635612db841161013e5780635612db84146104035780635939ee04146104405780635cfee20e1461046b5780636146195414610496576101cd565b806343859632146103215780634c933f271461035e57806353358fc41461039b57806354fd4d50146103d8576101cd565b806306fdde03116101ab57806306fdde0314610263578063279688401461028e5780633932abb1146102b95780633e4f49e6146102e4576101cd565b806301ffc9a7146101d257806302a251a31461020f57806306f3f9e61461023a575b600080fd5b3480156101de57600080fd5b506101f960048036038101906101f49190612273565b610784565b60405161020691906122bb565b60405180910390f35b34801561021b57600080fd5b50610224610796565b60405161023191906122ef565b60405180910390f35b34801561024657600080fd5b50610261600480360381019061025c9190612336565b6107a0565b005b34801561026f57600080fd5b50610278610828565b60405161028591906123fc565b60405180910390f35b34801561029a57600080fd5b506102a36108ba565b6040516102b09190612437565b60405180910390f35b3480156102c557600080fd5b506102ce6108de565b6040516102db91906122ef565b60405180910390f35b3480156102f057600080fd5b5061030b60048036038101906103069190612336565b6108e7565b60405161031891906124c9565b60405180910390f35b34801561032d57600080fd5b5061034860048036038101906103439190612542565b610a02565b60405161035591906122bb565b60405180910390f35b34801561036a57600080fd5b50610385600480360381019061038091906126ca565b610a7c565b60405161039291906127d1565b60405180910390f35b3480156103a757600080fd5b506103c260048036038101906103bd91906127f3565b610c9f565b6040516103cf91906122ef565b60405180910390f35b3480156103e457600080fd5b506103ed610e6a565b6040516103fa91906123fc565b60405180910390f35b34801561040f57600080fd5b5061042a60048036038101906104259190612336565b610ea7565b60405161043791906122ef565b60405180910390f35b34801561044c57600080fd5b50610455610f24565b60405161046291906122ef565b60405180910390f35b34801561047757600080fd5b50610480610f2e565b60405161048d91906122ef565b60405180910390f35b61049e6112bb565b6040516104ab91906122ef565b60405180910390f35b3480156104c057600080fd5b506104c96114fc565b6040516104d6919061287f565b60405180910390f35b3480156104eb57600080fd5b506104f4611520565b60405161050191906122ef565b60405180910390f35b34801561051657600080fd5b5061051f611529565b60405161052c91906127d1565b60405180910390f35b34801561054157600080fd5b5061054a6115e6565b60405161055791906122ef565b60405180910390f35b34801561056c57600080fd5b506105756115f0565b60405161058291906122ef565b60405180910390f35b34801561059757600080fd5b506105a06115f5565b6040516105ad91906128cd565b60405180910390f35b3480156105c257600080fd5b506105cb611619565b6040516105d891906122ef565b60405180910390f35b3480156105ed57600080fd5b5061060860048036038101906106039190612336565b611631565b60405161061591906122ef565b60405180910390f35b34801561062a57600080fd5b50610645600480360381019061064091906128e8565b611655565b60405161065291906122ef565b60405180910390f35b34801561066757600080fd5b50610670611671565b60405161067d91906122ef565b60405180910390f35b6106a0600480360381019061069b9190612983565b61167a565b005b3480156106ae57600080fd5b506106c960048036038101906106c49190612336565b6119b5565b6040516106d691906122ef565b60405180910390f35b3480156106eb57600080fd5b5061070660048036038101906107019190612336565b6119c7565b60405161071391906122ef565b60405180910390f35b34801561072857600080fd5b50610743600480360381019061073e9190612336565b611a44565b60405161075091906122ef565b60405180910390f35b34801561076557600080fd5b5061076e611ac1565b60405161077b91906129f1565b60405180910390f35b600061078f82611ae5565b9050919050565b600061b2fa905090565b6107a8611af7565b73ffffffffffffffffffffffffffffffffffffffff166107c6611aff565b73ffffffffffffffffffffffffffffffffffffffff161461081c576040517f08c379a000000000000000000000000000000000000000000000000000000000815260040161081390612a58565b60405180910390fd5b61082581611b07565b50565b60606000805461083790612aa7565b80601f016020809104026020016040519081016040528092919081815260200182805461086390612aa7565b80156108b05780601f10610885576101008083540402835291602001916108b0565b820191906000526020600020905b81548152906001019060200180831161089357829003601f168201915b5050505050905090565b7fb8ecc509a28ef35214018281b5175c7e70adc2531dad33c98fbd0b2cc132e25481565b60006001905090565b600080600183815481106108fe576108fd612ad9565b5b906000526020600020906008020190508060050160009054906101000a900460ff161561092f5760059150506109fd565b8060050160019054906101000a900460ff16156109505760029150506109fd565b600061095b846119c7565b905060008114156109a1576040517f08c379a000000000000000000000000000000000000000000000000000000000815260040161099890612b54565b60405180910390fd5b4381106109b3576000925050506109fd565b60006109be85610ea7565b90504381106109d357600193505050506109fd565b60006109de86611a44565b90504381106109f45760039450505050506109fd565b60049450505050505b919050565b600060018381548110610a1857610a17612ad9565b5b906000526020600020906008020160060160008373ffffffffffffffffffffffffffffffffffffffff1673ffffffffffffffffffffffffffffffffffffffff16815260200190815260200160002060009054906101000a900460ff16905092915050565b60606000825190506000610aa7610aa260018080549050610a9d9190612ba3565b610ea7565b6119b5565b9050600080600090505b83811015610b3a578260056000888481518110610ad157610ad0612ad9565b5b602002602001015173ffffffffffffffffffffffffffffffffffffffff1673ffffffffffffffffffffffffffffffffffffffff168152602001908152602001600020541115610b29578180610b2590612bd7565b9250505b80610b3390612bd7565b9050610ab1565b5060008167ffffffffffffffff811115610b5757610b56612587565b5b604051908082528060200260200182016040528015610b855781602001602082028036833780820191505090505b5090506000821415610b9d5780945050505050610c9a565b60005b84811015610c91578360056000898481518110610bc057610bbf612ad9565b5b602002602001015173ffffffffffffffffffffffffffffffffffffffff1673ffffffffffffffffffffffffffffffffffffffff168152602001908152602001600020541115610c80578280610c1490612c20565b935050868181518110610c2a57610c29612ad9565b5b6020026020010151828481518110610c4557610c44612ad9565b5b602002602001019073ffffffffffffffffffffffffffffffffffffffff16908173ffffffffffffffffffffffffffffffffffffffff16815250505b80610c8a90612bd7565b9050610ba0565b50809450505050505b919050565b600080610caa611aff565b9050600060018080549050610cbf9190612ba3565b9050600060018281548110610cd757610cd6612ad9565b5b9060005260206000209060080201905060036005811115610cfb57610cfa612452565b5b610d04836108e7565b6005811115610d1657610d15612452565b5b14610d56576040517f08c379a0000000000000000000000000000000000000000000000000000000008152600401610d4d90612cbc565b60405180910390fd5b6000610db484610da5846001016040518060200160405290816000820160009054906101000a900467ffffffffffffffff1667ffffffffffffffff1667ffffffffffffffff1681525050611b9c565b67ffffffffffffffff16611655565b905080600560008873ffffffffffffffffffffffffffffffffffffffff1673ffffffffffffffffffffffffffffffffffffffff1681526020019081526020016000206000828254610e059190612cdc565b925050819055508373ffffffffffffffffffffffffffffffffffffffff167f5b4be8a1f7c35d6610ffcf815901a056e72caa6d8cdd427db5cb56982d8dfd94848884604051610e5693929190612d41565b60405180910390a280945050505050919050565b60606040518060400160405280600181526020017f3100000000000000000000000000000000000000000000000000000000000000815250905090565b6000610f1360018381548110610ec057610ebf612ad9565b5b90600052602060002090600802016001016040518060200160405290816000820160009054906101000a900467ffffffffffffffff1667ffffffffffffffff1667ffffffffffffffff1681525050611b9c565b67ffffffffffffffff169050919050565b600061b2fa905090565b6000610f386115f0565b610f55610f43611aff565b600143610f509190612ba3565b611655565b1015610f96576040517f08c379a0000000000000000000000000000000000000000000000000000000008152600401610f8d90612dea565b60405180910390fd5b60007f000000000000000000000000000000000000000000000000000000000000000073ffffffffffffffffffffffffffffffffffffffff166312065fe06040518163ffffffff1660e01b8152600401602060405180830381865afa158015611003573d6000803e3d6000fd5b505050506040513d601f19601f820116820180604052508101906110279190612e1f565b90506000600180549050905060058081111561104657611045612452565b5b61105b6001836110569190612ba3565b6108e7565b600581111561106d5761106c612452565b5b14806110b157506002600581111561108857611087612452565b5b61109d6001836110989190612ba3565b6108e7565b60058111156110af576110ae612452565b5b145b6110f0576040517f08c379a00000000000000000000000000000000000000000000000000000000081526004016110e790612e98565b60405180910390fd5b6000600180805490508154811061110a57611109612ad9565b5b90600052602060002090600802019050611163816001016040518060200160405290816000820160009054906101000a900467ffffffffffffffff1667ffffffffffffffff1667ffffffffffffffff1681525050611baa565b6111a2576040517f08c379a000000000000000000000000000000000000000000000000000000000815260040161119990612f2a565b60405180910390fd5b60006111b46111af611671565b611bc4565b6111bd43611bc4565b6111c79190612f5e565b905060006111db6111d6610f24565b611bc4565b826111e69190612f5e565b905060006111fa6111f5610796565b611bc4565b826112059190612f5e565b905061121d8385600001611c1b90919063ffffffff16565b6112338285600101611c1b90919063ffffffff16565b6112498185600201611c1b90919063ffffffff16565b60038054905084600401819055508584600301819055507f2d70fad5356323d82a1b2dcb7638393dff7d9691977a6cbcb3faf46d194d64958561128a611aff565b600380549050898787876040516112a79796959493929190612fcd565b60405180910390a184965050505050505090565b600080600180805490506112cf9190612ba3565b905060006112dc826108e7565b9050600460058111156112f2576112f1612452565b5b81600581111561130557611304612452565b5b14611345576040517f08c379a000000000000000000000000000000000000000000000000000000000815260040161133c906130ae565b60405180910390fd5b600061134f611529565b9050600061135c82610a7c565b90506000815114156113e157600180858154811061137d5761137c612ad9565b5b906000526020600020906008020160050160016101000a81548160ff0219169083151502179055507fcce8fbf2e6c9a589c54910eef6d841be296f721adbc0b43a42d07a0fd186f171846040516113d491906122ef565b60405180910390a16114f2565b60018085815481106113f6576113f5612ad9565b5b906000526020600020906008020160050160006101000a81548160ff0219169083151502179055507f118cbce212362b04a68e2ff462e3d906f3de391938f311af5f5625e529470dc78460405161144d91906122ef565b60405180910390a18073__Sorter________________________________63b6aac1cb909160056040518363ffffffff1660e01b815260040161149192919061316b565b600060405180830381865af41580156114ae573d6000803e3d6000fd5b505050506040513d6000823e3d601f19601f820116820180604052508101906114d79190613247565b5060006114e48251611c4a565b90506114f08282611d45565b505b8394505050505090565b7f000000000000000000000000000000000000000000000000000000000000000081565b60006064905090565b6060600373__Slicer________________________________636a41bd8a9091600180808054905061155b9190612ba3565b8154811061156c5761156b612ad9565b5b9060005260206000209060080201600401546040518363ffffffff1660e01b815260040161159b9291906132a6565b600060405180830381865af41580156115b8573d6000803e3d6000fd5b505050506040513d6000823e3d601f19601f820116820180604052508101906115e19190613247565b905090565b6000600654905090565b600090565b7f000000000000000000000000000000000000000000000000000000000000000081565b60006001808054905061162c9190612ba3565b905090565b6002818154811061164157600080fd5b906000526020600020016000915090505481565b60006116698383611664611f75565b611f8c565b905092915050565b60006001905090565b60006001808054905061168d9190612ba3565b9050436116fa600183815481106116a7576116a6612ad9565b5b90600052602060002090600802016000016040518060200160405290816000820160009054906101000a900467ffffffffffffffff1667ffffffffffffffff1667ffffffffffffffff1681525050611b9c565b67ffffffffffffffff161080156117835750436117776001838154811061172457611723612ad9565b5b90600052602060002090600802016001016040518060200160405290816000820160009054906101000a900467ffffffffffffffff1667ffffffffffffffff1667ffffffffffffffff1681525050611b9c565b67ffffffffffffffff16115b6117c2576040517f08c379a00000000000000000000000000000000000000000000000000000000081526004016117b990613341565b60405180910390fd5b60001515600182815481106117da576117d9612ad9565b5b906000526020600020906008020160070160003373ffffffffffffffffffffffffffffffffffffffff1673ffffffffffffffffffffffffffffffffffffffff16815260200190815260200160002060009054906101000a900460ff161515141561191c576003339080600181540180825580915050600190039060005260206000200160009091909190916101000a81548173ffffffffffffffffffffffffffffffffffffffff021916908373ffffffffffffffffffffffffffffffffffffffff16021790555060018082815481106118b6576118b5612ad9565b5b906000526020600020906008020160070160003373ffffffffffffffffffffffffffffffffffffffff1673ffffffffffffffffffffffffffffffffffffffff16815260200190815260200160002060006101000a81548160ff0219169083151502179055505b8282600460003373ffffffffffffffffffffffffffffffffffffffff1673ffffffffffffffffffffffffffffffffffffffff168152602001908152602001600020919061196a929190612164565b506000600560003373ffffffffffffffffffffffffffffffffffffffff1673ffffffffffffffffffffffffffffffffffffffff16815260200190815260200160002081905550505050565b60006119c082612033565b9050919050565b6000611a33600183815481106119e0576119df612ad9565b5b90600052602060002090600802016000016040518060200160405290816000820160009054906101000a900467ffffffffffffffff1667ffffffffffffffff1667ffffffffffffffff1681525050611b9c565b67ffffffffffffffff169050919050565b6000611ab060018381548110611a5d57611a5c612ad9565b5b90600052602060002090600802016002016040518060200160405290816000820160009054906101000a900467ffffffffffffffff1667ffffffffffffffff1667ffffffffffffffff1681525050611b9c565b67ffffffffffffffff169050919050565b7f000000000000000000000000000000000000000000000000000000000000000081565b6000611af0826120fa565b9050919050565b600030905090565b600033905090565b611b0f611520565b811115611b51576040517f08c379a0000000000000000000000000000000000000000000000000000000008152600401611b48906133f9565b60405180910390fd5b60006006549050816006819055507f0553476bf02ef2726e8ce5ced78d63e26e602e4a2257b1f559418e24b46339978183604051611b90929190613419565b60405180910390a15050565b600081600001519050919050565b600080826000015167ffffffffffffffff16149050919050565b600067ffffffffffffffff8016821115611c13576040517f08c379a0000000000000000000000000000000000000000000000000000000008152600401611c0a906134b4565b60405180910390fd5b819050919050565b808260000160006101000a81548167ffffffffffffffff021916908367ffffffffffffffff1602179055505050565b60606000600183611c5b9190612cdc565b67ffffffffffffffff811115611c7457611c73612587565b5b604051908082528060200260200182016040528015611ca25781602001602082028036833780820191505090505b50905060005b83811015611cf8578084611cbc9190612ba3565b6002611cc891906134d4565b828281518110611cdb57611cda612ad9565b5b60200260200101818152505080611cf190612bd7565b9050611ca8565b50600183611d069190612cdc565b83611d1191906134d4565b6004611d1d9190612cdc565b818481518110611d3057611d2f612ad9565b5b60200260200101818152505080915050919050565b60008251905060005b81811015611f6f577f000000000000000000000000000000000000000000000000000000000000000073ffffffffffffffffffffffffffffffffffffffff1663f7c6aac560046000878581518110611da957611da8612ad9565b5b602002602001015173ffffffffffffffffffffffffffffffffffffffff1673ffffffffffffffffffffffffffffffffffffffff1681526020019081526020016000206040518263ffffffff1660e01b8152600401611e0791906135c3565b600060405180830381600087803b158015611e2157600080fd5b505af1158015611e35573d6000803e3d6000fd5b505050507f000000000000000000000000000000000000000000000000000000000000000073ffffffffffffffffffffffffffffffffffffffff166364a197f3858381518110611e8857611e87612ad9565b5b6020026020010151858581518110611ea357611ea2612ad9565b5b60200260200101516001808080549050611ebd9190612ba3565b81548110611ece57611ecd612ad9565b5b906000526020600020906008020160030154878681518110611ef357611ef2612ad9565b5b6020026020010151611f0591906134d4565b611f0f9190613614565b6040518363ffffffff1660e01b8152600401611f2c929190613666565b600060405180830381600087803b158015611f4657600080fd5b505af1158015611f5a573d6000803e3d6000fd5b5050505080611f6890612bd7565b9050611d4e565b50505050565b606060405180602001604052806000815250905090565b60007f000000000000000000000000000000000000000000000000000000000000000073ffffffffffffffffffffffffffffffffffffffff16633a46b1a885856040518363ffffffff1660e01b8152600401611fe992919061368f565b602060405180830381865afa158015612006573d6000803e3d6000fd5b505050506040513d601f19601f8201168201806040525081019061202a9190612e1f565b90509392505050565b600061203d611520565b6120456115e6565b7f000000000000000000000000000000000000000000000000000000000000000073ffffffffffffffffffffffffffffffffffffffff16638e539e8c856040518263ffffffff1660e01b815260040161209e91906122ef565b602060405180830381865afa1580156120bb573d6000803e3d6000fd5b505050506040513d601f19601f820116820180604052508101906120df9190612e1f565b6120e991906134d4565b6120f39190613614565b9050919050565b60007f01ffc9a7000000000000000000000000000000000000000000000000000000007bffffffffffffffffffffffffffffffffffffffffffffffffffffffff1916827bffffffffffffffffffffffffffffffffffffffffffffffffffffffff1916149050919050565b82805461217090612aa7565b90600052602060002090601f01602090048101928261219257600085556121d9565b82601f106121ab57803560ff19168380011785556121d9565b828001600101855582156121d9579182015b828111156121d85782358255916020019190600101906121bd565b5b5090506121e691906121ea565b5090565b5b808211156122035760008160009055506001016121eb565b5090565b6000604051905090565b600080fd5b600080fd5b60007fffffffff0000000000000000000000000000000000000000000000000000000082169050919050565b6122508161221b565b811461225b57600080fd5b50565b60008135905061226d81612247565b92915050565b60006020828403121561228957612288612211565b5b60006122978482850161225e565b91505092915050565b60008115159050919050565b6122b5816122a0565b82525050565b60006020820190506122d060008301846122ac565b92915050565b6000819050919050565b6122e9816122d6565b82525050565b600060208201905061230460008301846122e0565b92915050565b612313816122d6565b811461231e57600080fd5b50565b6000813590506123308161230a565b92915050565b60006020828403121561234c5761234b612211565b5b600061235a84828501612321565b91505092915050565b600081519050919050565b600082825260208201905092915050565b60005b8381101561239d578082015181840152602081019050612382565b838111156123ac576000848401525b50505050565b6000601f19601f8301169050919050565b60006123ce82612363565b6123d8818561236e565b93506123e881856020860161237f565b6123f1816123b2565b840191505092915050565b6000602082019050818103600083015261241681846123c3565b905092915050565b6000819050919050565b6124318161241e565b82525050565b600060208201905061244c6000830184612428565b92915050565b7f4e487b7100000000000000000000000000000000000000000000000000000000600052602160045260246000fd5b6006811061249257612491612452565b5b50565b60008190506124a382612481565b919050565b60006124b382612495565b9050919050565b6124c3816124a8565b82525050565b60006020820190506124de60008301846124ba565b92915050565b600073ffffffffffffffffffffffffffffffffffffffff82169050919050565b600061250f826124e4565b9050919050565b61251f81612504565b811461252a57600080fd5b50565b60008135905061253c81612516565b92915050565b6000806040838503121561255957612558612211565b5b600061256785828601612321565b92505060206125788582860161252d565b9150509250929050565b600080fd5b7f4e487b7100000000000000000000000000000000000000000000000000000000600052604160045260246000fd5b6125bf826123b2565b810181811067ffffffffffffffff821117156125de576125dd612587565b5b80604052505050565b60006125f1612207565b90506125fd82826125b6565b919050565b600067ffffffffffffffff82111561261d5761261c612587565b5b602082029050602081019050919050565b600080fd5b600061264661264184612602565b6125e7565b905080838252602082019050602084028301858111156126695761266861262e565b5b835b81811015612692578061267e888261252d565b84526020840193505060208101905061266b565b5050509392505050565b600082601f8301126126b1576126b0612582565b5b81356126c1848260208601612633565b91505092915050565b6000602082840312156126e0576126df612211565b5b600082013567ffffffffffffffff8111156126fe576126fd612216565b5b61270a8482850161269c565b91505092915050565b600081519050919050565b600082825260208201905092915050565b6000819050602082019050919050565b61274881612504565b82525050565b600061275a838361273f565b60208301905092915050565b6000602082019050919050565b600061277e82612713565b612788818561271e565b93506127938361272f565b8060005b838110156127c45781516127ab888261274e565b97506127b683612766565b925050600181019050612797565b5085935050505092915050565b600060208201905081810360008301526127eb8184612773565b905092915050565b60006020828403121561280957612808612211565b5b60006128178482850161252d565b91505092915050565b6000819050919050565b600061284561284061283b846124e4565b612820565b6124e4565b9050919050565b60006128578261282a565b9050919050565b60006128698261284c565b9050919050565b6128798161285e565b82525050565b60006020820190506128946000830184612870565b92915050565b60006128a58261282a565b9050919050565b60006128b78261289a565b9050919050565b6128c7816128ac565b82525050565b60006020820190506128e260008301846128be565b92915050565b600080604083850312156128ff576128fe612211565b5b600061290d8582860161252d565b925050602061291e85828601612321565b9150509250929050565b600080fd5b60008083601f84011261294357612942612582565b5b8235905067ffffffffffffffff8111156129605761295f612928565b5b60208301915083600182028301111561297c5761297b61262e565b5b9250929050565b6000806020838503121561299a57612999612211565b5b600083013567ffffffffffffffff8111156129b8576129b7612216565b5b6129c48582860161292d565b92509250509250929050565b60006129db8261289a565b9050919050565b6129eb816129d0565b82525050565b6000602082019050612a0660008301846129e2565b92915050565b7f476f7665726e6f723a206f6e6c79476f7665726e616e63650000000000000000600082015250565b6000612a4260188361236e565b9150612a4d82612a0c565b602082019050919050565b60006020820190508181036000830152612a7181612a35565b9050919050565b7f4e487b7100000000000000000000000000000000000000000000000000000000600052602260045260246000fd5b60006002820490506001821680612abf57607f821691505b60208210811415612ad357612ad2612a78565b5b50919050565b7f4e487b7100000000000000000000000000000000000000000000000000000000600052603260045260246000fd5b7f476f7665726e6f723a20756e6b6e6f776e2070726f706f73616c206964000000600082015250565b6000612b3e601d8361236e565b9150612b4982612b08565b602082019050919050565b60006020820190508181036000830152612b6d81612b31565b9050919050565b7f4e487b7100000000000000000000000000000000000000000000000000000000600052601160045260246000fd5b6000612bae826122d6565b9150612bb9836122d6565b925082821015612bcc57612bcb612b74565b5b828203905092915050565b6000612be2826122d6565b91507fffffffffffffffffffffffffffffffffffffffffffffffffffffffffffffffff821415612c1557612c14612b74565b5b600182019050919050565b6000612c2b826122d6565b91506000821415612c3f57612c3e612b74565b5b600182039050919050565b7f476f7665726e6f723a20766f7465206e6f742063757272656e746c792061637460008201527f6976650000000000000000000000000000000000000000000000000000000000602082015250565b6000612ca660238361236e565b9150612cb182612c4a565b604082019050919050565b60006020820190508181036000830152612cd581612c99565b9050919050565b6000612ce7826122d6565b9150612cf2836122d6565b9250827fffffffffffffffffffffffffffffffffffffffffffffffffffffffffffffffff03821115612d2757612d26612b74565b5b828201905092915050565b612d3b81612504565b82525050565b6000606082019050612d5660008301866122e0565b612d636020830185612d32565b612d7060408301846122e0565b949350505050565b7f476f7665726e6f723a2070726f706f73657220766f7465732062656c6f77207060008201527f726f706f73616c207468726573686f6c64000000000000000000000000000000602082015250565b6000612dd460318361236e565b9150612ddf82612d78565b604082019050919050565b60006020820190508181036000830152612e0381612dc7565b9050919050565b600081519050612e198161230a565b92915050565b600060208284031215612e3557612e34612211565b5b6000612e4384828501612e0a565b91505092915050565b7f50726576696f757320636f6e74657374207374696c6c206f6e2e000000000000600082015250565b6000612e82601a8361236e565b9150612e8d82612e4c565b602082019050919050565b60006020820190508181036000830152612eb181612e75565b9050919050565b7f476f7665726e6f723a2070726f706f73616c20616c726561647920657869737460008201527f7300000000000000000000000000000000000000000000000000000000000000602082015250565b6000612f1460218361236e565b9150612f1f82612eb8565b604082019050919050565b60006020820190508181036000830152612f4381612f07565b9050919050565b600067ffffffffffffffff82169050919050565b6000612f6982612f4a565b9150612f7483612f4a565b92508267ffffffffffffffff03821115612f9157612f90612b74565b5b828201905092915050565b6000612fb7612fb2612fad84612f4a565b612820565b6122d6565b9050919050565b612fc781612f9c565b82525050565b600060e082019050612fe2600083018a6122e0565b612fef6020830189612d32565b612ffc60408301886122e0565b61300960608301876122e0565b6130166080830186612fbe565b61302360a0830185612fbe565b61303060c0830184612fbe565b98975050505050505050565b7f476f7665726e6f723a20546865726520617265206e6f20636f6d706c6574656460008201527f20636f6e746573747320746f20657865637574652e0000000000000000000000602082015250565b600061309860358361236e565b91506130a38261303c565b604082019050919050565b600060208201905081810360008301526130c78161308b565b9050919050565b600082825260208201905092915050565b6130e881612504565b82525050565b60006130fa83836130df565b60208301905092915050565b600061311182612713565b61311b81856130ce565b93506131268361272f565b8060005b8381101561315757815161313e88826130ee565b975061314983612766565b92505060018101905061312a565b5085935050505092915050565b8082525050565b600060408201905081810360008301526131858185613106565b90506131946020830184613164565b9392505050565b6000815190506131aa81612516565b92915050565b60006131c36131be84612602565b6125e7565b905080838252602082019050602084028301858111156131e6576131e561262e565b5b835b8181101561320f57806131fb888261319b565b8452602084019350506020810190506131e8565b5050509392505050565b600082601f83011261322e5761322d612582565b5b815161323e8482602086016131b0565b91505092915050565b60006020828403121561325d5761325c612211565b5b600082015167ffffffffffffffff81111561327b5761327a612216565b5b61328784828501613219565b91505092915050565b8082525050565b6132a0816122d6565b82525050565b60006040820190506132bb6000830185613290565b6132c86020830184613297565b9392505050565b7f54686973206973206e6f742074686520726567697374726174696f6e2070657260008201527f696f640000000000000000000000000000000000000000000000000000000000602082015250565b600061332b60238361236e565b9150613336826132cf565b604082019050919050565b6000602082019050818103600083015261335a8161331e565b9050919050565b7f476f7665726e6f72566f74657351756f72756d4672616374696f6e3a2071756f60008201527f72756d4e756d657261746f72206f7665722071756f72756d44656e6f6d696e6160208201527f746f720000000000000000000000000000000000000000000000000000000000604082015250565b60006133e360438361236e565b91506133ee82613361565b606082019050919050565b60006020820190508181036000830152613412816133d6565b9050919050565b600060408201905061342e60008301856122e0565b61343b60208301846122e0565b9392505050565b7f53616665436173743a2076616c756520646f65736e27742066697420696e203660008201527f3420626974730000000000000000000000000000000000000000000000000000602082015250565b600061349e60268361236e565b91506134a982613442565b604082019050919050565b600060208201905081810360008301526134cd81613491565b9050919050565b60006134df826122d6565b91506134ea836122d6565b9250817fffffffffffffffffffffffffffffffffffffffffffffffffffffffffffffffff048311821515161561352357613522612b74565b5b828202905092915050565b60008190508160005260206000209050919050565b6000815461355081612aa7565b61355a818661236e565b945060018216600081146135755760018114613587576135ba565b60ff19831686526020860193506135ba565b6135908561352e565b60005b838110156135b257815481890152600182019150602081019050613593565b808801955050505b50505092915050565b600060208201905081810360008301526135dd8184613543565b905092915050565b7f4e487b7100000000000000000000000000000000000000000000000000000000600052601260045260246000fd5b600061361f826122d6565b915061362a836122d6565b92508261363a576136396135e5565b5b828204905092915050565b6000613650826124e4565b9050919050565b61366081613645565b82525050565b600060408201905061367b6000830185613657565b61368860208301846122e0565b9392505050565b60006040820190506136a46000830185612d32565b6136b160208301846122e0565b939250505056fea2646970667358221220ac47da4ef45325368baaa01bad3fd5df6653add9c32735cca8f60a51930b0ead64736f6c634300080b003360a06040523480156200001157600080fd5b5060405162000c3338038062000c3383398181016040528101906200003791906200021b565b620000576200004b620000d160201b60201c565b620000d960201b60201c565b8073ffffffffffffffffffffffffffffffffffffffff1660808173ffffffffffffffffffffffffffffffffffffffff16815250507f0371e6c1451d0a54cd2b7d5cf31ff881fd3e2437d82386d1529501336060f5f23330608051604051620000c2939291906200025e565b60405180910390a1506200029b565b600033905090565b60008060009054906101000a900473ffffffffffffffffffffffffffffffffffffffff169050816000806101000a81548173ffffffffffffffffffffffffffffffffffffffff021916908373ffffffffffffffffffffffffffffffffffffffff1602179055508173ffffffffffffffffffffffffffffffffffffffff168173ffffffffffffffffffffffffffffffffffffffff167f8be0079c531659141344cd1fd0a4f28419497f9722a3daafe3b4186f6b6457e060405160405180910390a35050565b600080fd5b600073ffffffffffffffffffffffffffffffffffffffff82169050919050565b6000620001cf82620001a2565b9050919050565b6000620001e382620001c2565b9050919050565b620001f581620001d6565b81146200020157600080fd5b50565b6000815190506200021581620001ea565b92915050565b6000602082840312156200023457620002336200019d565b5b6000620002448482850162000204565b91505092915050565b6200025881620001c2565b82525050565b60006060820190506200027560008301866200024d565b6200028460208301856200024d565b6200029360408301846200024d565b949350505050565b60805161097c620002b760003960006101c4015261097c6000f3fe6080604052600436106100595760003560e01c806312065fe0146100cc5780634de046d5146100f757806364a197f314610122578063715018a61461014b5780638da5cb5b14610162578063f2fde38b1461018d576100c7565b366100c75734600160008282546100709190610539565b925050819055503373ffffffffffffffffffffffffffffffffffffffff167f7633918dd12eec332d7212b2ddc5cfd92b19ba6b4bca27ecc63534c3bf137b65346040516100bd919061059e565b60405180910390a2005b600080fd5b3480156100d857600080fd5b506100e16101b6565b6040516100ee919061059e565b60405180910390f35b34801561010357600080fd5b5061010c6101c0565b6040516101199190610638565b60405180910390f35b34801561012e57600080fd5b50610149600480360381019061014491906106c2565b6101e8565b005b34801561015757600080fd5b506101606101fe565b005b34801561016e57600080fd5b50610177610212565b6040516101849190610723565b60405180910390f35b34801561019957600080fd5b506101b460048036038101906101af919061076a565b61023b565b005b6000600154905090565b60007f0000000000000000000000000000000000000000000000000000000000000000905090565b6101f06102bf565b6101fa828261033d565b5050565b6102066102bf565b6102106000610434565b565b60008060009054906101000a900473ffffffffffffffffffffffffffffffffffffffff16905090565b6102436102bf565b600073ffffffffffffffffffffffffffffffffffffffff168173ffffffffffffffffffffffffffffffffffffffff1614156102b3576040517f08c379a00000000000000000000000000000000000000000000000000000000081526004016102aa9061081a565b60405180910390fd5b6102bc81610434565b50565b6102c76104f8565b73ffffffffffffffffffffffffffffffffffffffff166102e5610212565b73ffffffffffffffffffffffffffffffffffffffff161461033b576040517f08c379a000000000000000000000000000000000000000000000000000000000815260040161033290610886565b60405180910390fd5b565b600154811115610382576040517f08c379a0000000000000000000000000000000000000000000000000000000008152600401610379906108f2565b60405180910390fd5b8173ffffffffffffffffffffffffffffffffffffffff166108fc829081150290604051600060405180830381858888f193505050501580156103c8573d6000803e3d6000fd5b5080600160008282546103db9190610912565b925050819055508173ffffffffffffffffffffffffffffffffffffffff167fc70a094cb0b20f152b6d171a215827df475885ee85e81c9626d07200d7ddea4282604051610428919061059e565b60405180910390a25050565b60008060009054906101000a900473ffffffffffffffffffffffffffffffffffffffff169050816000806101000a81548173ffffffffffffffffffffffffffffffffffffffff021916908373ffffffffffffffffffffffffffffffffffffffff1602179055508173ffffffffffffffffffffffffffffffffffffffff168173ffffffffffffffffffffffffffffffffffffffff167f8be0079c531659141344cd1fd0a4f28419497f9722a3daafe3b4186f6b6457e060405160405180910390a35050565b600033905090565b6000819050919050565b7f4e487b7100000000000000000000000000000000000000000000000000000000600052601160045260246000fd5b600061054482610500565b915061054f83610500565b9250827fffffffffffffffffffffffffffffffffffffffffffffffffffffffffffffffff038211156105845761058361050a565b5b828201905092915050565b61059881610500565b82525050565b60006020820190506105b3600083018461058f565b92915050565b600073ffffffffffffffffffffffffffffffffffffffff82169050919050565b6000819050919050565b60006105fe6105f96105f4846105b9565b6105d9565b6105b9565b9050919050565b6000610610826105e3565b9050919050565b600061062282610605565b9050919050565b61063281610617565b82525050565b600060208201905061064d6000830184610629565b92915050565b600080fd5b6000610663826105b9565b9050919050565b61067381610658565b811461067e57600080fd5b50565b6000813590506106908161066a565b92915050565b61069f81610500565b81146106aa57600080fd5b50565b6000813590506106bc81610696565b92915050565b600080604083850312156106d9576106d8610653565b5b60006106e785828601610681565b92505060206106f8858286016106ad565b9150509250929050565b600061070d826105b9565b9050919050565b61071d81610702565b82525050565b60006020820190506107386000830184610714565b92915050565b61074781610702565b811461075257600080fd5b50565b6000813590506107648161073e565b92915050565b6000602082840312156107805761077f610653565b5b600061078e84828501610755565b91505092915050565b600082825260208201905092915050565b7f4f776e61626c653a206e6577206f776e657220697320746865207a65726f206160008201527f6464726573730000000000000000000000000000000000000000000000000000602082015250565b6000610804602683610797565b915061080f826107a8565b604082019050919050565b60006020820190508181036000830152610833816107f7565b9050919050565b7f4f776e61626c653a2063616c6c6572206973206e6f7420746865206f776e6572600082015250565b6000610870602083610797565b915061087b8261083a565b602082019050919050565b6000602082019050818103600083015261089f81610863565b9050919050565b7f496e73756666696369656e742066756e64730000000000000000000000000000600082015250565b60006108dc601283610797565b91506108e7826108a6565b602082019050919050565b6000602082019050818103600083015261090b816108cf565b9050919050565b600061091d82610500565b915061092883610500565b92508282101561093b5761093a61050a565b5b82820390509291505056fea26469706673582212209ab6a0fd6e0bf478620e3b7d830b57f423aaef27670cf958cf5e90bc5c805fb864736f6c634300080b0033",
  "immutableReferences": {
    "9204": [
      {
        "length": 32,
        "start": 3994
      },
      {
        "length": 32,
        "start": 5374
      },
      {
        "length": 32,
        "start": 7739
      }
    ],
    "9207": [
      {
        "length": 32,
        "start": 5623
      },
      {
        "length": 32,
        "start": 7512
      }
    ],
    "10177": [
      {
        "length": 32,
        "start": 6851
      },
      {
        "length": 32,
        "start": 8080
      },
      {
        "length": 32,
        "start": 8263
      }
    ]
  },
  "source": "// SPDX-License-Identifier: MIT\npragma solidity >=0.4.22 <0.9.0;\n\nimport \"./GovernanceExtensions/GovernorContest.sol\";\nimport \"./GovernanceExtensions/GovernorVotes.sol\";\nimport \"./GovernanceExtensions/GovernorVotesQuorumFraction.sol\";\nimport \"./ERC721Version.sol\";\n\ncontract ContestGovernor is GovernorContest, GovernorVotes, GovernorVotesQuorumFraction{\n    constructor(ERC721Version _token)\n        GovernorContest(\"GovernorCore\", _token)\n        GovernorVotes(_token)\n        GovernorVotesQuorumFraction(4)\n    {}\n\n    function votingDelay() public pure returns (uint256) {\n        return 1; // 1 block\n    }\n\n    function votingPeriod() public pure override returns (uint256) {\n        return 45818; // 1 week\n    }\n\n    /**\n     @dev Time, in number of blocks, before launch of registration period.\n     */\n\n\n    function registeringDelay() public view virtual override returns (uint256){\n        return 1;\n    }\n\n    /**\n     @dev Time, in number of blocks, for the participants to register with their desired file.\n     */\n\n    function registrationPeriod() public view virtual override returns (uint256){\n        return 45818;\n    }\n\n\n    // The following functions are overrides required by Solidity.\n\n    function quorum(uint256 blockNumber)\n        public\n        view\n        override(IGovernorContest, GovernorVotesQuorumFraction)\n        returns (uint256)\n    {\n        return super.quorum(blockNumber);\n    }\n\n\n    function supportsInterface(bytes4 interfaceId)\n        public\n        view\n        override(GovernorContest)\n        returns (bool)\n    {\n        return super.supportsInterface(interfaceId);\n    }\n}\n",
  "sourcePath": "/Users/admin/Desktop/TokenSmith/contracts/ContestGovernor.sol",
  "compiler": {
    "name": "solc",
    "version": "0.8.11+commit.d7f03943.Emscripten.clang"
  },
  "schemaVersion": "3.4.5",
  "updatedAt": "2022-08-07T14:35:04.090Z",
  "devdoc": {
    "kind": "dev",
    "methods": {
      "castVote(address)": {
        "details": "See {IGovernor-castVote}."
      },
      "contestDeadline(uint256)": {
        "details": "See {IGovernor-proposalDeadline}."
      },
      "contestRegistration(uint256)": {
        "details": "See {IGovernorContest-contestRegistration}."
      },
      "contestVoting(uint256)": {
        "details": "See {IGovernor-proposalSnapshot}."
      },
      "execute()": {
        "details": "See {IGovernor-execute}."
      },
      "getVotes(address,uint256)": {
        "details": "See {IGovernor-getVotes}."
      },
      "hasVoted(uint256,address)": {
        "details": "See {IGovernor-hasVoted}."
      },
      "idOfOpenContests()": {
        "details": "Id of the open contest "
      },
      "initiateContest()": {
        "details": "See {IGovernor-propose}."
      },
      "name()": {
        "details": "See {IGovernor-name}."
      },
      "proposalThreshold()": {
        "details": "Part of the Governor Bravo's interface: _\"The number of votes required in order for a voter to become a proposer\"_."
      },
      "quorumDenominator()": {
        "details": "Returns the quorum denominator. Defaults to 100, but may be overridden."
      },
      "quorumNumerator()": {
        "details": "Returns the current quorum numerator. See {quorumDenominator}."
      },
      "register(string)": {
        "details": "Allows participants to register to the contest.  Note : Maybe add an event?"
      },
      "registeringDelay()": {
        "details": "Time, in number of blocks, before launch of registration period."
      },
      "registrationPeriod()": {
        "details": "Time, in number of blocks, for the participants to register with their desired file."
      },
      "state(uint256)": {
        "details": "See {IGovernorContest-state}."
      },
      "supportsInterface(bytes4)": {
        "details": "See {IERC165-supportsInterface}."
      },
      "updateQuorumNumerator(uint256)": {
        "details": "Changes the quorum numerator. Emits a {QuorumNumeratorUpdated} event. Requirements: - Must be called through a governance proposal. - New numerator must be smaller or equal to the denominator."
      },
      "version()": {
        "details": "See {IGovernor-version}."
      },
      "votingPeriod()": {
        "details": "Delay, in number of blocks, between the vote start and vote ends. NOTE: The {registeringDelay and registeringPeriod} can delay the start of the vote. This must be considered when setting the voting duration compared to the voting delay."
      }
    },
    "version": 1
  },
  "userdoc": {
    "kind": "user",
    "methods": {
      "currentParticipants()": {
        "notice": "see library documentation - {ArraySlicer} "
      },
      "idOfOpenContests()": {
        "notice": "module:contestCore-LorenzSchmidlin"
      },
      "register(string)": {
        "notice": "module:contestCore-LorenzSchmidlin"
      },
      "votingPeriod()": {
        "notice": "module:user-config"
      }
    },
    "version": 1
  }
}