{
  "contractName": "ContestGovernor",
  "abi": [
    {
      "inputs": [
        {
          "internalType": "contract ERC721Version",
          "name": "_token",
          "type": "address"
        }
      ],
      "stateMutability": "nonpayable",
      "type": "constructor"
    },
    {
      "anonymous": false,
      "inputs": [
        {
          "indexed": false,
          "internalType": "uint256",
          "name": "contestId",
          "type": "uint256"
        }
      ],
      "name": "ContestCanceled",
      "type": "event"
    },
    {
      "anonymous": false,
      "inputs": [
        {
          "indexed": false,
          "internalType": "uint256",
          "name": "contestId",
          "type": "uint256"
        },
        {
          "indexed": false,
          "internalType": "address",
          "name": "proposer",
          "type": "address"
        },
        {
          "indexed": false,
          "internalType": "uint256",
          "name": "target",
          "type": "uint256"
        },
        {
          "indexed": false,
          "internalType": "uint256",
          "name": "value",
          "type": "uint256"
        },
        {
          "indexed": false,
          "internalType": "uint256",
          "name": "startBlock",
          "type": "uint256"
        },
        {
          "indexed": false,
          "internalType": "uint256",
          "name": "registrationEndBlock",
          "type": "uint256"
        },
        {
          "indexed": false,
          "internalType": "uint256",
          "name": "endBlock",
          "type": "uint256"
        }
      ],
      "name": "ContestCreated",
      "type": "event"
    },
    {
      "anonymous": false,
      "inputs": [
        {
          "indexed": false,
          "internalType": "uint256",
          "name": "contestId",
          "type": "uint256"
        }
      ],
      "name": "ContestExecuted",
      "type": "event"
    },
    {
      "anonymous": false,
      "inputs": [
        {
          "indexed": false,
          "internalType": "uint256",
          "name": "oldQuorumNumerator",
          "type": "uint256"
        },
        {
          "indexed": false,
          "internalType": "uint256",
          "name": "newQuorumNumerator",
          "type": "uint256"
        }
      ],
      "name": "QuorumNumeratorUpdated",
      "type": "event"
    },
    {
      "anonymous": false,
      "inputs": [
        {
          "indexed": true,
          "internalType": "address",
          "name": "voter",
          "type": "address"
        },
        {
          "indexed": false,
          "internalType": "uint256",
          "name": "proposalId",
          "type": "uint256"
        },
        {
          "indexed": false,
          "internalType": "address",
          "name": "candidate",
          "type": "address"
        },
        {
          "indexed": false,
          "internalType": "uint256",
          "name": "weight",
          "type": "uint256"
        }
      ],
      "name": "VoteCast",
      "type": "event"
    },
    {
      "inputs": [],
      "name": "CONTEST_TYPEHASH",
      "outputs": [
        {
          "internalType": "bytes32",
          "name": "",
          "type": "bytes32"
        }
      ],
      "stateMutability": "view",
      "type": "function"
    },
    {
      "inputs": [
        {
          "internalType": "uint256",
          "name": "",
          "type": "uint256"
        }
      ],
      "name": "_lastEntryForContest",
      "outputs": [
        {
          "internalType": "uint256",
          "name": "",
          "type": "uint256"
        }
      ],
      "stateMutability": "view",
      "type": "function"
    },
    {
      "inputs": [
        {
          "internalType": "address",
          "name": "candidate",
          "type": "address"
        }
      ],
      "name": "castVote",
      "outputs": [
        {
          "internalType": "uint256",
          "name": "",
          "type": "uint256"
        }
      ],
      "stateMutability": "nonpayable",
      "type": "function"
    },
    {
      "inputs": [
        {
          "internalType": "uint256",
          "name": "contestId",
          "type": "uint256"
        }
      ],
      "name": "contestDeadline",
      "outputs": [
        {
          "internalType": "uint256",
          "name": "",
          "type": "uint256"
        }
      ],
      "stateMutability": "view",
      "type": "function"
    },
    {
      "inputs": [
        {
          "internalType": "uint256",
          "name": "contestId",
          "type": "uint256"
        }
      ],
      "name": "contestRegistration",
      "outputs": [
        {
          "internalType": "uint256",
          "name": "",
          "type": "uint256"
        }
      ],
      "stateMutability": "view",
      "type": "function"
    },
    {
      "inputs": [
        {
          "internalType": "uint256",
          "name": "contestId",
          "type": "uint256"
        }
      ],
      "name": "contestVoting",
      "outputs": [
        {
          "internalType": "uint256",
          "name": "",
          "type": "uint256"
        }
      ],
      "stateMutability": "view",
      "type": "function"
    },
    {
      "inputs": [],
      "name": "currentParticipants",
      "outputs": [
        {
          "internalType": "address[]",
          "name": "slicedParticipants",
          "type": "address[]"
        }
      ],
      "stateMutability": "view",
      "type": "function"
    },
    {
      "inputs": [],
      "name": "execute",
      "outputs": [
        {
          "internalType": "uint256",
          "name": "",
          "type": "uint256"
        }
      ],
      "stateMutability": "payable",
      "type": "function"
    },
    {
      "inputs": [
        {
          "internalType": "address[]",
          "name": "_validParticipants",
          "type": "address[]"
        }
      ],
      "name": "findWinners",
      "outputs": [
        {
          "internalType": "address[]",
          "name": "winners",
          "type": "address[]"
        }
      ],
      "stateMutability": "view",
      "type": "function"
    },
    {
      "inputs": [
        {
          "internalType": "address",
          "name": "account",
          "type": "address"
        },
        {
          "internalType": "uint256",
          "name": "blockNumber",
          "type": "uint256"
        }
      ],
      "name": "getVotes",
      "outputs": [
        {
          "internalType": "uint256",
          "name": "",
          "type": "uint256"
        }
      ],
      "stateMutability": "view",
      "type": "function"
    },
    {
      "inputs": [
        {
          "internalType": "uint256",
          "name": "contestId",
          "type": "uint256"
        },
        {
          "internalType": "address",
          "name": "account",
          "type": "address"
        }
      ],
      "name": "hasVoted",
      "outputs": [
        {
          "internalType": "bool",
          "name": "",
          "type": "bool"
        }
      ],
      "stateMutability": "view",
      "type": "function"
    },
    {
      "inputs": [],
      "name": "idOfOpenContests",
      "outputs": [
        {
          "internalType": "uint256",
          "name": "",
          "type": "uint256"
        }
      ],
      "stateMutability": "view",
      "type": "function"
    },
    {
      "inputs": [],
      "name": "initiateContest",
      "outputs": [
        {
          "internalType": "uint256",
          "name": "",
          "type": "uint256"
        }
      ],
      "stateMutability": "nonpayable",
      "type": "function"
    },
    {
      "inputs": [],
      "name": "name",
      "outputs": [
        {
          "internalType": "string",
          "name": "",
          "type": "string"
        }
      ],
      "stateMutability": "view",
      "type": "function"
    },
    {
      "inputs": [],
      "name": "proposalThreshold",
      "outputs": [
        {
          "internalType": "uint256",
          "name": "",
          "type": "uint256"
        }
      ],
      "stateMutability": "view",
      "type": "function"
    },
    {
      "inputs": [],
      "name": "quorumDenominator",
      "outputs": [
        {
          "internalType": "uint256",
          "name": "",
          "type": "uint256"
        }
      ],
      "stateMutability": "view",
      "type": "function"
    },
    {
      "inputs": [],
      "name": "quorumNumerator",
      "outputs": [
        {
          "internalType": "uint256",
          "name": "",
          "type": "uint256"
        }
      ],
      "stateMutability": "view",
      "type": "function"
    },
    {
      "inputs": [
        {
          "internalType": "string",
          "name": "file",
          "type": "string"
        }
      ],
      "name": "register",
      "outputs": [],
      "stateMutability": "payable",
      "type": "function"
    },
    {
      "inputs": [
        {
          "internalType": "uint256",
          "name": "contestId",
          "type": "uint256"
        }
      ],
      "name": "state",
      "outputs": [
        {
          "internalType": "enum IGovernorContest.ContestState",
          "name": "",
          "type": "uint8"
        }
      ],
      "stateMutability": "view",
      "type": "function"
    },
    {
      "inputs": [
        {
          "internalType": "bytes4",
          "name": "interfaceId",
          "type": "bytes4"
        }
      ],
      "name": "supportsInterface",
      "outputs": [
        {
          "internalType": "bool",
          "name": "",
          "type": "bool"
        }
      ],
      "stateMutability": "view",
      "type": "function"
    },
    {
      "inputs": [],
      "name": "token",
      "outputs": [
        {
          "internalType": "contract IVotes",
          "name": "",
          "type": "address"
        }
      ],
      "stateMutability": "view",
      "type": "function"
    },
    {
      "inputs": [],
      "name": "tokenToModify",
      "outputs": [
        {
          "internalType": "contract IERC721Version",
          "name": "",
          "type": "address"
        }
      ],
      "stateMutability": "view",
      "type": "function"
    },
    {
      "inputs": [],
      "name": "treasury",
      "outputs": [
        {
          "internalType": "contract SimpleTreasury",
          "name": "",
          "type": "address"
        }
      ],
      "stateMutability": "view",
      "type": "function"
    },
    {
      "inputs": [
        {
          "internalType": "uint256",
          "name": "newQuorumNumerator",
          "type": "uint256"
        }
      ],
      "name": "updateQuorumNumerator",
      "outputs": [],
      "stateMutability": "nonpayable",
      "type": "function"
    },
    {
      "inputs": [],
      "name": "version",
      "outputs": [
        {
          "internalType": "string",
          "name": "",
          "type": "string"
        }
      ],
      "stateMutability": "view",
      "type": "function"
    },
    {
      "inputs": [],
      "name": "votingDelay",
      "outputs": [
        {
          "internalType": "uint256",
          "name": "",
          "type": "uint256"
        }
      ],
      "stateMutability": "pure",
      "type": "function"
    },
    {
      "inputs": [],
      "name": "votingPeriod",
      "outputs": [
        {
          "internalType": "uint256",
          "name": "",
          "type": "uint256"
        }
      ],
      "stateMutability": "pure",
      "type": "function"
    },
    {
      "inputs": [],
      "name": "registeringDelay",
      "outputs": [
        {
          "internalType": "uint256",
          "name": "",
          "type": "uint256"
        }
      ],
      "stateMutability": "view",
      "type": "function"
    },
    {
      "inputs": [],
      "name": "registrationPeriod",
      "outputs": [
        {
          "internalType": "uint256",
          "name": "",
          "type": "uint256"
        }
      ],
      "stateMutability": "view",
      "type": "function"
    },
    {
      "inputs": [
        {
          "internalType": "uint256",
          "name": "blockNumber",
          "type": "uint256"
        }
      ],
      "name": "quorum",
      "outputs": [
        {
          "internalType": "uint256",
          "name": "",
          "type": "uint256"
        }
      ],
      "stateMutability": "view",
      "type": "function"
    }
  ],
  "bytecode": "0x6101a06040523480156200001257600080fd5b5060405162002a4438038062002a4483398101604081905262000035916200032b565b6004816040518060400160405280600c81526020016b476f7665726e6f72436f726560a01b81525083816200006f6200018f60201b60201c565b815160208084019190912082518383012060e08290526101008190524660a0818152604080517f8b73c3c69bb8fe3d512ecc4cf759cc79239f7b179b0ffacaa9a75d522b39400f81880181905281830187905260608201869052608082019490945230818401528151808203909301835260c00190528051940193909320919290916080523060c052610120525050835162000115925060009150602085019062000277565b506001600160a01b038116610160526040518190620001349062000306565b6001600160a01b039091168152602001604051809103906000f08015801562000161573d6000803e3d6000fd5b506001600160a01b039081166101405292909216610180525062000187905081620001aa565b50506200039a565b6040805180820190915260018152603160f81b602082015290565b6064811115620002325760405162461bcd60e51b815260206004820152604360248201527f476f7665726e6f72566f74657351756f72756d4672616374696f6e3a2071756f60448201527f72756d4e756d657261746f72206f7665722071756f72756d44656e6f6d696e616064820152623a37b960e91b608482015260a40160405180910390fd5b600680549082905560408051828152602081018490527f0553476bf02ef2726e8ce5ced78d63e26e602e4a2257b1f559418e24b4633997910160405180910390a15050565b82805462000285906200035d565b90600052602060002090601f016020900481019282620002a95760008555620002f4565b82601f10620002c457805160ff1916838001178555620002f4565b82800160010185558215620002f4579182015b82811115620002f4578251825591602001919060010190620002d7565b506200030292915062000314565b5090565b6105bf806200248583390190565b5b8082111562000302576000815560010162000315565b6000602082840312156200033e57600080fd5b81516001600160a01b03811681146200035657600080fd5b9392505050565b600181811c908216806200037257607f821691505b602082108114156200039457634e487b7160e01b600052602260045260246000fd5b50919050565b60805160a05160c05160e05161010051610120516101405161016051610180516120696200041c6000396000818161055f0152818161188d015261191f01526000818161046301526116710152600081816103c501528181610be6015261172c01526000505060005050600050506000505060005050600050506120696000f3fe6080604052600436106101cd5760003560e01c806361d027b3116100f7578063e2a8605f11610095578063f8ce560a11610064578063f8ce560a146104ed578063fa9dd2e91461050d578063fb3100551461052d578063fc0c546a1461054d57600080fd5b8063e2a8605f1461049a578063eb9019d4146104ba578063f0ec6f281461029e578063f2c298be146104da57600080fd5b8063a7713a70116100d1578063a7713a7014610428578063b58131b01461043d578063d782f74d14610451578063db91caa81461048557600080fd5b806361d027b3146103b357806397c3d334146103ff5780639b3662bf1461041357600080fd5b8063438596321161016f5780635612db841161013e5780635612db84146103765780635939ee04146102075780635cfee20e1461039657806361461954146103ab57600080fd5b806343859632146102df5780634c933f27146102ff57806353358fc41461032c57806354fd4d501461034c57600080fd5b806306fdde03116101ab57806306fdde0314610248578063279688401461026a5780633932abb11461029e5780633e4f49e6146102b257600080fd5b806301ffc9a7146101d257806302a251a31461020757806306f3f9e614610226575b600080fd5b3480156101de57600080fd5b506101f26101ed366004611a36565b610581565b60405190151581526020015b60405180910390f35b34801561021357600080fd5b5061b2fa5b6040519081526020016101fe565b34801561023257600080fd5b50610246610241366004611a60565b6105b8565b005b34801561025457600080fd5b5061025d610618565b6040516101fe9190611a79565b34801561027657600080fd5b506102187f22e7757911643f60fa367b0ca7e4928ef50685f307d70ab7f82139a44bd9ebbb81565b3480156102aa57600080fd5b506001610218565b3480156102be57600080fd5b506102d26102cd366004611a60565b6106aa565b6040516101fe9190611ae4565b3480156102eb57600080fd5b506101f26102fa366004611b21565b6107ba565b34801561030b57600080fd5b5061031f61031a366004611bba565b610803565b6040516101fe9190611c58565b34801561033857600080fd5b50610218610347366004611ca5565b6109ae565b34801561035857600080fd5b506040805180820190915260018152603160f81b602082015261025d565b34801561038257600080fd5b50610218610391366004611a60565b610b14565b3480156103a257600080fd5b50610218610b68565b610218610e90565b3480156103bf57600080fd5b506103e77f000000000000000000000000000000000000000000000000000000000000000081565b6040516001600160a01b0390911681526020016101fe565b34801561040b57600080fd5b506064610218565b34801561041f57600080fd5b5061031f6110db565b34801561043457600080fd5b50600654610218565b34801561044957600080fd5b506000610218565b34801561045d57600080fd5b506103e77f000000000000000000000000000000000000000000000000000000000000000081565b34801561049157600080fd5b5061021861119e565b3480156104a657600080fd5b506102186104b5366004611a60565b6111ae565b3480156104c657600080fd5b506102186104d5366004611cc2565b6111cf565b6102466104e8366004611cee565b6111f7565b3480156104f957600080fd5b50610218610508366004611a60565b6113c5565b34801561051957600080fd5b50610218610528366004611a60565b6113d0565b34801561053957600080fd5b50610218610548366004611a60565b6113e8565b34801561055957600080fd5b506103e77f000000000000000000000000000000000000000000000000000000000000000081565b60006001600160e01b03198216631cb59ed960e01b14806105b257506301ffc9a760e01b6001600160e01b03198316145b92915050565b33301461060c5760405162461bcd60e51b815260206004820152601860248201527f476f7665726e6f723a206f6e6c79476f7665726e616e6365000000000000000060448201526064015b60405180910390fd5b6106158161142d565b50565b60606000805461062790611d5f565b80601f016020809104026020016040519081016040528092919081815260200182805461065390611d5f565b80156106a05780601f10610675576101008083540402835291602001916106a0565b820191906000526020600020905b81548152906001019060200180831161068357829003601f168201915b5050505050905090565b600080600183815481106106c0576106c0611d9a565b60009182526020909120600890910201600581015490915060ff16156106e95750600592915050565b6005810154610100900460ff16156107045750600292915050565b600061070f846113d0565b90508061075e5760405162461bcd60e51b815260206004820152601d60248201527f476f7665726e6f723a20756e6b6e6f776e2070726f706f73616c2069640000006044820152606401610603565b43811061076f575060009392505050565b600061077a85610b14565b905043811061078e57506001949350505050565b6000610799866113e8565b90504381106107ae5750600395945050505050565b50600495945050505050565b6000600183815481106107cf576107cf611d9a565b600091825260208083206001600160a01b03861684526006600890930201919091019052604090205460ff16905092915050565b8051600180546060929160009161082291610508916103919190611dc6565b90506000805b8381101561089457826005600088848151811061084757610847611d9a565b60200260200101516001600160a01b03166001600160a01b03168152602001908152602001600020541115610884578161088081611ddd565b9250505b61088d81611ddd565b9050610828565b506000816001600160401b038111156108af576108af611b51565b6040519080825280602002602001820160405280156108d8578160200160208202803683370190505b509050816108e95795945050505050565b60005b848110156109a457836005600089848151811061090b5761090b611d9a565b60200260200101516001600160a01b03166001600160a01b03168152602001908152602001600020541115610994578261094481611df8565b93505086818151811061095957610959611d9a565b602002602001015182848151811061097357610973611d9a565b60200260200101906001600160a01b031690816001600160a01b0316815250505b61099d81611ddd565b90506108ec565b5095945050505050565b60018054600091339183916109c291611dc6565b90506000600182815481106109d9576109d9611d9a565b60009182526020909120600890910201905060036109f6836106aa565b6005811115610a0757610a07611ace565b14610a605760405162461bcd60e51b815260206004820152602360248201527f476f7665726e6f723a20766f7465206e6f742063757272656e746c792061637460448201526269766560e81b6064820152608401610603565b604080516020810190915260018201546001600160401b031690819052600090610a8b9085906111cf565b6001600160a01b038716600090815260056020526040812080549293508392909190610ab8908490611e0f565b9091555050604080518481526001600160a01b038881166020830152918101839052908516907f5b4be8a1f7c35d6610ffcf815901a056e72caa6d8cdd427db5cb56982d8dfd949060600160405180910390a295945050505050565b6000610b5960018381548110610b2c57610b2c611d9a565b6000918252602091829020604080519384019052600160089092020101546001600160401b031681525190565b6001600160401b031692915050565b600080610b7a336104d5600143611dc6565b1015610be25760405162461bcd60e51b815260206004820152603160248201527f476f7665726e6f723a2070726f706f73657220766f7465732062656c6f7720706044820152701c9bdc1bdcd85b081d1a1c995cda1bdb19607a1b6064820152608401610603565b60007f00000000000000000000000000000000000000000000000000000000000000006001600160a01b03166312065fe06040518163ffffffff1660e01b8152600401602060405180830381865afa158015610c42573d6000803e3d6000fd5b505050506040513d601f19601f82011682018060405250810190610c669190611e27565b6001549091506005610c7c6102cd600184611dc6565b6005811115610c8d57610c8d611ace565b1480610cb757506002610ca46102cd600184611dc6565b6005811115610cb557610cb5611ace565b145b610d035760405162461bcd60e51b815260206004820152601a60248201527f50726576696f757320636f6e74657374207374696c6c206f6e2e0000000000006044820152606401610603565b6001805460009190610d13611d9a565b60009182526020918290206040805193840190526008919091020160018101546001600160401b031691829052915015610d995760405162461bcd60e51b815260206004820152602160248201527f476f7665726e6f723a2070726f706f73616c20616c72656164792065786973746044820152607360f81b6064820152608401610603565b6000610da560016114f5565b610dae436114f5565b610db89190611e40565b90506000610dc761b2fa6114f5565b610dd19083611e40565b90506000610de061b2fa6114f5565b610dea9083611e40565b9050610df68484611561565b610e036001850183611561565b610e106002850182611561565b600380546004860155848101879055546040805187815233602082015280820192909252606082018890526001600160401b03858116608084015284811660a0840152831660c0830152517f2d70fad5356323d82a1b2dcb7638393dff7d9691977a6cbcb3faf46d194d64959181900360e00190a1509295945050505050565b600180546000918291610ea39190611dc6565b90506000610eb0826106aa565b90506004816005811115610ec657610ec6611ace565b14610f315760405162461bcd60e51b815260206004820152603560248201527f476f7665726e6f723a20546865726520617265206e6f20636f6d706c657465646044820152741031b7b73a32b9ba39903a379032bc32b1baba329760591b6064820152608401610603565b6000610f3b6110db565b90506000610f4882610803565b9050805160001415610fce576001808581548110610f6857610f68611d9a565b906000526020600020906008020160050160016101000a81548160ff0219169083151502179055507fcce8fbf2e6c9a589c54910eef6d841be296f721adbc0b43a42d07a0fd186f17184604051610fc191815260200190565b60405180910390a16110d2565b6001808581548110610fe257610fe2611d9a565b600091825260209182902060089190910201600501805460ff1916921515929092179091556040518581527f118cbce212362b04a68e2ff462e3d906f3de391938f311af5f5625e529470dc7910160405180910390a160405163b6aac1cb60e01b815273__Sorter________________________________9063b6aac1cb90611072908490600590600401611e6b565b600060405180830381865af415801561108f573d6000803e3d6000fd5b505050506040513d6000823e601f3d908101601f191682016040526110b79190810190611ebc565b5060006110c4825161157f565b90506110d08282611662565b505b50919392505050565b6001805460609173__Slicer________________________________91636a41bd8a9160039161110c908290611dc6565b8154811061111c5761111c611d9a565b9060005260206000209060080201600401546040518363ffffffff1660e01b8152600401611154929190918252602082015260400190565b600060405180830381865af4158015611171573d6000803e3d6000fd5b505050506040513d6000823e601f3d908101601f191682016040526111999190810190611ebc565b905090565b6001805460009161119991611dc6565b600281815481106111be57600080fd5b600091825260209091200154905081565b60006111f083836111eb60408051602081019091526000815290565b611864565b9392505050565b6001805460009161120791611dc6565b90504361124a6001838154811061122057611220611d9a565b6000918252602091829020604080519384019052600890910201546001600160401b031681525190565b6001600160401b031610801561127d57504361127260018381548110610b2c57610b2c611d9a565b6001600160401b0316115b6112d55760405162461bcd60e51b815260206004820152602360248201527f54686973206973206e6f742074686520726567697374726174696f6e207065726044820152621a5bd960ea1b6064820152608401610603565b600181815481106112e8576112e8611d9a565b600091825260208083203384526007600890930201919091019052604090205460ff166113955760038054600181810183556000929092527fc2575a0e9e593c00f959f8c92f12db2869c3395a3b0502d05e2516446f71f85b0180546001600160a01b03191633179055805481908390811061136657611366611d9a565b60009182526020808320338452600892909202909101600701905260409020805460ff19169115159190911790555b3360009081526004602052604090206113af9084846119a6565b5050336000908152600560205260408120555050565b60006105b282611902565b6000610b596001838154811061122057611220611d9a565b6000610b596001838154811061140057611400611d9a565b6000918252602091829020604080519384019052600260089092020101546001600160401b031681525190565b60648111156114b05760405162461bcd60e51b815260206004820152604360248201527f476f7665726e6f72566f74657351756f72756d4672616374696f6e3a2071756f60448201527f72756d4e756d657261746f72206f7665722071756f72756d44656e6f6d696e616064820152623a37b960e91b608482015260a401610603565b600680549082905560408051828152602081018490527f0553476bf02ef2726e8ce5ced78d63e26e602e4a2257b1f559418e24b4633997910160405180910390a15050565b60006001600160401b0382111561155d5760405162461bcd60e51b815260206004820152602660248201527f53616665436173743a2076616c756520646f65736e27742066697420696e203660448201526534206269747360d01b6064820152608401610603565b5090565b815467ffffffffffffffff19166001600160401b0391909116179055565b6060600061158e836001611e0f565b6001600160401b038111156115a5576115a5611b51565b6040519080825280602002602001820160405280156115ce578160200160208202803683370190505b50905060005b8381101561161e576115e68185611dc6565b6115f1906002611f4a565b82828151811061160357611603611d9a565b602090810291909101015261161781611ddd565b90506115d4565b5061162a836001611e0f565b6116349084611f4a565b61163f906004611e0f565b81848151811061165157611651611d9a565b602090810291909101015292915050565b815160005b8181101561185e577f00000000000000000000000000000000000000000000000000000000000000006001600160a01b031663f7c6aac5600460008785815181106116b4576116b4611d9a565b60200260200101516001600160a01b03166001600160a01b031681526020019081526020016000206040518263ffffffff1660e01b81526004016116f89190611f69565b600060405180830381600087803b15801561171257600080fd5b505af1158015611726573d6000803e3d6000fd5b505050507f00000000000000000000000000000000000000000000000000000000000000006001600160a01b03166364a197f385838151811061176b5761176b611d9a565b602002602001015185858151811061178557611785611d9a565b6020026020010151600180808054905061179f9190611dc6565b815481106117af576117af611d9a565b9060005260206000209060080201600301548786815181106117d3576117d3611d9a565b60200260200101516117e59190611f4a565b6117ef9190612011565b6040516001600160e01b031960e085901b1681526001600160a01b0390921660048301526024820152604401600060405180830381600087803b15801561183557600080fd5b505af1158015611849573d6000803e3d6000fd5b505050508061185790611ddd565b9050611667565b50505050565b604051630748d63560e31b81526001600160a01b038481166004830152602482018490526000917f000000000000000000000000000000000000000000000000000000000000000090911690633a46b1a890604401602060405180830381865afa1580156118d6573d6000803e3d6000fd5b505050506040513d601f19601f820116820180604052508101906118fa9190611e27565b949350505050565b60006064600654604051632394e7a360e21b8152600481018590527f00000000000000000000000000000000000000000000000000000000000000006001600160a01b031690638e539e8c90602401602060405180830381865afa15801561196e573d6000803e3d6000fd5b505050506040513d601f19601f820116820180604052508101906119929190611e27565b61199c9190611f4a565b6105b29190612011565b8280546119b290611d5f565b90600052602060002090601f0160209004810192826119d45760008555611a1a565b82601f106119ed5782800160ff19823516178555611a1a565b82800160010185558215611a1a579182015b82811115611a1a5782358255916020019190600101906119ff565b5061155d9291505b8082111561155d5760008155600101611a22565b600060208284031215611a4857600080fd5b81356001600160e01b0319811681146111f057600080fd5b600060208284031215611a7257600080fd5b5035919050565b600060208083528351808285015260005b81811015611aa657858101830151858201604001528201611a8a565b81811115611ab8576000604083870101525b50601f01601f1916929092016040019392505050565b634e487b7160e01b600052602160045260246000fd5b6020810160068310611b0657634e487b7160e01b600052602160045260246000fd5b91905290565b6001600160a01b038116811461061557600080fd5b60008060408385031215611b3457600080fd5b823591506020830135611b4681611b0c565b809150509250929050565b634e487b7160e01b600052604160045260246000fd5b604051601f8201601f191681016001600160401b0381118282101715611b8f57611b8f611b51565b604052919050565b60006001600160401b03821115611bb057611bb0611b51565b5060051b60200190565b60006020808385031215611bcd57600080fd5b82356001600160401b03811115611be357600080fd5b8301601f81018513611bf457600080fd5b8035611c07611c0282611b97565b611b67565b81815260059190911b82018301908381019087831115611c2657600080fd5b928401925b82841015611c4d578335611c3e81611b0c565b82529284019290840190611c2b565b979650505050505050565b6020808252825182820181905260009190848201906040850190845b81811015611c995783516001600160a01b031683529284019291840191600101611c74565b50909695505050505050565b600060208284031215611cb757600080fd5b81356111f081611b0c565b60008060408385031215611cd557600080fd5b8235611ce081611b0c565b946020939093013593505050565b60008060208385031215611d0157600080fd5b82356001600160401b0380821115611d1857600080fd5b818501915085601f830112611d2c57600080fd5b813581811115611d3b57600080fd5b866020828501011115611d4d57600080fd5b60209290920196919550909350505050565b600181811c90821680611d7357607f821691505b60208210811415611d9457634e487b7160e01b600052602260045260246000fd5b50919050565b634e487b7160e01b600052603260045260246000fd5b634e487b7160e01b600052601160045260246000fd5b600082821015611dd857611dd8611db0565b500390565b6000600019821415611df157611df1611db0565b5060010190565b600081611e0757611e07611db0565b506000190190565b60008219821115611e2257611e22611db0565b500190565b600060208284031215611e3957600080fd5b5051919050565b60006001600160401b03808316818516808303821115611e6257611e62611db0565b01949350505050565b604080825283519082018190526000906020906060840190828701845b82811015611ead5781516001600160a01b031684529284019290840190600101611e88565b50505092019290925292915050565b60006020808385031215611ecf57600080fd5b82516001600160401b03811115611ee557600080fd5b8301601f81018513611ef657600080fd5b8051611f04611c0282611b97565b81815260059190911b82018301908381019087831115611f2357600080fd5b928401925b82841015611c4d578351611f3b81611b0c565b82529284019290840190611f28565b6000816000190483118215151615611f6457611f64611db0565b500290565b600060208083526000845481600182811c915080831680611f8b57607f831692505b858310811415611fa957634e487b7160e01b85526022600452602485fd5b878601838152602001818015611fc65760018114611fd757612002565b60ff19861682528782019650612002565b60008b81526020902060005b86811015611ffc57815484820152908501908901611fe3565b83019750505b50949998505050505050505050565b60008261202e57634e487b7160e01b600052601260045260246000fd5b50049056fea264697066735822122006dfecfd1cfc304ca1f5aeac89755fa949903b6d95375291225e4a4b16e8c4d964736f6c634300080b003360a060405234801561001057600080fd5b506040516105bf3803806105bf83398101604081905261002f916100dc565b6100383361008c565b6001600160a01b03811660808190526040805133815230602082015280820192909252517f0371e6c1451d0a54cd2b7d5cf31ff881fd3e2437d82386d1529501336060f5f29181900360600190a15061010c565b600080546001600160a01b038381166001600160a01b0319831681178455604051919092169283917f8be0079c531659141344cd1fd0a4f28419497f9722a3daafe3b4186f6b6457e09190a35050565b6000602082840312156100ee57600080fd5b81516001600160a01b038116811461010557600080fd5b9392505050565b608051610499610126600039600060e301526104996000f3fe6080604052600436106100595760003560e01c806312065fe0146100b15780634de046d5146100d457806364a197f31461011b578063715018a61461013d5780638da5cb5b14610152578063f2fde38b1461017057600080fd5b366100ac57346001600082825461007091906103cf565b909155505060405134815233907f7633918dd12eec332d7212b2ddc5cfd92b19ba6b4bca27ecc63534c3bf137b659060200160405180910390a2005b600080fd5b3480156100bd57600080fd5b506001546040519081526020015b60405180910390f35b3480156100e057600080fd5b507f00000000000000000000000000000000000000000000000000000000000000005b6040516001600160a01b0390911681526020016100cb565b34801561012757600080fd5b5061013b6101363660046103fc565b610190565b005b34801561014957600080fd5b5061013b6101a6565b34801561015e57600080fd5b506000546001600160a01b0316610103565b34801561017c57600080fd5b5061013b61018b366004610428565b6101ba565b610198610238565b6101a28282610292565b5050565b6101ae610238565b6101b86000610369565b565b6101c2610238565b6001600160a01b03811661022c5760405162461bcd60e51b815260206004820152602660248201527f4f776e61626c653a206e6577206f776e657220697320746865207a65726f206160448201526564647265737360d01b60648201526084015b60405180910390fd5b61023581610369565b50565b6000546001600160a01b031633146101b85760405162461bcd60e51b815260206004820181905260248201527f4f776e61626c653a2063616c6c6572206973206e6f7420746865206f776e65726044820152606401610223565b6001548111156102d95760405162461bcd60e51b8152602060048201526012602482015271496e73756666696369656e742066756e647360701b6044820152606401610223565b6040516001600160a01b0383169082156108fc029083906000818181858888f1935050505015801561030f573d6000803e3d6000fd5b508060016000828254610322919061044c565b90915550506040518181526001600160a01b038316907fc70a094cb0b20f152b6d171a215827df475885ee85e81c9626d07200d7ddea429060200160405180910390a25050565b600080546001600160a01b038381166001600160a01b0319831681178455604051919092169283917f8be0079c531659141344cd1fd0a4f28419497f9722a3daafe3b4186f6b6457e09190a35050565b634e487b7160e01b600052601160045260246000fd5b600082198211156103e2576103e26103b9565b500190565b6001600160a01b038116811461023557600080fd5b6000806040838503121561040f57600080fd5b823561041a816103e7565b946020939093013593505050565b60006020828403121561043a57600080fd5b8135610445816103e7565b9392505050565b60008282101561045e5761045e6103b9565b50039056fea264697066735822122040ccbc6b429c57334221bb5413659af583b271e2e60cbb12ff4e0d68006a75f364736f6c634300080b0033",
  "immutableReferences": {
    "9192": [
      {
        "length": 32,
        "start": 965
      },
      {
        "length": 32,
        "start": 3046
      },
      {
        "length": 32,
        "start": 5932
      }
    ],
    "9195": [
      {
        "length": 32,
        "start": 1123
      },
      {
        "length": 32,
        "start": 5745
      }
    ],
    "10172": [
      {
        "length": 32,
        "start": 1375
      },
      {
        "length": 32,
        "start": 6285
      },
      {
        "length": 32,
        "start": 6431
      }
    ]
  },
  "source": "// SPDX-License-Identifier: MIT\npragma solidity >=0.4.22 <0.9.0;\n\nimport \"./GovernanceExtensions/GovernorContest.sol\";\nimport \"./GovernanceExtensions/GovernorVotes.sol\";\nimport \"./GovernanceExtensions/GovernorVotesQuorumFraction.sol\";\nimport \"./ERC721Version.sol\";\n\ncontract ContestGovernor is GovernorContest, GovernorVotes, GovernorVotesQuorumFraction{\n    constructor(ERC721Version _token)\n        GovernorContest(\"GovernorCore\", _token)\n        GovernorVotes(_token)\n        GovernorVotesQuorumFraction(4)\n    {}\n\n    function votingDelay() public pure returns (uint256) {\n        return 1; // 1 block\n    }\n\n    function votingPeriod() public pure override returns (uint256) {\n        return 45818; // 1 week\n    }\n\n    /**\n     @dev Time, in number of blocks, before launch of registration period.\n     */\n\n\n    function registeringDelay() public view virtual override returns (uint256){\n        return 1;\n    }\n\n    /**\n     @dev Time, in number of blocks, for the participants to register with their desired file.\n     */\n\n    function registrationPeriod() public view virtual override returns (uint256){\n        return 45818;\n    }\n\n\n    // The following functions are overrides required by Solidity.\n\n    function quorum(uint256 blockNumber)\n        public\n        view\n        override(IGovernorContest, GovernorVotesQuorumFraction)\n        returns (uint256)\n    {\n        return super.quorum(blockNumber);\n    } \n}\n",
  "sourcePath": "/Users/admin/Desktop/GeneralCoding/TokenSmith/contracts/ContestGovernor.sol",
  "compiler": {
    "name": "solc",
    "version": "0.8.11+commit.d7f03943.Emscripten.clang"
  },
  "schemaVersion": "3.4.5",
  "updatedAt": "2022-08-15T10:35:57.390Z",
  "devdoc": {
    "kind": "dev",
    "methods": {
      "castVote(address)": {
        "details": "See {IGovernor-castVote}."
      },
      "contestDeadline(uint256)": {
        "details": "See {IGovernor-proposalDeadline}."
      },
      "contestRegistration(uint256)": {
        "details": "See {IGovernorContest-contestRegistration}."
      },
      "contestVoting(uint256)": {
        "details": "See {IGovernor-proposalSnapshot}."
      },
      "execute()": {
        "details": "See {IGovernor-execute}."
      },
      "getVotes(address,uint256)": {
        "details": "See {IGovernor-getVotes}."
      },
      "hasVoted(uint256,address)": {
        "details": "See {IGovernor-hasVoted}."
      },
      "idOfOpenContests()": {
        "details": "Id of the open contest "
      },
      "initiateContest()": {
        "details": "See {IGovernor-propose}."
      },
      "name()": {
        "details": "See {IGovernor-name}."
      },
      "proposalThreshold()": {
        "details": "Part of the Governor Bravo's interface: _\"The number of votes required in order for a voter to become a proposer\"_."
      },
      "quorumDenominator()": {
        "details": "Returns the quorum denominator. Defaults to 100, but may be overridden."
      },
      "quorumNumerator()": {
        "details": "Returns the current quorum numerator. See {quorumDenominator}."
      },
      "register(string)": {
        "details": "Allows participants to register to the contest.  Note : Maybe add an event?"
      },
      "registeringDelay()": {
        "details": "Time, in number of blocks, before launch of registration period."
      },
      "registrationPeriod()": {
        "details": "Time, in number of blocks, for the participants to register with their desired file."
      },
      "state(uint256)": {
        "details": "See {IGovernorContest-state}."
      },
      "supportsInterface(bytes4)": {
        "details": "See {IERC165-supportsInterface}."
      },
      "updateQuorumNumerator(uint256)": {
        "details": "Changes the quorum numerator. Emits a {QuorumNumeratorUpdated} event. Requirements: - Must be called through a governance proposal. - New numerator must be smaller or equal to the denominator."
      },
      "version()": {
        "details": "See {IGovernor-version}."
      },
      "votingPeriod()": {
        "details": "Delay, in number of blocks, between the vote start and vote ends. NOTE: The {registeringDelay and registeringPeriod} can delay the start of the vote. This must be considered when setting the voting duration compared to the voting delay."
      }
    },
    "version": 1
  },
  "userdoc": {
    "kind": "user",
    "methods": {
      "currentParticipants()": {
        "notice": "see library documentation - {ArraySlicer} "
      },
      "idOfOpenContests()": {
        "notice": "module:contestCore-LorenzSchmidlin"
      },
      "register(string)": {
        "notice": "module:contestCore-LorenzSchmidlin"
      },
      "votingPeriod()": {
        "notice": "module:user-config"
      }
    },
    "version": 1
  }
}