{
  "contractName": "ERC721Version",
  "abi": [
    {
      "inputs": [
        {
          "internalType": "string",
          "name": "name",
          "type": "string"
        },
        {
          "internalType": "string",
          "name": "symbol",
          "type": "string"
        }
      ],
      "stateMutability": "nonpayable",
      "type": "constructor"
    },
    {
      "anonymous": false,
      "inputs": [
        {
          "indexed": true,
          "internalType": "address",
          "name": "owner",
          "type": "address"
        },
        {
          "indexed": true,
          "internalType": "address",
          "name": "approved",
          "type": "address"
        },
        {
          "indexed": true,
          "internalType": "uint256",
          "name": "tokenId",
          "type": "uint256"
        }
      ],
      "name": "Approval",
      "type": "event"
    },
    {
      "anonymous": false,
      "inputs": [
        {
          "indexed": true,
          "internalType": "address",
          "name": "owner",
          "type": "address"
        },
        {
          "indexed": true,
          "internalType": "address",
          "name": "operator",
          "type": "address"
        },
        {
          "indexed": false,
          "internalType": "bool",
          "name": "approved",
          "type": "bool"
        }
      ],
      "name": "ApprovalForAll",
      "type": "event"
    },
    {
      "anonymous": false,
      "inputs": [
        {
          "indexed": true,
          "internalType": "address",
          "name": "delegator",
          "type": "address"
        },
        {
          "indexed": true,
          "internalType": "address",
          "name": "fromDelegate",
          "type": "address"
        },
        {
          "indexed": true,
          "internalType": "address",
          "name": "toDelegate",
          "type": "address"
        }
      ],
      "name": "DelegateChanged",
      "type": "event"
    },
    {
      "anonymous": false,
      "inputs": [
        {
          "indexed": true,
          "internalType": "address",
          "name": "delegate",
          "type": "address"
        },
        {
          "indexed": false,
          "internalType": "uint256",
          "name": "previousBalance",
          "type": "uint256"
        },
        {
          "indexed": false,
          "internalType": "uint256",
          "name": "newBalance",
          "type": "uint256"
        }
      ],
      "name": "DelegateVotesChanged",
      "type": "event"
    },
    {
      "anonymous": false,
      "inputs": [
        {
          "indexed": false,
          "internalType": "address",
          "name": "deliveryAddress",
          "type": "address"
        },
        {
          "indexed": false,
          "internalType": "string",
          "name": "newFile",
          "type": "string"
        },
        {
          "indexed": false,
          "internalType": "uint256",
          "name": "fileID",
          "type": "uint256"
        }
      ],
      "name": "NewFile",
      "type": "event"
    },
    {
      "anonymous": false,
      "inputs": [
        {
          "indexed": true,
          "internalType": "address",
          "name": "previousOwner",
          "type": "address"
        },
        {
          "indexed": true,
          "internalType": "address",
          "name": "newOwner",
          "type": "address"
        }
      ],
      "name": "OwnershipTransferred",
      "type": "event"
    },
    {
      "anonymous": false,
      "inputs": [
        {
          "indexed": true,
          "internalType": "address",
          "name": "from",
          "type": "address"
        },
        {
          "indexed": true,
          "internalType": "address",
          "name": "to",
          "type": "address"
        },
        {
          "indexed": true,
          "internalType": "uint256",
          "name": "tokenId",
          "type": "uint256"
        }
      ],
      "name": "Transfer",
      "type": "event"
    },
    {
      "inputs": [],
      "name": "DOMAIN_SEPARATOR",
      "outputs": [
        {
          "internalType": "bytes32",
          "name": "",
          "type": "bytes32"
        }
      ],
      "stateMutability": "view",
      "type": "function"
    },
    {
      "inputs": [
        {
          "internalType": "address",
          "name": "to",
          "type": "address"
        },
        {
          "internalType": "uint256",
          "name": "tokenId",
          "type": "uint256"
        }
      ],
      "name": "approve",
      "outputs": [],
      "stateMutability": "nonpayable",
      "type": "function"
    },
    {
      "inputs": [
        {
          "internalType": "address",
          "name": "owner",
          "type": "address"
        }
      ],
      "name": "balanceOf",
      "outputs": [
        {
          "internalType": "uint256",
          "name": "",
          "type": "uint256"
        }
      ],
      "stateMutability": "view",
      "type": "function"
    },
    {
      "inputs": [
        {
          "internalType": "uint256",
          "name": "",
          "type": "uint256"
        }
      ],
      "name": "coreFiles",
      "outputs": [
        {
          "internalType": "string",
          "name": "",
          "type": "string"
        }
      ],
      "stateMutability": "view",
      "type": "function"
    },
    {
      "inputs": [],
      "name": "creatorAddress",
      "outputs": [
        {
          "internalType": "address",
          "name": "",
          "type": "address"
        }
      ],
      "stateMutability": "view",
      "type": "function"
    },
    {
      "inputs": [
        {
          "internalType": "address",
          "name": "delegatee",
          "type": "address"
        }
      ],
      "name": "delegate",
      "outputs": [],
      "stateMutability": "nonpayable",
      "type": "function"
    },
    {
      "inputs": [
        {
          "internalType": "address",
          "name": "delegatee",
          "type": "address"
        },
        {
          "internalType": "uint256",
          "name": "nonce",
          "type": "uint256"
        },
        {
          "internalType": "uint256",
          "name": "expiry",
          "type": "uint256"
        },
        {
          "internalType": "uint8",
          "name": "v",
          "type": "uint8"
        },
        {
          "internalType": "bytes32",
          "name": "r",
          "type": "bytes32"
        },
        {
          "internalType": "bytes32",
          "name": "s",
          "type": "bytes32"
        }
      ],
      "name": "delegateBySig",
      "outputs": [],
      "stateMutability": "nonpayable",
      "type": "function"
    },
    {
      "inputs": [
        {
          "internalType": "address",
          "name": "account",
          "type": "address"
        }
      ],
      "name": "delegates",
      "outputs": [
        {
          "internalType": "address",
          "name": "",
          "type": "address"
        }
      ],
      "stateMutability": "view",
      "type": "function"
    },
    {
      "inputs": [
        {
          "internalType": "uint256",
          "name": "tokenId",
          "type": "uint256"
        }
      ],
      "name": "getApproved",
      "outputs": [
        {
          "internalType": "address",
          "name": "",
          "type": "address"
        }
      ],
      "stateMutability": "view",
      "type": "function"
    },
    {
      "inputs": [
        {
          "internalType": "uint256",
          "name": "blockNumber",
          "type": "uint256"
        }
      ],
      "name": "getPastTotalSupply",
      "outputs": [
        {
          "internalType": "uint256",
          "name": "",
          "type": "uint256"
        }
      ],
      "stateMutability": "view",
      "type": "function"
    },
    {
      "inputs": [
        {
          "internalType": "address",
          "name": "account",
          "type": "address"
        },
        {
          "internalType": "uint256",
          "name": "blockNumber",
          "type": "uint256"
        }
      ],
      "name": "getPastVotes",
      "outputs": [
        {
          "internalType": "uint256",
          "name": "",
          "type": "uint256"
        }
      ],
      "stateMutability": "view",
      "type": "function"
    },
    {
      "inputs": [
        {
          "internalType": "address",
          "name": "account",
          "type": "address"
        }
      ],
      "name": "getVotes",
      "outputs": [
        {
          "internalType": "uint256",
          "name": "",
          "type": "uint256"
        }
      ],
      "stateMutability": "view",
      "type": "function"
    },
    {
      "inputs": [
        {
          "internalType": "address",
          "name": "owner",
          "type": "address"
        },
        {
          "internalType": "address",
          "name": "operator",
          "type": "address"
        }
      ],
      "name": "isApprovedForAll",
      "outputs": [
        {
          "internalType": "bool",
          "name": "",
          "type": "bool"
        }
      ],
      "stateMutability": "view",
      "type": "function"
    },
    {
      "inputs": [],
      "name": "maxSupply",
      "outputs": [
        {
          "internalType": "uint128",
          "name": "",
          "type": "uint128"
        }
      ],
      "stateMutability": "view",
      "type": "function"
    },
    {
      "inputs": [],
      "name": "mintingPrice",
      "outputs": [
        {
          "internalType": "uint128",
          "name": "",
          "type": "uint128"
        }
      ],
      "stateMutability": "view",
      "type": "function"
    },
    {
      "inputs": [],
      "name": "name",
      "outputs": [
        {
          "internalType": "string",
          "name": "",
          "type": "string"
        }
      ],
      "stateMutability": "view",
      "type": "function"
    },
    {
      "inputs": [
        {
          "internalType": "address",
          "name": "owner",
          "type": "address"
        }
      ],
      "name": "nonces",
      "outputs": [
        {
          "internalType": "uint256",
          "name": "",
          "type": "uint256"
        }
      ],
      "stateMutability": "view",
      "type": "function"
    },
    {
      "inputs": [],
      "name": "owner",
      "outputs": [
        {
          "internalType": "address",
          "name": "",
          "type": "address"
        }
      ],
      "stateMutability": "view",
      "type": "function"
    },
    {
      "inputs": [
        {
          "internalType": "uint256",
          "name": "tokenId",
          "type": "uint256"
        }
      ],
      "name": "ownerOf",
      "outputs": [
        {
          "internalType": "address",
          "name": "",
          "type": "address"
        }
      ],
      "stateMutability": "view",
      "type": "function"
    },
    {
      "inputs": [],
      "name": "renounceOwnership",
      "outputs": [],
      "stateMutability": "nonpayable",
      "type": "function"
    },
    {
      "inputs": [
        {
          "internalType": "uint256",
          "name": "_tokenId",
          "type": "uint256"
        },
        {
          "internalType": "uint256",
          "name": "_salePrice",
          "type": "uint256"
        }
      ],
      "name": "royaltyInfo",
      "outputs": [
        {
          "internalType": "address",
          "name": "",
          "type": "address"
        },
        {
          "internalType": "uint256",
          "name": "",
          "type": "uint256"
        }
      ],
      "stateMutability": "view",
      "type": "function"
    },
    {
      "inputs": [
        {
          "internalType": "address",
          "name": "from",
          "type": "address"
        },
        {
          "internalType": "address",
          "name": "to",
          "type": "address"
        },
        {
          "internalType": "uint256",
          "name": "tokenId",
          "type": "uint256"
        }
      ],
      "name": "safeTransferFrom",
      "outputs": [],
      "stateMutability": "nonpayable",
      "type": "function"
    },
    {
      "inputs": [
        {
          "internalType": "address",
          "name": "from",
          "type": "address"
        },
        {
          "internalType": "address",
          "name": "to",
          "type": "address"
        },
        {
          "internalType": "uint256",
          "name": "tokenId",
          "type": "uint256"
        },
        {
          "internalType": "bytes",
          "name": "data",
          "type": "bytes"
        }
      ],
      "name": "safeTransferFrom",
      "outputs": [],
      "stateMutability": "nonpayable",
      "type": "function"
    },
    {
      "inputs": [
        {
          "internalType": "address",
          "name": "operator",
          "type": "address"
        },
        {
          "internalType": "bool",
          "name": "approved",
          "type": "bool"
        }
      ],
      "name": "setApprovalForAll",
      "outputs": [],
      "stateMutability": "nonpayable",
      "type": "function"
    },
    {
      "inputs": [],
      "name": "symbol",
      "outputs": [
        {
          "internalType": "string",
          "name": "",
          "type": "string"
        }
      ],
      "stateMutability": "view",
      "type": "function"
    },
    {
      "inputs": [
        {
          "internalType": "uint256",
          "name": "index",
          "type": "uint256"
        }
      ],
      "name": "tokenByIndex",
      "outputs": [
        {
          "internalType": "uint256",
          "name": "",
          "type": "uint256"
        }
      ],
      "stateMutability": "view",
      "type": "function"
    },
    {
      "inputs": [
        {
          "internalType": "address",
          "name": "owner",
          "type": "address"
        },
        {
          "internalType": "uint256",
          "name": "index",
          "type": "uint256"
        }
      ],
      "name": "tokenOfOwnerByIndex",
      "outputs": [
        {
          "internalType": "uint256",
          "name": "",
          "type": "uint256"
        }
      ],
      "stateMutability": "view",
      "type": "function"
    },
    {
      "inputs": [
        {
          "internalType": "uint256",
          "name": "tokenId",
          "type": "uint256"
        }
      ],
      "name": "tokenURI",
      "outputs": [
        {
          "internalType": "string",
          "name": "",
          "type": "string"
        }
      ],
      "stateMutability": "view",
      "type": "function"
    },
    {
      "inputs": [],
      "name": "totalSupply",
      "outputs": [
        {
          "internalType": "uint256",
          "name": "",
          "type": "uint256"
        }
      ],
      "stateMutability": "view",
      "type": "function"
    },
    {
      "inputs": [
        {
          "internalType": "address",
          "name": "from",
          "type": "address"
        },
        {
          "internalType": "address",
          "name": "to",
          "type": "address"
        },
        {
          "internalType": "uint256",
          "name": "tokenId",
          "type": "uint256"
        }
      ],
      "name": "transferFrom",
      "outputs": [],
      "stateMutability": "nonpayable",
      "type": "function"
    },
    {
      "inputs": [
        {
          "internalType": "address",
          "name": "newOwner",
          "type": "address"
        }
      ],
      "name": "transferOwnership",
      "outputs": [],
      "stateMutability": "nonpayable",
      "type": "function"
    },
    {
      "inputs": [],
      "name": "treasuryAddress",
      "outputs": [
        {
          "internalType": "address",
          "name": "",
          "type": "address"
        }
      ],
      "stateMutability": "view",
      "type": "function"
    },
    {
      "inputs": [
        {
          "internalType": "address",
          "name": "_address",
          "type": "address"
        },
        {
          "internalType": "uint256",
          "name": "tokenId",
          "type": "uint256"
        }
      ],
      "name": "mint",
      "outputs": [],
      "stateMutability": "payable",
      "type": "function"
    },
    {
      "inputs": [
        {
          "internalType": "address",
          "name": "_addressTreasury",
          "type": "address"
        }
      ],
      "name": "setTreasuryAddress",
      "outputs": [],
      "stateMutability": "nonpayable",
      "type": "function"
    },
    {
      "inputs": [
        {
          "internalType": "bytes4",
          "name": "interfaceId",
          "type": "bytes4"
        }
      ],
      "name": "supportsInterface",
      "outputs": [
        {
          "internalType": "bool",
          "name": "",
          "type": "bool"
        }
      ],
      "stateMutability": "view",
      "type": "function"
    },
    {
      "inputs": [
        {
          "internalType": "uint256",
          "name": "fileId",
          "type": "uint256"
        }
      ],
      "name": "fileURI",
      "outputs": [
        {
          "internalType": "string",
          "name": "",
          "type": "string"
        }
      ],
      "stateMutability": "view",
      "type": "function"
    },
    {
      "inputs": [
        {
          "internalType": "string",
          "name": "_fileURI",
          "type": "string"
        }
      ],
      "name": "addNewFile",
      "outputs": [],
      "stateMutability": "nonpayable",
      "type": "function"
    },
    {
      "inputs": [
        {
          "internalType": "address",
          "name": "receiver",
          "type": "address"
        },
        {
          "internalType": "uint96",
          "name": "feeNumerator",
          "type": "uint96"
        }
      ],
      "name": "setDefaultRoyalty",
      "outputs": [],
      "stateMutability": "nonpayable",
      "type": "function"
    }
  ],
  "bytecode": "0x612710601155610180604052600061016090815261014090815262000029906012906001620001ae565b503480156200003757600080fd5b5060405162003596380380620035968339810160408190526200005a91620003e4565b81604051806040016040528060018152602001603160f81b815250838381600290805190602001906200008f92919062000212565b508051620000a590600390602084019062000212565b5050825160209384012082519284019290922060e08390526101008190524660a0818152604080517f8b73c3c69bb8fe3d512ecc4cf759cc79239f7b179b0ffacaa9a75d522b39400f818901819052818301979097526060810194909452608080850193909352308483018190528151808603909301835260c094850190915281519190960120905292909252610120525062000142336200015c565b5050601380546001600160a01b031916331790556200048b565b601080546001600160a01b038381166001600160a01b0319831681179093556040519116919082907f8be0079c531659141344cd1fd0a4f28419497f9722a3daafe3b4186f6b6457e090600090a35050565b82805482825590600052602060002090810192821562000200579160200282015b82811115620002005782518051620001ef91849160209091019062000212565b5091602001919060010190620001cf565b506200020e9291506200029d565b5090565b82805462000220906200044e565b90600052602060002090601f0160209004810192826200024457600085556200028f565b82601f106200025f57805160ff19168380011785556200028f565b828001600101855582156200028f579182015b828111156200028f57825182559160200191906001019062000272565b506200020e929150620002be565b808211156200020e576000620002b48282620002d5565b506001016200029d565b5b808211156200020e5760008155600101620002bf565b508054620002e3906200044e565b6000825580601f10620002f4575050565b601f016020900490600052602060002090810190620003149190620002be565b50565b634e487b7160e01b600052604160045260246000fd5b600082601f8301126200033f57600080fd5b81516001600160401b03808211156200035c576200035c62000317565b604051601f8301601f19908116603f0116810190828211818310171562000387576200038762000317565b81604052838152602092508683858801011115620003a457600080fd5b600091505b83821015620003c85785820183015181830184015290820190620003a9565b83821115620003da5760008385830101525b9695505050505050565b60008060408385031215620003f857600080fd5b82516001600160401b03808211156200041057600080fd5b6200041e868387016200032d565b935060208501519150808211156200043557600080fd5b5062000444858286016200032d565b9150509250929050565b600181811c908216806200046357607f821691505b602082108114156200048557634e487b7160e01b600052602260045260246000fd5b50919050565b60805160a05160c05160e05161010051610120516130bb620004db6000396000611793015260006117e2015260006117bd01526000611716015260006117400152600061176a01526130bb6000f3fe6080604052600436106102255760003560e01c80636605bfda11610123578063b5651b5a116100ab578063d5abeb011161006f578063d5abeb01146106a1578063e927fc5c146106c1578063e985e9c5146106e1578063f2fde38b1461072a578063f7c6aac51461074a57600080fd5b8063b5651b5a14610601578063b88d4fde14610621578063c3cda52014610641578063c5f956af14610661578063c87b56dd1461068157600080fd5b80638da5cb5b116100f25780638da5cb5b1461056e5780638e539e8c1461058c57806395d89b41146105ac5780639ab24eb0146105c1578063a22cb465146105e157600080fd5b80636605bfda146104f957806370a0823114610519578063715018a6146105395780637ecebe001461054e57600080fd5b80632f745c59116101b157806342842e0e1161017557806342842e0e146104405780634f6ccce714610460578063587cde1e146104805780635c19a95c146104b95780636352211e146104d957600080fd5b80632f745c591461039957806335db70b5146103b95780633644e515146103f85780633a46b1a81461040d57806340c10f191461042d57600080fd5b8063081812fc116101f8578063081812fc146102c3578063095ea7b3146102fb57806318160ddd1461031b57806323b872dd1461033a5780632a55205a1461035a57600080fd5b806301ffc9a71461022a578063020befcd1461025f57806304634d8d1461028c57806306fdde03146102ae575b600080fd5b34801561023657600080fd5b5061024a610245366004612a13565b61076a565b60405190151581526020015b60405180910390f35b34801561026b57600080fd5b5061027f61027a366004612a30565b610795565b6040516102569190612aa1565b34801561029857600080fd5b506102ac6102a7366004612ad0565b610841565b005b3480156102ba57600080fd5b5061027f610857565b3480156102cf57600080fd5b506102e36102de366004612a30565b6108e9565b6040516001600160a01b039091168152602001610256565b34801561030757600080fd5b506102ac610316366004612b13565b610910565b34801561032757600080fd5b50600a545b604051908152602001610256565b34801561034657600080fd5b506102ac610355366004612b3d565b610a2b565b34801561036657600080fd5b5061037a610375366004612b79565b610a5c565b604080516001600160a01b039093168352602083019190915201610256565b3480156103a557600080fd5b5061032c6103b4366004612b13565b610b08565b3480156103c557600080fd5b506011546103e090600160801b90046001600160801b031681565b6040516001600160801b039091168152602001610256565b34801561040457600080fd5b5061032c610b9e565b34801561041957600080fd5b5061032c610428366004612b13565b610bad565b6102ac61043b366004612b13565b610bd6565b34801561044c57600080fd5b506102ac61045b366004612b3d565b610c9f565b34801561046c57600080fd5b5061032c61047b366004612a30565b610cba565b34801561048c57600080fd5b506102e361049b366004612b9b565b6001600160a01b039081166000908152600c60205260409020541690565b3480156104c557600080fd5b506102ac6104d4366004612b9b565b610d4d565b3480156104e557600080fd5b506102e36104f4366004612a30565b610d58565b34801561050557600080fd5b506102ac610514366004612b9b565b610db8565b34801561052557600080fd5b5061032c610534366004612b9b565b610de2565b34801561054557600080fd5b506102ac610e68565b34801561055a57600080fd5b5061032c610569366004612b9b565b610e7c565b34801561057a57600080fd5b506010546001600160a01b03166102e3565b34801561059857600080fd5b5061032c6105a7366004612a30565b610e9a565b3480156105b857600080fd5b5061027f610ef6565b3480156105cd57600080fd5b5061032c6105dc366004612b9b565b610f05565b3480156105ed57600080fd5b506102ac6105fc366004612bb6565b610f26565b34801561060d57600080fd5b5061027f61061c366004612a30565b610f31565b34801561062d57600080fd5b506102ac61063c366004612bfd565b610fe0565b34801561064d57600080fd5b506102ac61065c366004612cd9565b611018565b34801561066d57600080fd5b506014546102e3906001600160a01b031681565b34801561068d57600080fd5b5061027f61069c366004612a30565b611145565b3480156106ad57600080fd5b506011546103e0906001600160801b031681565b3480156106cd57600080fd5b506013546102e3906001600160a01b031681565b3480156106ed57600080fd5b5061024a6106fc366004612d39565b6001600160a01b03918216600090815260076020908152604080832093909416825291909152205460ff1690565b34801561073657600080fd5b506102ac610745366004612b9b565b6111ab565b34801561075657600080fd5b506102ac610765366004612d6c565b611224565b60006001600160e01b031982166342a3b19f60e01b148061078f575061078f826112b4565b92915050565b601281815481106107a557600080fd5b9060005260206000200160009150905080546107c090612dde565b80601f01602080910402602001604051908101604052809291908181526020018280546107ec90612dde565b80156108395780601f1061080e57610100808354040283529160200191610839565b820191906000526020600020905b81548152906001019060200180831161081c57829003601f168201915b505050505081565b6108496112bf565b6108538282611319565b5050565b60606002805461086690612dde565b80601f016020809104026020016040519081016040528092919081815260200182805461089290612dde565b80156108df5780601f106108b4576101008083540402835291602001916108df565b820191906000526020600020905b8154815290600101906020018083116108c257829003601f168201915b5050505050905090565b60006108f482611416565b506000908152600660205260409020546001600160a01b031690565b600061091b82610d58565b9050806001600160a01b0316836001600160a01b0316141561098e5760405162461bcd60e51b815260206004820152602160248201527f4552433732313a20617070726f76616c20746f2063757272656e74206f776e656044820152603960f91b60648201526084015b60405180910390fd5b336001600160a01b03821614806109aa57506109aa81336106fc565b610a1c5760405162461bcd60e51b815260206004820152603e60248201527f4552433732313a20617070726f76652063616c6c6572206973206e6f7420746f60448201527f6b656e206f776e6572206e6f7220617070726f76656420666f7220616c6c00006064820152608401610985565b610a268383611475565b505050565b610a3533826114e3565b610a515760405162461bcd60e51b815260040161098590612e13565b610a26838383611562565b60008281526001602090815260408083208151808301909252546001600160a01b038116808352600160a01b9091046001600160601b0316928201929092528291610ad15750604080518082019091526000546001600160a01b0381168252600160a01b90046001600160601b031660208201525b602081015160009061271090610af0906001600160601b031687612e77565b610afa9190612eac565b915196919550909350505050565b6000610b1383610de2565b8210610b755760405162461bcd60e51b815260206004820152602b60248201527f455243373231456e756d657261626c653a206f776e657220696e646578206f7560448201526a74206f6620626f756e647360a81b6064820152608401610985565b506001600160a01b03919091166000908152600860209081526040808320938352929052205490565b6000610ba8611709565b905090565b6001600160a01b0382166000908152600d60205260408120610bcf9083611830565b9392505050565b601154600160801b90046001600160801b03163414610bf457600080fd5b610bfe828261193f565b6013546001600160a01b03166108fc6064610c1a346050612e77565b610c249190612eac565b6040518115909202916000818181858888f19350505050158015610c4c573d6000803e3d6000fd5b50601480546001600160a01b0316906108fc90606490610c6d903490612e77565b610c779190612eac565b6040518115909202916000818181858888f19350505050158015610a26573d6000803e3d6000fd5b610a2683838360405180602001604052806000815250610fe0565b6000610cc5600a5490565b8210610d285760405162461bcd60e51b815260206004820152602c60248201527f455243373231456e756d657261626c653a20676c6f62616c20696e646578206f60448201526b7574206f6620626f756e647360a01b6064820152608401610985565b600a8281548110610d3b57610d3b612ec0565b90600052602060002001549050919050565b336108538183611a05565b6000818152600460205260408120546001600160a01b03168061078f5760405162461bcd60e51b8152602060048201526018602482015277115490cdcc8c4e881a5b9d985b1a59081d1bdad95b88125160421b6044820152606401610985565b610dc06112bf565b601480546001600160a01b0319166001600160a01b0392909216919091179055565b60006001600160a01b038216610e4c5760405162461bcd60e51b815260206004820152602960248201527f4552433732313a2061646472657373207a65726f206973206e6f7420612076616044820152683634b21037bbb732b960b91b6064820152608401610985565b506001600160a01b031660009081526005602052604090205490565b610e706112bf565b610e7a6000611a77565b565b6001600160a01b0381166000908152600f602052604081205461078f565b6000438210610eeb5760405162461bcd60e51b815260206004820152601a60248201527f566f7465733a20626c6f636b206e6f7420796574206d696e65640000000000006044820152606401610985565b61078f600e83611830565b60606003805461086690612dde565b6001600160a01b0381166000908152600d6020526040812061078f90611ac9565b610853338383611b25565b606060128281548110610f4657610f46612ec0565b906000526020600020018054610f5b90612dde565b80601f0160208091040260200160405190810160405280929190818152602001828054610f8790612dde565b8015610fd45780601f10610fa957610100808354040283529160200191610fd4565b820191906000526020600020905b815481529060010190602001808311610fb757829003601f168201915b50505050509050919050565b610fea33836114e3565b6110065760405162461bcd60e51b815260040161098590612e13565b61101284848484611bf4565b50505050565b834211156110685760405162461bcd60e51b815260206004820152601860248201527f566f7465733a207369676e6174757265206578706972656400000000000000006044820152606401610985565b604080517fe48329057bfd03d55e49b547132e39cffd9c1820ad7b9d4c5307691425d15adf60208201526001600160a01b0388169181019190915260608101869052608081018590526000906110e2906110da9060a00160405160208183030381529060405280519060200120611c27565b858585611c75565b90506110ed81611c9d565b86146111325760405162461bcd60e51b8152602060048201526014602482015273566f7465733a20696e76616c6964206e6f6e636560601b6044820152606401610985565b61113c8188611a05565b50505050505050565b606061115082611416565b600061115a611cc5565b9050600081511161117a5760405180602001604052806000815250610bcf565b8061118484611cf0565b604051602001611195929190612ed6565b6040516020818303038152906040529392505050565b6111b36112bf565b6001600160a01b0381166112185760405162461bcd60e51b815260206004820152602660248201527f4f776e61626c653a206e6577206f776e657220697320746865207a65726f206160448201526564647265737360d01b6064820152608401610985565b61122181611a77565b50565b60128054600181018255600091909152611261907fbb8a6a4669ba250d26cd7a459eca9d215f8307e33aebe50379bc5a3617ec344401838361296d565b507f94c4cb73b68c53604ffce725087511ecf550e2e1a4f83b18baa2fd5ba2fde27f33838360016012805490506112989190612f05565b6040516112a89493929190612f1c565b60405180910390a15050565b600061078f82611dee565b6010546001600160a01b03163314610e7a5760405162461bcd60e51b815260206004820181905260248201527f4f776e61626c653a2063616c6c6572206973206e6f7420746865206f776e65726044820152606401610985565b6127106001600160601b03821611156113875760405162461bcd60e51b815260206004820152602a60248201527f455243323938313a20726f79616c7479206665652077696c6c206578636565646044820152692073616c65507269636560b01b6064820152608401610985565b6001600160a01b0382166113dd5760405162461bcd60e51b815260206004820152601960248201527f455243323938313a20696e76616c6964207265636569766572000000000000006044820152606401610985565b604080518082019091526001600160a01b039092168083526001600160601b039091166020909201829052600160a01b90910217600055565b6000818152600460205260409020546001600160a01b03166112215760405162461bcd60e51b8152602060048201526018602482015277115490cdcc8c4e881a5b9d985b1a59081d1bdad95b88125160421b6044820152606401610985565b600081815260066020526040902080546001600160a01b0319166001600160a01b03841690811790915581906114aa82610d58565b6001600160a01b03167f8c5be1e5ebec7d5bd14f71427d1e84f3dd0314c0f7b2291e5b200ac8c7c3b92560405160405180910390a45050565b6000806114ef83610d58565b9050806001600160a01b0316846001600160a01b0316148061153657506001600160a01b0380821660009081526007602090815260408083209388168352929052205460ff165b8061155a5750836001600160a01b031661154f846108e9565b6001600160a01b0316145b949350505050565b826001600160a01b031661157582610d58565b6001600160a01b0316146115d95760405162461bcd60e51b815260206004820152602560248201527f4552433732313a207472616e736665722066726f6d20696e636f72726563742060448201526437bbb732b960d91b6064820152608401610985565b6001600160a01b03821661163b5760405162461bcd60e51b8152602060048201526024808201527f4552433732313a207472616e7366657220746f20746865207a65726f206164646044820152637265737360e01b6064820152608401610985565b611646838383611e13565b611651600082611475565b6001600160a01b038316600090815260056020526040812080546001929061167a908490612f05565b90915550506001600160a01b03821660009081526005602052604081208054600192906116a8908490612f66565b909155505060008181526004602052604080822080546001600160a01b0319166001600160a01b0386811691821790925591518493918716917fddf252ad1be2c89b69c2b068fc378daa952ba7f163c4a11628f55a4df523b3ef91a4505050565b6000306001600160a01b037f00000000000000000000000000000000000000000000000000000000000000001614801561176257507f000000000000000000000000000000000000000000000000000000000000000046145b1561178c57507f000000000000000000000000000000000000000000000000000000000000000090565b50604080517f00000000000000000000000000000000000000000000000000000000000000006020808301919091527f0000000000000000000000000000000000000000000000000000000000000000828401527f000000000000000000000000000000000000000000000000000000000000000060608301524660808301523060a0808401919091528351808403909101815260c0909201909252805191012090565b60004382106118815760405162461bcd60e51b815260206004820181905260248201527f436865636b706f696e74733a20626c6f636b206e6f7420796574206d696e65646044820152606401610985565b825460005b818110156118e657600061189a8284611e1e565b9050848660000182815481106118b2576118b2612ec0565b60009182526020909120015463ffffffff1611156118d2578092506118e0565b6118dd816001612f66565b91505b50611886565b811561192a57846118f8600184612f05565b8154811061190857611908612ec0565b60009182526020909120015464010000000090046001600160e01b031661192d565b60005b6001600160e01b031695945050505050565b6001600160a01b0382166119955760405162461bcd60e51b815260206004820181905260248201527f4552433732313a206d696e7420746f20746865207a65726f20616464726573736044820152606401610985565b6011546001600160801b031681106119fb5760405162461bcd60e51b8152602060048201526024808201527f4d617820737570706c792068617320616c7265616479206265656e2061636869604482015263195d995960e21b6064820152608401610985565b6108538282611e39565b6001600160a01b038281166000818152600c602052604080822080548686166001600160a01b0319821681179092559151919094169392849290917f3134e8a2e6d97e929a7e54011ea5485d7d196dd5f0ba4d4ef95803e8e3fc257f9190a4610a268183611a7286611f87565b611f92565b601080546001600160a01b038381166001600160a01b0319831681179093556040519116919082907f8be0079c531659141344cd1fd0a4f28419497f9722a3daafe3b4186f6b6457e090600090a35050565b80546000908015611b125782611ae0600183612f05565b81548110611af057611af0612ec0565b60009182526020909120015464010000000090046001600160e01b0316611b15565b60005b6001600160e01b03169392505050565b816001600160a01b0316836001600160a01b03161415611b875760405162461bcd60e51b815260206004820152601960248201527f4552433732313a20617070726f766520746f2063616c6c6572000000000000006044820152606401610985565b6001600160a01b03838116600081815260076020908152604080832094871680845294825291829020805460ff191686151590811790915591519182527f17307eab39ab6107e8899845ad3d59bd9653f200f220920489ca2b5937696c31910160405180910390a3505050565b611bff848484611562565b611c0b848484846120cf565b6110125760405162461bcd60e51b815260040161098590612f7e565b600061078f611c34611709565b8360405161190160f01b6020820152602281018390526042810182905260009060620160405160208183030381529060405280519060200120905092915050565b6000806000611c86878787876121ca565b91509150611c93816122b7565b5095945050505050565b6001600160a01b0381166000908152600f602052604090208054600181018255905b50919050565b60606012600081548110611cdb57611cdb612ec0565b90600052602060002001805461086690612dde565b606081611d145750506040805180820190915260018152600360fc1b602082015290565b8160005b8115611d3e5780611d2881612fd0565b9150611d379050600a83612eac565b9150611d18565b60008167ffffffffffffffff811115611d5957611d59612be7565b6040519080825280601f01601f191660200182016040528015611d83576020820181803683370190505b5090505b841561155a57611d98600183612f05565b9150611da5600a86612feb565b611db0906030612f66565b60f81b818381518110611dc557611dc5612ec0565b60200101906001600160f81b031916908160001a905350611de7600a86612eac565b9450611d87565b60006001600160e01b0319821663780e9d6360e01b148061078f575061078f82612472565b610a268383836124b2565b6000611e2d6002848418612eac565b610bcf90848416612f66565b6001600160a01b038216611e8f5760405162461bcd60e51b815260206004820181905260248201527f4552433732313a206d696e7420746f20746865207a65726f20616464726573736044820152606401610985565b6000818152600460205260409020546001600160a01b031615611ef45760405162461bcd60e51b815260206004820152601c60248201527f4552433732313a20746f6b656e20616c7265616479206d696e746564000000006044820152606401610985565b611f0060008383611e13565b6001600160a01b0382166000908152600560205260408120805460019290611f29908490612f66565b909155505060008181526004602052604080822080546001600160a01b0319166001600160a01b03861690811790915590518392907fddf252ad1be2c89b69c2b068fc378daa952ba7f163c4a11628f55a4df523b3ef908290a45050565b600061078f82610de2565b816001600160a01b0316836001600160a01b031614158015611fb45750600081115b15610a26576001600160a01b03831615612042576001600160a01b0383166000908152600d602052604081208190611fef9061256a85612576565b91509150846001600160a01b03167fdec2bacdd2f05b59de34da9b523dff8be42e5e38e818c82fdb0bae774387a7248383604051612037929190918252602082015260400190565b60405180910390a250505b6001600160a01b03821615610a26576001600160a01b0382166000908152600d602052604081208190612078906125a485612576565b91509150836001600160a01b03167fdec2bacdd2f05b59de34da9b523dff8be42e5e38e818c82fdb0bae774387a72483836040516120c0929190918252602082015260400190565b60405180910390a25050505050565b60006001600160a01b0384163b156121c257604051630a85bd0160e11b81526001600160a01b0385169063150b7a0290612113903390899088908890600401612fff565b6020604051808303816000875af192505050801561214e575060408051601f3d908101601f1916820190925261214b9181019061303c565b60015b6121a8573d80801561217c576040519150601f19603f3d011682016040523d82523d6000602084013e612181565b606091505b5080516121a05760405162461bcd60e51b815260040161098590612f7e565b805181602001fd5b6001600160e01b031916630a85bd0160e11b14905061155a565b50600161155a565b6000807f7fffffffffffffffffffffffffffffff5d576e7357a4501ddfe92f46681b20a083111561220157506000905060036122ae565b8460ff16601b1415801561221957508460ff16601c14155b1561222a57506000905060046122ae565b6040805160008082526020820180845289905260ff881692820192909252606081018690526080810185905260019060a0016020604051602081039080840390855afa15801561227e573d6000803e3d6000fd5b5050604051601f1901519150506001600160a01b0381166122a7576000600192509250506122ae565b9150600090505b94509492505050565b60008160048111156122cb576122cb613059565b14156122d45750565b60018160048111156122e8576122e8613059565b14156123365760405162461bcd60e51b815260206004820152601860248201527f45434453413a20696e76616c6964207369676e617475726500000000000000006044820152606401610985565b600281600481111561234a5761234a613059565b14156123985760405162461bcd60e51b815260206004820152601f60248201527f45434453413a20696e76616c6964207369676e6174757265206c656e677468006044820152606401610985565b60038160048111156123ac576123ac613059565b14156124055760405162461bcd60e51b815260206004820152602260248201527f45434453413a20696e76616c6964207369676e6174757265202773272076616c604482015261756560f01b6064820152608401610985565b600481600481111561241957612419613059565b14156112215760405162461bcd60e51b815260206004820152602260248201527f45434453413a20696e76616c6964207369676e6174757265202776272076616c604482015261756560f01b6064820152608401610985565b60006001600160e01b031982166380ac58cd60e01b14806124a357506001600160e01b03198216635b5e139f60e01b145b8061078f575061078f826125b0565b6001600160a01b03831661250d5761250881600a80546000838152600b60205260408120829055600182018355919091527fc65a7bb8d6351c1cf70c95a316cc6a92839c986682d98bc35f958f4883f9d2a80155565b612530565b816001600160a01b0316836001600160a01b0316146125305761253083826125e5565b6001600160a01b03821661254757610a2681612682565b826001600160a01b0316826001600160a01b031614610a2657610a268282612731565b6000610bcf8284612f05565b6000806125988561259361258988611ac9565b868863ffffffff16565b612775565b91509150935093915050565b6000610bcf8284612f66565b60006001600160e01b0319821663152a902d60e11b148061078f57506301ffc9a760e01b6001600160e01b031983161461078f565b600060016125f284610de2565b6125fc9190612f05565b60008381526009602052604090205490915080821461264f576001600160a01b03841660009081526008602090815260408083208584528252808320548484528184208190558352600990915290208190555b5060009182526009602090815260408084208490556001600160a01b039094168352600881528383209183525290812055565b600a5460009061269490600190612f05565b6000838152600b6020526040812054600a80549394509092849081106126bc576126bc612ec0565b9060005260206000200154905080600a83815481106126dd576126dd612ec0565b6000918252602080832090910192909255828152600b9091526040808220849055858252812055600a8054806127155761271561306f565b6001900381819060005260206000200160009055905550505050565b600061273c83610de2565b6001600160a01b039093166000908152600860209081526040808320868452825280832085905593825260099052919091209190915550565b815460009081908161278686611ac9565b90506000821180156127c4575043866127a0600185612f05565b815481106127b0576127b0612ec0565b60009182526020909120015463ffffffff16145b15612824576127d28561289b565b866127de600185612f05565b815481106127ee576127ee612ec0565b9060005260206000200160000160046101000a8154816001600160e01b0302191690836001600160e01b03160217905550612892565b85600001604051806040016040528061283c43612908565b63ffffffff1681526020016128508861289b565b6001600160e01b0390811690915282546001810184556000938452602093849020835194909301519091166401000000000263ffffffff909316929092179101555b95939450505050565b60006001600160e01b038211156129045760405162461bcd60e51b815260206004820152602760248201527f53616665436173743a2076616c756520646f65736e27742066697420696e20326044820152663234206269747360c81b6064820152608401610985565b5090565b600063ffffffff8211156129045760405162461bcd60e51b815260206004820152602660248201527f53616665436173743a2076616c756520646f65736e27742066697420696e203360448201526532206269747360d01b6064820152608401610985565b82805461297990612dde565b90600052602060002090601f01602090048101928261299b57600085556129e1565b82601f106129b45782800160ff198235161785556129e1565b828001600101855582156129e1579182015b828111156129e15782358255916020019190600101906129c6565b506129049291505b8082111561290457600081556001016129e9565b6001600160e01b03198116811461122157600080fd5b600060208284031215612a2557600080fd5b8135610bcf816129fd565b600060208284031215612a4257600080fd5b5035919050565b60005b83811015612a64578181015183820152602001612a4c565b838111156110125750506000910152565b60008151808452612a8d816020860160208601612a49565b601f01601f19169290920160200192915050565b602081526000610bcf6020830184612a75565b80356001600160a01b0381168114612acb57600080fd5b919050565b60008060408385031215612ae357600080fd5b612aec83612ab4565b915060208301356001600160601b0381168114612b0857600080fd5b809150509250929050565b60008060408385031215612b2657600080fd5b612b2f83612ab4565b946020939093013593505050565b600080600060608486031215612b5257600080fd5b612b5b84612ab4565b9250612b6960208501612ab4565b9150604084013590509250925092565b60008060408385031215612b8c57600080fd5b50508035926020909101359150565b600060208284031215612bad57600080fd5b610bcf82612ab4565b60008060408385031215612bc957600080fd5b612bd283612ab4565b915060208301358015158114612b0857600080fd5b634e487b7160e01b600052604160045260246000fd5b60008060008060808587031215612c1357600080fd5b612c1c85612ab4565b9350612c2a60208601612ab4565b925060408501359150606085013567ffffffffffffffff80821115612c4e57600080fd5b818701915087601f830112612c6257600080fd5b813581811115612c7457612c74612be7565b604051601f8201601f19908116603f01168101908382118183101715612c9c57612c9c612be7565b816040528281528a6020848701011115612cb557600080fd5b82602086016020830137600060208483010152809550505050505092959194509250565b60008060008060008060c08789031215612cf257600080fd5b612cfb87612ab4565b95506020870135945060408701359350606087013560ff81168114612d1f57600080fd5b9598949750929560808101359460a0909101359350915050565b60008060408385031215612d4c57600080fd5b612d5583612ab4565b9150612d6360208401612ab4565b90509250929050565b60008060208385031215612d7f57600080fd5b823567ffffffffffffffff80821115612d9757600080fd5b818501915085601f830112612dab57600080fd5b813581811115612dba57600080fd5b866020828501011115612dcc57600080fd5b60209290920196919550909350505050565b600181811c90821680612df257607f821691505b60208210811415611cbf57634e487b7160e01b600052602260045260246000fd5b6020808252602e908201527f4552433732313a2063616c6c6572206973206e6f7420746f6b656e206f776e6560408201526d1c881b9bdc88185c1c1c9bdd995960921b606082015260800190565b634e487b7160e01b600052601160045260246000fd5b6000816000190483118215151615612e9157612e91612e61565b500290565b634e487b7160e01b600052601260045260246000fd5b600082612ebb57612ebb612e96565b500490565b634e487b7160e01b600052603260045260246000fd5b60008351612ee8818460208801612a49565b835190830190612efc818360208801612a49565b01949350505050565b600082821015612f1757612f17612e61565b500390565b6001600160a01b038516815260606020820181905281018390528284608083013760006080848301015260006080601f19601f860116830101905082604083015295945050505050565b60008219821115612f7957612f79612e61565b500190565b60208082526032908201527f4552433732313a207472616e7366657220746f206e6f6e20455243373231526560408201527131b2b4bb32b91034b6b83632b6b2b73a32b960711b606082015260800190565b6000600019821415612fe457612fe4612e61565b5060010190565b600082612ffa57612ffa612e96565b500690565b6001600160a01b038581168252841660208201526040810183905260806060820181905260009061303290830184612a75565b9695505050505050565b60006020828403121561304e57600080fd5b8151610bcf816129fd565b634e487b7160e01b600052602160045260246000fd5b634e487b7160e01b600052603160045260246000fdfea264697066735822122016608f1f5ba0f9144038a19867484dc52e2263d2f00dcdd4e2540b5b8106f5c264736f6c634300080b0033",
  "immutableReferences": {
    "5495": [
      {
        "length": 32,
        "start": 5994
      }
    ],
    "5497": [
      {
        "length": 32,
        "start": 5952
      }
    ],
    "5499": [
      {
        "length": 32,
        "start": 5910
      }
    ],
    "5501": [
      {
        "length": 32,
        "start": 6077
      }
    ],
    "5503": [
      {
        "length": 32,
        "start": 6114
      }
    ],
    "5505": [
      {
        "length": 32,
        "start": 6035
      }
    ]
  },
  "source": "// SPDX-License-Identifier: MIT\n// An add-on to NFTs to make them able to grow in Metadata over time.\n\npragma solidity ^0.8.0;\n\nimport \"@openzeppelin/contracts/token/ERC721/extensions/ERC721Enumerable.sol\";\nimport \"@openzeppelin/contracts/token/ERC721/extensions/ERC721Royalty.sol\";\nimport \"@openzeppelin/contracts/governance/utils/Votes.sol\";\nimport \"@openzeppelin/contracts/governance/Governor.sol\";\nimport \"@openzeppelin/contracts/token/ERC20/IERC20.sol\";\nimport \"@openzeppelin/contracts/access/Ownable.sol\";\nimport \"./interfaces/IERC721Version.sol\";\n\n\n/**\n@dev This is the core NFT. It is designed to be a self-upgrading NFT.\nERC721Version adds versioning to the Metadata.\nThe uri metadata can now point to different files added over time.\nThe limitations for adding new files should be derived in the inheriting contract\nERC721Enumerable is used to organize voting system\n\n */\n\ncontract ERC721Version is ERC721Enumerable, ERC721Royalty, Votes, Ownable, IERC721Version {\n\n    using Strings for uint256;\n\n    uint128 public  maxSupply = 10000;\n    uint128 public  mintingPrice = 0;\n    string[] public coreFiles = [\"\"];\n    address public creatorAddress;\n    address public treasuryAddress;\n    \n\n    constructor(string memory name, string memory symbol)ERC721(name,symbol) EIP712(name, \"1\" ){\n\n    creatorAddress = msg.sender;\n\n\n\n    }\n\n    function mint(address _address, uint256 tokenId) external payable {\n        require(msg.value == mintingPrice);\n        _mint(_address, tokenId);\n        payable(creatorAddress).transfer(msg.value*80/100);\n        payable(treasuryAddress).transfer(msg.value*20/100);\n\n    }\n\n    function setTreasuryAddress(address _addressTreasury) public onlyOwner {\n        treasuryAddress = _addressTreasury;\n    }\n\n\n    // Declares all previous interface, if a new one is created it should be added here\n    function supportsInterface(bytes4 interfaceId) public view virtual override(ERC721Enumerable, ERC721Royalty) returns (bool) {\n        return interfaceId == type(IERC721Version).interfaceId || \n        super.supportsInterface(interfaceId);\n    }\n\n    function fileURI(uint256 fileId) public view returns (string memory) {\n        return coreFiles[fileId];\n    }\n\n    function _baseURI() internal view virtual override(ERC721) returns (string memory) {\n        return coreFiles[0];\n    }\n\n    function addNewFile(string calldata _fileURI) public virtual{\n\n        coreFiles.push(_fileURI);\n        emit NewFile(msg.sender, _fileURI, coreFiles.length-1);\n    }\n\n\n    // Selects the _beforeTokenTransfer function from Enumerable extension\n    function _beforeTokenTransfer(\n            address from,\n            address to,\n            uint256 tokenId\n        ) internal virtual override (ERC721,ERC721Enumerable) {\n        super._beforeTokenTransfer(from,to,tokenId);\n    }\n\n\n    // Selects the _burn function from Royalty and URIStorage extension, super.burn (ERC721) is called twice though..\n    // Super.burn risks only invoking one of the inherited functions.\n    // Super.burn(tokenId) should be sufficient alone due to the recursive calls within Royalty and URIStorage \n    // To check in test file.\n    function _burn(uint256 tokenId) internal virtual override (ERC721,ERC721Royalty) {\n        super._burn(tokenId);\n    }\n\n    function _mint(address to, uint256 tokenId) internal virtual override {\n        require(to != address(0), \"ERC721: mint to the zero address\");\n        require(tokenId < maxSupply, \"Max supply has already been achieved\");\n        super._mint(to, tokenId);\n    }\n\n  \n\n    function setDefaultRoyalty(address receiver, uint96 feeNumerator) public onlyOwner {\n        _setDefaultRoyalty(receiver, feeNumerator);\n    }\n\n    function _getVotingUnits(address account) internal view virtual override returns (uint256) {\n        return balanceOf(account);\n    }\n\n }",
  "sourcePath": "/Users/admin/Desktop/GeneralCoding/TokenSmith/contracts/ERC721Version.sol",
  "compiler": {
    "name": "solc",
    "version": "0.8.11+commit.d7f03943.Emscripten.clang"
  },
  "schemaVersion": "3.4.5",
  "updatedAt": "2022-08-15T10:35:57.405Z",
  "devdoc": {
    "details": "This is the core NFT. It is designed to be a self-upgrading NFT. ERC721Version adds versioning to the Metadata. The uri metadata can now point to different files added over time. The limitations for adding new files should be derived in the inheriting contract ERC721Enumerable is used to organize voting system",
    "kind": "dev",
    "methods": {
      "DOMAIN_SEPARATOR()": {
        "details": "Returns the contract's {EIP712} domain separator."
      },
      "approve(address,uint256)": {
        "details": "See {IERC721-approve}."
      },
      "balanceOf(address)": {
        "details": "See {IERC721-balanceOf}."
      },
      "delegate(address)": {
        "details": "Delegates votes from the sender to `delegatee`."
      },
      "delegateBySig(address,uint256,uint256,uint8,bytes32,bytes32)": {
        "details": "Delegates votes from signer to `delegatee`."
      },
      "delegates(address)": {
        "details": "Returns the delegate that `account` has chosen."
      },
      "getApproved(uint256)": {
        "details": "See {IERC721-getApproved}."
      },
      "getPastTotalSupply(uint256)": {
        "details": "Returns the total supply of votes available at the end of a past block (`blockNumber`). NOTE: This value is the sum of all available votes, which is not necessarily the sum of all delegated votes. Votes that have not been delegated are still part of total supply, even though they would not participate in a vote. Requirements: - `blockNumber` must have been already mined"
      },
      "getPastVotes(address,uint256)": {
        "details": "Returns the amount of votes that `account` had at the end of a past block (`blockNumber`). Requirements: - `blockNumber` must have been already mined"
      },
      "getVotes(address)": {
        "details": "Returns the current amount of votes that `account` has."
      },
      "isApprovedForAll(address,address)": {
        "details": "See {IERC721-isApprovedForAll}."
      },
      "name()": {
        "details": "See {IERC721Metadata-name}."
      },
      "nonces(address)": {
        "details": "Returns an address nonce."
      },
      "owner()": {
        "details": "Returns the address of the current owner."
      },
      "ownerOf(uint256)": {
        "details": "See {IERC721-ownerOf}."
      },
      "renounceOwnership()": {
        "details": "Leaves the contract without owner. It will not be possible to call `onlyOwner` functions anymore. Can only be called by the current owner. NOTE: Renouncing ownership will leave the contract without an owner, thereby removing any functionality that is only available to the owner."
      },
      "royaltyInfo(uint256,uint256)": {
        "details": "Returns how much royalty is owed and to whom, based on a sale price that may be denominated in any unit of exchange. The royalty amount is denominated and should be paid in that same unit of exchange."
      },
      "safeTransferFrom(address,address,uint256)": {
        "details": "See {IERC721-safeTransferFrom}."
      },
      "safeTransferFrom(address,address,uint256,bytes)": {
        "details": "See {IERC721-safeTransferFrom}."
      },
      "setApprovalForAll(address,bool)": {
        "details": "See {IERC721-setApprovalForAll}."
      },
      "symbol()": {
        "details": "See {IERC721Metadata-symbol}."
      },
      "tokenByIndex(uint256)": {
        "details": "See {IERC721Enumerable-tokenByIndex}."
      },
      "tokenOfOwnerByIndex(address,uint256)": {
        "details": "See {IERC721Enumerable-tokenOfOwnerByIndex}."
      },
      "tokenURI(uint256)": {
        "details": "See {IERC721Metadata-tokenURI}."
      },
      "totalSupply()": {
        "details": "See {IERC721Enumerable-totalSupply}."
      },
      "transferFrom(address,address,uint256)": {
        "details": "See {IERC721-transferFrom}."
      },
      "transferOwnership(address)": {
        "details": "Transfers ownership of the contract to a new account (`newOwner`). Can only be called by the current owner."
      }
    },
    "version": 1
  },
  "userdoc": {
    "kind": "user",
    "methods": {},
    "version": 1
  }
}