{
  "contractName": "ERC721Version",
  "abi": [
    {
      "inputs": [
        {
          "internalType": "string",
          "name": "name",
          "type": "string"
        },
        {
          "internalType": "string",
          "name": "symbol",
          "type": "string"
        },
        {
          "internalType": "address",
          "name": "_creatorAddress",
          "type": "address"
        },
        {
          "internalType": "uint256",
          "name": "_maxSupply",
          "type": "uint256"
        },
        {
          "internalType": "uint256",
          "name": "_mintingPrice",
          "type": "uint256"
        },
        {
          "internalType": "string",
          "name": "_baseURI",
          "type": "string"
        }
      ],
      "stateMutability": "nonpayable",
      "type": "constructor"
    },
    {
      "anonymous": false,
      "inputs": [
        {
          "indexed": true,
          "internalType": "address",
          "name": "owner",
          "type": "address"
        },
        {
          "indexed": true,
          "internalType": "address",
          "name": "approved",
          "type": "address"
        },
        {
          "indexed": true,
          "internalType": "uint256",
          "name": "tokenId",
          "type": "uint256"
        }
      ],
      "name": "Approval",
      "type": "event"
    },
    {
      "anonymous": false,
      "inputs": [
        {
          "indexed": true,
          "internalType": "address",
          "name": "owner",
          "type": "address"
        },
        {
          "indexed": true,
          "internalType": "address",
          "name": "operator",
          "type": "address"
        },
        {
          "indexed": false,
          "internalType": "bool",
          "name": "approved",
          "type": "bool"
        }
      ],
      "name": "ApprovalForAll",
      "type": "event"
    },
    {
      "anonymous": false,
      "inputs": [
        {
          "indexed": true,
          "internalType": "address",
          "name": "delegator",
          "type": "address"
        },
        {
          "indexed": true,
          "internalType": "address",
          "name": "fromDelegate",
          "type": "address"
        },
        {
          "indexed": true,
          "internalType": "address",
          "name": "toDelegate",
          "type": "address"
        }
      ],
      "name": "DelegateChanged",
      "type": "event"
    },
    {
      "anonymous": false,
      "inputs": [
        {
          "indexed": true,
          "internalType": "address",
          "name": "delegate",
          "type": "address"
        },
        {
          "indexed": false,
          "internalType": "uint256",
          "name": "previousBalance",
          "type": "uint256"
        },
        {
          "indexed": false,
          "internalType": "uint256",
          "name": "newBalance",
          "type": "uint256"
        }
      ],
      "name": "DelegateVotesChanged",
      "type": "event"
    },
    {
      "anonymous": false,
      "inputs": [
        {
          "indexed": false,
          "internalType": "address",
          "name": "deliveryAddress",
          "type": "address"
        },
        {
          "indexed": false,
          "internalType": "string",
          "name": "newFile",
          "type": "string"
        },
        {
          "indexed": false,
          "internalType": "uint256",
          "name": "fileID",
          "type": "uint256"
        }
      ],
      "name": "NewFile",
      "type": "event"
    },
    {
      "anonymous": false,
      "inputs": [
        {
          "indexed": false,
          "internalType": "address",
          "name": "deliveryAddress",
          "type": "address"
        },
        {
          "indexed": false,
          "internalType": "string",
          "name": "newVersion",
          "type": "string"
        },
        {
          "indexed": false,
          "internalType": "uint256",
          "name": "versionID",
          "type": "uint256"
        }
      ],
      "name": "NewVersion",
      "type": "event"
    },
    {
      "anonymous": false,
      "inputs": [
        {
          "indexed": true,
          "internalType": "address",
          "name": "previousOwner",
          "type": "address"
        },
        {
          "indexed": true,
          "internalType": "address",
          "name": "newOwner",
          "type": "address"
        }
      ],
      "name": "OwnershipTransferred",
      "type": "event"
    },
    {
      "anonymous": false,
      "inputs": [
        {
          "indexed": true,
          "internalType": "address",
          "name": "from",
          "type": "address"
        },
        {
          "indexed": true,
          "internalType": "address",
          "name": "to",
          "type": "address"
        },
        {
          "indexed": true,
          "internalType": "uint256",
          "name": "tokenId",
          "type": "uint256"
        }
      ],
      "name": "Transfer",
      "type": "event"
    },
    {
      "inputs": [],
      "name": "DOMAIN_SEPARATOR",
      "outputs": [
        {
          "internalType": "bytes32",
          "name": "",
          "type": "bytes32"
        }
      ],
      "stateMutability": "view",
      "type": "function"
    },
    {
      "inputs": [
        {
          "internalType": "address",
          "name": "to",
          "type": "address"
        },
        {
          "internalType": "uint256",
          "name": "tokenId",
          "type": "uint256"
        }
      ],
      "name": "approve",
      "outputs": [],
      "stateMutability": "nonpayable",
      "type": "function"
    },
    {
      "inputs": [
        {
          "internalType": "address",
          "name": "owner",
          "type": "address"
        }
      ],
      "name": "balanceOf",
      "outputs": [
        {
          "internalType": "uint256",
          "name": "",
          "type": "uint256"
        }
      ],
      "stateMutability": "view",
      "type": "function"
    },
    {
      "inputs": [
        {
          "internalType": "address",
          "name": "delegatee",
          "type": "address"
        }
      ],
      "name": "delegate",
      "outputs": [],
      "stateMutability": "nonpayable",
      "type": "function"
    },
    {
      "inputs": [
        {
          "internalType": "address",
          "name": "delegatee",
          "type": "address"
        },
        {
          "internalType": "uint256",
          "name": "nonce",
          "type": "uint256"
        },
        {
          "internalType": "uint256",
          "name": "expiry",
          "type": "uint256"
        },
        {
          "internalType": "uint8",
          "name": "v",
          "type": "uint8"
        },
        {
          "internalType": "bytes32",
          "name": "r",
          "type": "bytes32"
        },
        {
          "internalType": "bytes32",
          "name": "s",
          "type": "bytes32"
        }
      ],
      "name": "delegateBySig",
      "outputs": [],
      "stateMutability": "nonpayable",
      "type": "function"
    },
    {
      "inputs": [
        {
          "internalType": "address",
          "name": "account",
          "type": "address"
        }
      ],
      "name": "delegates",
      "outputs": [
        {
          "internalType": "address",
          "name": "",
          "type": "address"
        }
      ],
      "stateMutability": "view",
      "type": "function"
    },
    {
      "inputs": [
        {
          "internalType": "uint256",
          "name": "tokenId",
          "type": "uint256"
        }
      ],
      "name": "getApproved",
      "outputs": [
        {
          "internalType": "address",
          "name": "",
          "type": "address"
        }
      ],
      "stateMutability": "view",
      "type": "function"
    },
    {
      "inputs": [
        {
          "internalType": "uint256",
          "name": "blockNumber",
          "type": "uint256"
        }
      ],
      "name": "getPastTotalSupply",
      "outputs": [
        {
          "internalType": "uint256",
          "name": "",
          "type": "uint256"
        }
      ],
      "stateMutability": "view",
      "type": "function"
    },
    {
      "inputs": [
        {
          "internalType": "address",
          "name": "account",
          "type": "address"
        },
        {
          "internalType": "uint256",
          "name": "blockNumber",
          "type": "uint256"
        }
      ],
      "name": "getPastVotes",
      "outputs": [
        {
          "internalType": "uint256",
          "name": "",
          "type": "uint256"
        }
      ],
      "stateMutability": "view",
      "type": "function"
    },
    {
      "inputs": [
        {
          "internalType": "address",
          "name": "account",
          "type": "address"
        }
      ],
      "name": "getVotes",
      "outputs": [
        {
          "internalType": "uint256",
          "name": "",
          "type": "uint256"
        }
      ],
      "stateMutability": "view",
      "type": "function"
    },
    {
      "inputs": [
        {
          "internalType": "address",
          "name": "owner",
          "type": "address"
        },
        {
          "internalType": "address",
          "name": "operator",
          "type": "address"
        }
      ],
      "name": "isApprovedForAll",
      "outputs": [
        {
          "internalType": "bool",
          "name": "",
          "type": "bool"
        }
      ],
      "stateMutability": "view",
      "type": "function"
    },
    {
      "inputs": [],
      "name": "maxSupply",
      "outputs": [
        {
          "internalType": "uint256",
          "name": "",
          "type": "uint256"
        }
      ],
      "stateMutability": "view",
      "type": "function"
    },
    {
      "inputs": [],
      "name": "mintingPrice",
      "outputs": [
        {
          "internalType": "uint256",
          "name": "",
          "type": "uint256"
        }
      ],
      "stateMutability": "view",
      "type": "function"
    },
    {
      "inputs": [],
      "name": "name",
      "outputs": [
        {
          "internalType": "string",
          "name": "",
          "type": "string"
        }
      ],
      "stateMutability": "view",
      "type": "function"
    },
    {
      "inputs": [
        {
          "internalType": "address",
          "name": "owner",
          "type": "address"
        }
      ],
      "name": "nonces",
      "outputs": [
        {
          "internalType": "uint256",
          "name": "",
          "type": "uint256"
        }
      ],
      "stateMutability": "view",
      "type": "function"
    },
    {
      "inputs": [],
      "name": "owner",
      "outputs": [
        {
          "internalType": "address",
          "name": "",
          "type": "address"
        }
      ],
      "stateMutability": "view",
      "type": "function"
    },
    {
      "inputs": [
        {
          "internalType": "uint256",
          "name": "tokenId",
          "type": "uint256"
        }
      ],
      "name": "ownerOf",
      "outputs": [
        {
          "internalType": "address",
          "name": "",
          "type": "address"
        }
      ],
      "stateMutability": "view",
      "type": "function"
    },
    {
      "inputs": [
        {
          "internalType": "uint256",
          "name": "",
          "type": "uint256"
        }
      ],
      "name": "preferredVersionForOwner",
      "outputs": [
        {
          "internalType": "uint256",
          "name": "",
          "type": "uint256"
        }
      ],
      "stateMutability": "view",
      "type": "function"
    },
    {
      "inputs": [],
      "name": "renounceOwnership",
      "outputs": [],
      "stateMutability": "nonpayable",
      "type": "function"
    },
    {
      "inputs": [
        {
          "internalType": "uint256",
          "name": "_tokenId",
          "type": "uint256"
        },
        {
          "internalType": "uint256",
          "name": "_salePrice",
          "type": "uint256"
        }
      ],
      "name": "royaltyInfo",
      "outputs": [
        {
          "internalType": "address",
          "name": "",
          "type": "address"
        },
        {
          "internalType": "uint256",
          "name": "",
          "type": "uint256"
        }
      ],
      "stateMutability": "view",
      "type": "function"
    },
    {
      "inputs": [
        {
          "internalType": "address",
          "name": "from",
          "type": "address"
        },
        {
          "internalType": "address",
          "name": "to",
          "type": "address"
        },
        {
          "internalType": "uint256",
          "name": "tokenId",
          "type": "uint256"
        }
      ],
      "name": "safeTransferFrom",
      "outputs": [],
      "stateMutability": "nonpayable",
      "type": "function"
    },
    {
      "inputs": [
        {
          "internalType": "address",
          "name": "from",
          "type": "address"
        },
        {
          "internalType": "address",
          "name": "to",
          "type": "address"
        },
        {
          "internalType": "uint256",
          "name": "tokenId",
          "type": "uint256"
        },
        {
          "internalType": "bytes",
          "name": "data",
          "type": "bytes"
        }
      ],
      "name": "safeTransferFrom",
      "outputs": [],
      "stateMutability": "nonpayable",
      "type": "function"
    },
    {
      "inputs": [
        {
          "internalType": "address",
          "name": "operator",
          "type": "address"
        },
        {
          "internalType": "bool",
          "name": "approved",
          "type": "bool"
        }
      ],
      "name": "setApprovalForAll",
      "outputs": [],
      "stateMutability": "nonpayable",
      "type": "function"
    },
    {
      "inputs": [],
      "name": "symbol",
      "outputs": [
        {
          "internalType": "string",
          "name": "",
          "type": "string"
        }
      ],
      "stateMutability": "view",
      "type": "function"
    },
    {
      "inputs": [
        {
          "internalType": "uint256",
          "name": "index",
          "type": "uint256"
        }
      ],
      "name": "tokenByIndex",
      "outputs": [
        {
          "internalType": "uint256",
          "name": "",
          "type": "uint256"
        }
      ],
      "stateMutability": "view",
      "type": "function"
    },
    {
      "inputs": [
        {
          "internalType": "address",
          "name": "owner",
          "type": "address"
        },
        {
          "internalType": "uint256",
          "name": "index",
          "type": "uint256"
        }
      ],
      "name": "tokenOfOwnerByIndex",
      "outputs": [
        {
          "internalType": "uint256",
          "name": "",
          "type": "uint256"
        }
      ],
      "stateMutability": "view",
      "type": "function"
    },
    {
      "inputs": [],
      "name": "totalSupply",
      "outputs": [
        {
          "internalType": "uint256",
          "name": "",
          "type": "uint256"
        }
      ],
      "stateMutability": "view",
      "type": "function"
    },
    {
      "inputs": [
        {
          "internalType": "address",
          "name": "from",
          "type": "address"
        },
        {
          "internalType": "address",
          "name": "to",
          "type": "address"
        },
        {
          "internalType": "uint256",
          "name": "tokenId",
          "type": "uint256"
        }
      ],
      "name": "transferFrom",
      "outputs": [],
      "stateMutability": "nonpayable",
      "type": "function"
    },
    {
      "inputs": [
        {
          "internalType": "address",
          "name": "newOwner",
          "type": "address"
        }
      ],
      "name": "transferOwnership",
      "outputs": [],
      "stateMutability": "nonpayable",
      "type": "function"
    },
    {
      "inputs": [
        {
          "internalType": "uint256",
          "name": "",
          "type": "uint256"
        }
      ],
      "name": "usefulFiles",
      "outputs": [
        {
          "internalType": "string",
          "name": "",
          "type": "string"
        }
      ],
      "stateMutability": "view",
      "type": "function"
    },
    {
      "inputs": [
        {
          "internalType": "uint256",
          "name": "",
          "type": "uint256"
        }
      ],
      "name": "versionBaseURI",
      "outputs": [
        {
          "internalType": "string",
          "name": "",
          "type": "string"
        }
      ],
      "stateMutability": "view",
      "type": "function"
    },
    {
      "inputs": [],
      "name": "mint",
      "outputs": [],
      "stateMutability": "payable",
      "type": "function"
    },
    {
      "inputs": [
        {
          "internalType": "address",
          "name": "_addressTreasury",
          "type": "address"
        }
      ],
      "name": "setTreasuryAddress",
      "outputs": [],
      "stateMutability": "nonpayable",
      "type": "function"
    },
    {
      "inputs": [
        {
          "internalType": "bytes4",
          "name": "interfaceId",
          "type": "bytes4"
        }
      ],
      "name": "supportsInterface",
      "outputs": [
        {
          "internalType": "bool",
          "name": "",
          "type": "bool"
        }
      ],
      "stateMutability": "view",
      "type": "function"
    },
    {
      "inputs": [
        {
          "internalType": "uint256",
          "name": "tokenId",
          "type": "uint256"
        },
        {
          "internalType": "uint256",
          "name": "version",
          "type": "uint256"
        }
      ],
      "name": "tokenURI",
      "outputs": [
        {
          "internalType": "string",
          "name": "",
          "type": "string"
        }
      ],
      "stateMutability": "view",
      "type": "function"
    },
    {
      "inputs": [
        {
          "internalType": "uint256",
          "name": "tokenId",
          "type": "uint256"
        }
      ],
      "name": "tokenURI",
      "outputs": [
        {
          "internalType": "string",
          "name": "",
          "type": "string"
        }
      ],
      "stateMutability": "view",
      "type": "function"
    },
    {
      "inputs": [
        {
          "internalType": "uint256",
          "name": "tokenId",
          "type": "uint256"
        },
        {
          "internalType": "uint256",
          "name": "version",
          "type": "uint256"
        }
      ],
      "name": "setPreferredVersion",
      "outputs": [],
      "stateMutability": "nonpayable",
      "type": "function"
    },
    {
      "inputs": [],
      "name": "allFileURI",
      "outputs": [
        {
          "internalType": "string[]",
          "name": "",
          "type": "string[]"
        }
      ],
      "stateMutability": "view",
      "type": "function"
    },
    {
      "inputs": [
        {
          "internalType": "uint256",
          "name": "fileId",
          "type": "uint256"
        }
      ],
      "name": "fileURI",
      "outputs": [
        {
          "internalType": "string",
          "name": "",
          "type": "string"
        }
      ],
      "stateMutability": "view",
      "type": "function"
    },
    {
      "inputs": [
        {
          "internalType": "string",
          "name": "_newBaseURI",
          "type": "string"
        }
      ],
      "name": "addNewVersion",
      "outputs": [],
      "stateMutability": "nonpayable",
      "type": "function"
    },
    {
      "inputs": [
        {
          "internalType": "string",
          "name": "_fileURI",
          "type": "string"
        }
      ],
      "name": "addNewFile",
      "outputs": [],
      "stateMutability": "nonpayable",
      "type": "function"
    },
    {
      "inputs": [
        {
          "internalType": "address",
          "name": "receiver",
          "type": "address"
        },
        {
          "internalType": "uint96",
          "name": "feeNumerator",
          "type": "uint96"
        }
      ],
      "name": "setDefaultRoyalty",
      "outputs": [],
      "stateMutability": "nonpayable",
      "type": "function"
    }
  ],
  "bytecode": "0x6101806040523480156200001257600080fd5b5060405162006bdb38038062006bdb8339818101604052810190620000389190620005cd565b856040518060400160405280600181526020017f31000000000000000000000000000000000000000000000000000000000000008152508787816002908051906020019062000089929190620002e0565b508060039080519060200190620000a2929190620002e0565b50505060008280519060200120905060008280519060200120905060007f8b73c3c69bb8fe3d512ecc4cf759cc79239f7b179b0ffacaa9a75d522b39400f90508260e081815250508161010081815250504660a081815250506200010e818484620001d660201b60201c565b608081815250503073ffffffffffffffffffffffffffffffffffffffff1660c08173ffffffffffffffffffffffffffffffffffffffff16815250508061012081815250505050505050620001776200016b6200021260201b60201c565b6200021a60201b60201c565b82610140818152505081610160818152505083601560006101000a81548173ffffffffffffffffffffffffffffffffffffffff021916908373ffffffffffffffffffffffffffffffffffffffff160217905550505050505050620007c5565b60008383834630604051602001620001f395949392919062000703565b6040516020818303038152906040528051906020012090509392505050565b600033905090565b6000601160009054906101000a900473ffffffffffffffffffffffffffffffffffffffff16905081601160006101000a81548173ffffffffffffffffffffffffffffffffffffffff021916908373ffffffffffffffffffffffffffffffffffffffff1602179055508173ffffffffffffffffffffffffffffffffffffffff168173ffffffffffffffffffffffffffffffffffffffff167f8be0079c531659141344cd1fd0a4f28419497f9722a3daafe3b4186f6b6457e060405160405180910390a35050565b828054620002ee906200078f565b90600052602060002090601f0160209004810192826200031257600085556200035e565b82601f106200032d57805160ff19168380011785556200035e565b828001600101855582156200035e579182015b828111156200035d57825182559160200191906001019062000340565b5b5090506200036d919062000371565b5090565b5b808211156200038c57600081600090555060010162000372565b5090565b6000604051905090565b600080fd5b600080fd5b600080fd5b600080fd5b6000601f19601f8301169050919050565b7f4e487b7100000000000000000000000000000000000000000000000000000000600052604160045260246000fd5b620003f982620003ae565b810181811067ffffffffffffffff821117156200041b576200041a620003bf565b5b80604052505050565b60006200043062000390565b90506200043e8282620003ee565b919050565b600067ffffffffffffffff821115620004615762000460620003bf565b5b6200046c82620003ae565b9050602081019050919050565b60005b83811015620004995780820151818401526020810190506200047c565b83811115620004a9576000848401525b50505050565b6000620004c6620004c08462000443565b62000424565b905082815260208101848484011115620004e557620004e4620003a9565b5b620004f284828562000479565b509392505050565b600082601f830112620005125762000511620003a4565b5b815162000524848260208601620004af565b91505092915050565b600073ffffffffffffffffffffffffffffffffffffffff82169050919050565b60006200055a826200052d565b9050919050565b6200056c816200054d565b81146200057857600080fd5b50565b6000815190506200058c8162000561565b92915050565b6000819050919050565b620005a78162000592565b8114620005b357600080fd5b50565b600081519050620005c7816200059c565b92915050565b60008060008060008060c08789031215620005ed57620005ec6200039a565b5b600087015167ffffffffffffffff8111156200060e576200060d6200039f565b5b6200061c89828a01620004fa565b965050602087015167ffffffffffffffff81111562000640576200063f6200039f565b5b6200064e89828a01620004fa565b95505060406200066189828a016200057b565b94505060606200067489828a01620005b6565b93505060806200068789828a01620005b6565b92505060a087015167ffffffffffffffff811115620006ab57620006aa6200039f565b5b620006b989828a01620004fa565b9150509295509295509295565b6000819050919050565b620006db81620006c6565b82525050565b620006ec8162000592565b82525050565b620006fd816200054d565b82525050565b600060a0820190506200071a6000830188620006d0565b620007296020830187620006d0565b620007386040830186620006d0565b620007476060830185620006e1565b620007566080830184620006f2565b9695505050505050565b7f4e487b7100000000000000000000000000000000000000000000000000000000600052602260045260246000fd5b60006002820490506001821680620007a857607f821691505b60208210811415620007bf57620007be62000760565b5b50919050565b60805160a05160c05160e051610100516101205161014051610160516163a26200083960003960008181610d620152611207015260008181611cff01526123580152600061277a015260006127bc0152600061279b015260006126d0015260006127260152600061274f01526163a26000f3fe6080604052600436106102515760003560e01c80636605bfda116101395780639ab24eb0116100b6578063c79c897b1161007a578063c79c897b1461094c578063c87b56dd14610975578063d5abeb01146109b2578063e985e9c5146109dd578063f2fde38b14610a1a578063f7c6aac514610a4357610251565b80639ab24eb014610857578063a22cb46514610894578063b5651b5a146108bd578063b88d4fde146108fa578063c3cda5201461092357610251565b80638da5cb5b116100fd5780638da5cb5b1461074a5780638e539e8c1461077557806392cb829d146107b257806395d89b41146107ef578063961706b91461081a57610251565b80636605bfda1461065357806370a082311461067c578063715018a6146106b95780637ecebe00146106d05780638ba7dd331461070d57610251565b80632f745c59116101d25780633eb7bd00116101965780633eb7bd001461052157806342842e0e1461054a5780634f6ccce714610573578063587cde1e146105b05780635c19a95c146105ed5780636352211e1461061657610251565b80632f745c591461042657806335db70b5146104635780633644e5151461048e5780633a46b1a8146104b95780633a5874e2146104f657610251565b80630d8ab312116102195780630d8ab3121461034d5780631249c58b1461038a57806318160ddd1461039457806323b872dd146103bf5780632a55205a146103e857610251565b806301ffc9a71461025657806304634d8d1461029357806306fdde03146102bc578063081812fc146102e7578063095ea7b314610324575b600080fd5b34801561026257600080fd5b5061027d6004803603810190610278919061444d565b610a6c565b60405161028a9190614495565b60405180910390f35b34801561029f57600080fd5b506102ba60048036038101906102b59190614552565b610aae565b005b3480156102c857600080fd5b506102d1610ac4565b6040516102de919061462b565b60405180910390f35b3480156102f357600080fd5b5061030e60048036038101906103099190614683565b610b56565b60405161031b91906146bf565b60405180910390f35b34801561033057600080fd5b5061034b600480360381019061034691906146da565b610b9c565b005b34801561035957600080fd5b50610374600480360381019061036f9190614683565b610cb4565b604051610381919061462b565b60405180910390f35b610392610d60565b005b3480156103a057600080fd5b506103a9610f08565b6040516103b69190614729565b60405180910390f35b3480156103cb57600080fd5b506103e660048036038101906103e19190614744565b610f15565b005b3480156103f457600080fd5b5061040f600480360381019061040a9190614797565b610f75565b60405161041d9291906147d7565b60405180910390f35b34801561043257600080fd5b5061044d600480360381019061044891906146da565b611160565b60405161045a9190614729565b60405180910390f35b34801561046f57600080fd5b50610478611205565b6040516104859190614729565b60405180910390f35b34801561049a57600080fd5b506104a3611229565b6040516104b09190614819565b60405180910390f35b3480156104c557600080fd5b506104e060048036038101906104db91906146da565b611238565b6040516104ed9190614729565b60405180910390f35b34801561050257600080fd5b5061050b611293565b6040516105189190614940565b60405180910390f35b34801561052d57600080fd5b5061054860048036038101906105439190614797565b61136c565b005b34801561055657600080fd5b50610571600480360381019061056c9190614744565b6113fe565b005b34801561057f57600080fd5b5061059a60048036038101906105959190614683565b61141e565b6040516105a79190614729565b60405180910390f35b3480156105bc57600080fd5b506105d760048036038101906105d29190614962565b61148f565b6040516105e491906146bf565b60405180910390f35b3480156105f957600080fd5b50610614600480360381019061060f9190614962565b6114f8565b005b34801561062257600080fd5b5061063d60048036038101906106389190614683565b611512565b60405161064a91906146bf565b60405180910390f35b34801561065f57600080fd5b5061067a60048036038101906106759190614962565b6115c4565b005b34801561068857600080fd5b506106a3600480360381019061069e9190614962565b611610565b6040516106b09190614729565b60405180910390f35b3480156106c557600080fd5b506106ce6116c8565b005b3480156106dc57600080fd5b506106f760048036038101906106f29190614962565b6116dc565b6040516107049190614729565b60405180910390f35b34801561071957600080fd5b50610734600480360381019061072f9190614683565b61172c565b604051610741919061462b565b60405180910390f35b34801561075657600080fd5b5061075f6117d8565b60405161076c91906146bf565b60405180910390f35b34801561078157600080fd5b5061079c60048036038101906107979190614683565b611802565b6040516107a99190614729565b60405180910390f35b3480156107be57600080fd5b506107d960048036038101906107d49190614797565b611861565b6040516107e6919061462b565b60405180910390f35b3480156107fb57600080fd5b506108046118cb565b604051610811919061462b565b60405180910390f35b34801561082657600080fd5b50610841600480360381019061083c9190614683565b61195d565b60405161084e9190614729565b60405180910390f35b34801561086357600080fd5b5061087e60048036038101906108799190614962565b611975565b60405161088b9190614729565b60405180910390f35b3480156108a057600080fd5b506108bb60048036038101906108b691906149bb565b6119c5565b005b3480156108c957600080fd5b506108e460048036038101906108df9190614683565b6119db565b6040516108f1919061462b565b60405180910390f35b34801561090657600080fd5b50610921600480360381019061091c9190614b30565b611a8b565b005b34801561092f57600080fd5b5061094a60048036038101906109459190614c18565b611aed565b005b34801561095857600080fd5b50610973600480360381019061096e9190614d05565b611bf1565b005b34801561098157600080fd5b5061099c60048036038101906109979190614683565b611c81565b6040516109a9919061462b565b60405180910390f35b3480156109be57600080fd5b506109c7611cfd565b6040516109d49190614729565b60405180910390f35b3480156109e957600080fd5b50610a0460048036038101906109ff9190614d52565b611d21565b604051610a119190614495565b60405180910390f35b348015610a2657600080fd5b50610a416004803603810190610a3c9190614962565b611db5565b005b348015610a4f57600080fd5b50610a6a6004803603810190610a659190614d05565b611e39565b005b6000610a7782611ec9565b80610a875750610a8682611f43565b5b80610a975750610a9682610a6c565b5b80610aa75750610aa682611f55565b5b9050919050565b610ab6612037565b610ac082826120b5565b5050565b606060028054610ad390614dc1565b80601f0160208091040260200160405190810160405280929190818152602001828054610aff90614dc1565b8015610b4c5780601f10610b2157610100808354040283529160200191610b4c565b820191906000526020600020905b815481529060010190602001808311610b2f57829003601f168201915b5050505050905090565b6000610b618261224a565b6006600083815260200190815260200160002060009054906101000a900473ffffffffffffffffffffffffffffffffffffffff169050919050565b6000610ba782611512565b90508073ffffffffffffffffffffffffffffffffffffffff168373ffffffffffffffffffffffffffffffffffffffff161415610c18576040517f08c379a0000000000000000000000000000000000000000000000000000000008152600401610c0f90614e65565b60405180910390fd5b8073ffffffffffffffffffffffffffffffffffffffff16610c37612295565b73ffffffffffffffffffffffffffffffffffffffff161480610c665750610c6581610c60612295565b611d21565b5b610ca5576040517f08c379a0000000000000000000000000000000000000000000000000000000008152600401610c9c90614ef7565b60405180910390fd5b610caf838361229d565b505050565b60148181548110610cc457600080fd5b906000526020600020016000915090508054610cdf90614dc1565b80601f0160208091040260200160405190810160405280929190818152602001828054610d0b90614dc1565b8015610d585780601f10610d2d57610100808354040283529160200191610d58565b820191906000526020600020905b815481529060010190602001808311610d3b57829003601f168201915b505050505081565b7f00000000000000000000000000000000000000000000000000000000000000003414610d8c57600080fd5b610e04333073ffffffffffffffffffffffffffffffffffffffff166318160ddd6040518163ffffffff1660e01b8152600401602060405180830381865afa158015610ddb573d6000803e3d6000fd5b505050506040513d601f19601f82011682018060405250810190610dff9190614f2c565b612356565b601560009054906101000a900473ffffffffffffffffffffffffffffffffffffffff1673ffffffffffffffffffffffffffffffffffffffff166108fc6064605034610e4f9190614f88565b610e599190615011565b9081150290604051600060405180830381858888f19350505050158015610e84573d6000803e3d6000fd5b50601660009054906101000a900473ffffffffffffffffffffffffffffffffffffffff1673ffffffffffffffffffffffffffffffffffffffff166108fc6064601434610ed09190614f88565b610eda9190615011565b9081150290604051600060405180830381858888f19350505050158015610f05573d6000803e3d6000fd5b50565b6000600a80549050905090565b610f26610f20612295565b826123c6565b610f65576040517f08c379a0000000000000000000000000000000000000000000000000000000008152600401610f5c906150b4565b60405180910390fd5b610f7083838361245b565b505050565b6000806000600160008681526020019081526020016000206040518060400160405290816000820160009054906101000a900473ffffffffffffffffffffffffffffffffffffffff1673ffffffffffffffffffffffffffffffffffffffff1673ffffffffffffffffffffffffffffffffffffffff1681526020016000820160149054906101000a90046bffffffffffffffffffffffff166bffffffffffffffffffffffff166bffffffffffffffffffffffff16815250509050600073ffffffffffffffffffffffffffffffffffffffff16816000015173ffffffffffffffffffffffffffffffffffffffff16141561110b5760006040518060400160405290816000820160009054906101000a900473ffffffffffffffffffffffffffffffffffffffff1673ffffffffffffffffffffffffffffffffffffffff1673ffffffffffffffffffffffffffffffffffffffff1681526020016000820160149054906101000a90046bffffffffffffffffffffffff166bffffffffffffffffffffffff166bffffffffffffffffffffffff168152505090505b60006111156126c2565b6bffffffffffffffffffffffff1682602001516bffffffffffffffffffffffff16866111419190614f88565b61114b9190615011565b90508160000151819350935050509250929050565b600061116b83611610565b82106111ac576040517f08c379a00000000000000000000000000000000000000000000000000000000081526004016111a390615146565b60405180910390fd5b600860008473ffffffffffffffffffffffffffffffffffffffff1673ffffffffffffffffffffffffffffffffffffffff168152602001908152602001600020600083815260200190815260200160002054905092915050565b7f000000000000000000000000000000000000000000000000000000000000000081565b60006112336126cc565b905090565b600061128b82600e60008673ffffffffffffffffffffffffffffffffffffffff1673ffffffffffffffffffffffffffffffffffffffff1681526020019081526020016000206127e690919063ffffffff16565b905092915050565b60606014805480602002602001604051908101604052809291908181526020016000905b828210156113635783829060005260206000200180546112d690614dc1565b80601f016020809104026020016040519081016040528092919081815260200182805461130290614dc1565b801561134f5780601f106113245761010080835404028352916020019161134f565b820191906000526020600020905b81548152906001019060200180831161133257829003601f168201915b5050505050815260200190600101906112b7565b50505050905090565b61137582611512565b73ffffffffffffffffffffffffffffffffffffffff163373ffffffffffffffffffffffffffffffffffffffff16146113e2576040517f08c379a00000000000000000000000000000000000000000000000000000000081526004016113d9906151fe565b60405180910390fd5b8060136000848152602001908152602001600020819055505050565b61141983838360405180602001604052806000815250611a8b565b505050565b6000611428610f08565b8210611469576040517f08c379a000000000000000000000000000000000000000000000000000000000815260040161146090615290565b60405180910390fd5b600a828154811061147d5761147c6152b0565b5b90600052602060002001549050919050565b6000600d60008373ffffffffffffffffffffffffffffffffffffffff1673ffffffffffffffffffffffffffffffffffffffff16815260200190815260200160002060009054906101000a900473ffffffffffffffffffffffffffffffffffffffff169050919050565b6000611502612295565b905061150e818361293e565b5050565b6000806004600084815260200190815260200160002060009054906101000a900473ffffffffffffffffffffffffffffffffffffffff169050600073ffffffffffffffffffffffffffffffffffffffff168173ffffffffffffffffffffffffffffffffffffffff1614156115bb576040517f08c379a00000000000000000000000000000000000000000000000000000000081526004016115b29061532b565b60405180910390fd5b80915050919050565b6115cc612037565b80601660006101000a81548173ffffffffffffffffffffffffffffffffffffffff021916908373ffffffffffffffffffffffffffffffffffffffff16021790555050565b60008073ffffffffffffffffffffffffffffffffffffffff168273ffffffffffffffffffffffffffffffffffffffff161415611681576040517f08c379a0000000000000000000000000000000000000000000000000000000008152600401611678906153bd565b60405180910390fd5b600560008373ffffffffffffffffffffffffffffffffffffffff1673ffffffffffffffffffffffffffffffffffffffff168152602001908152602001600020549050919050565b6116d0612037565b6116da6000612a52565b565b6000611725601060008473ffffffffffffffffffffffffffffffffffffffff1673ffffffffffffffffffffffffffffffffffffffff168152602001908152602001600020612b18565b9050919050565b6012818154811061173c57600080fd5b90600052602060002001600091509050805461175790614dc1565b80601f016020809104026020016040519081016040528092919081815260200182805461178390614dc1565b80156117d05780601f106117a5576101008083540402835291602001916117d0565b820191906000526020600020905b8154815290600101906020018083116117b357829003601f168201915b505050505081565b6000601160009054906101000a900473ffffffffffffffffffffffffffffffffffffffff16905090565b6000438210611846576040517f08c379a000000000000000000000000000000000000000000000000000000000815260040161183d90615429565b60405180910390fd5b61185a82600f6127e690919063ffffffff16565b9050919050565b606061186c8361224a565b600061187783612b26565b9050600081511161189757604051806020016040528060008152506118c2565b806118a185612c1d565b6040516020016118b2929190615485565b6040516020818303038152906040525b91505092915050565b6060600380546118da90614dc1565b80601f016020809104026020016040519081016040528092919081815260200182805461190690614dc1565b80156119535780601f1061192857610100808354040283529160200191611953565b820191906000526020600020905b81548152906001019060200180831161193657829003601f168201915b5050505050905090565b60136020528060005260406000206000915090505481565b60006119be600e60008473ffffffffffffffffffffffffffffffffffffffff1673ffffffffffffffffffffffffffffffffffffffff168152602001908152602001600020612d7e565b9050919050565b6119d76119d0612295565b8383612e19565b5050565b6060601482815481106119f1576119f06152b0565b5b906000526020600020018054611a0690614dc1565b80601f0160208091040260200160405190810160405280929190818152602001828054611a3290614dc1565b8015611a7f5780601f10611a5457610100808354040283529160200191611a7f565b820191906000526020600020905b815481529060010190602001808311611a6257829003601f168201915b50505050509050919050565b611a9c611a96612295565b836123c6565b611adb576040517f08c379a0000000000000000000000000000000000000000000000000000000008152600401611ad2906150b4565b60405180910390fd5b611ae784848484612f86565b50505050565b83421115611b30576040517f08c379a0000000000000000000000000000000000000000000000000000000008152600401611b27906154f5565b60405180910390fd5b6000611b92611b8a7fe48329057bfd03d55e49b547132e39cffd9c1820ad7b9d4c5307691425d15adf898989604051602001611b6f9493929190615515565b60405160208183030381529060405280519060200120612fe2565b858585612ffc565b9050611b9d81613027565b8614611bde576040517f08c379a0000000000000000000000000000000000000000000000000000000008152600401611bd5906155a6565b60405180910390fd5b611be8818861293e565b50505050505050565b6012828290918060018154018082558091505060019003906000526020600020016000909192909192909192909192509190611c2e92919061433e565b507f050c76650b28c8a4d054c6e1fe3a4ca90292eb2b698b5f543d9a09dd0a74548f3383836001601280549050611c6591906155c6565b604051611c759493929190615627565b60405180910390a15050565b6060611c8c8261224a565b6000611caa6013600085815260200190815260200160002054612b26565b90506000815111611cca5760405180602001604052806000815250611cf5565b80611cd484612c1d565b604051602001611ce5929190615485565b6040516020818303038152906040525b915050919050565b7f000000000000000000000000000000000000000000000000000000000000000081565b6000600760008473ffffffffffffffffffffffffffffffffffffffff1673ffffffffffffffffffffffffffffffffffffffff16815260200190815260200160002060008373ffffffffffffffffffffffffffffffffffffffff1673ffffffffffffffffffffffffffffffffffffffff16815260200190815260200160002060009054906101000a900460ff16905092915050565b611dbd612037565b600073ffffffffffffffffffffffffffffffffffffffff168173ffffffffffffffffffffffffffffffffffffffff161415611e2d576040517f08c379a0000000000000000000000000000000000000000000000000000000008152600401611e24906156d9565b60405180910390fd5b611e3681612a52565b50565b6014828290918060018154018082558091505060019003906000526020600020016000909192909192909192909192509190611e7692919061433e565b507f94c4cb73b68c53604ffce725087511ecf550e2e1a4f83b18baa2fd5ba2fde27f3383836001601480549050611ead91906155c6565b604051611ebd9493929190615627565b60405180910390a15050565b60007f780e9d63000000000000000000000000000000000000000000000000000000007bffffffffffffffffffffffffffffffffffffffffffffffffffffffff1916827bffffffffffffffffffffffffffffffffffffffffffffffffffffffff19161480611f3c5750611f3b82611f55565b5b9050919050565b6000611f4e82611ec9565b9050919050565b60007f80ac58cd000000000000000000000000000000000000000000000000000000007bffffffffffffffffffffffffffffffffffffffffffffffffffffffff1916827bffffffffffffffffffffffffffffffffffffffffffffffffffffffff1916148061202057507f5b5e139f000000000000000000000000000000000000000000000000000000007bffffffffffffffffffffffffffffffffffffffffffffffffffffffff1916827bffffffffffffffffffffffffffffffffffffffffffffffffffffffff1916145b80612030575061202f82613085565b5b9050919050565b61203f612295565b73ffffffffffffffffffffffffffffffffffffffff1661205d6117d8565b73ffffffffffffffffffffffffffffffffffffffff16146120b3576040517f08c379a00000000000000000000000000000000000000000000000000000000081526004016120aa90615745565b60405180910390fd5b565b6120bd6126c2565b6bffffffffffffffffffffffff16816bffffffffffffffffffffffff16111561211b576040517f08c379a0000000000000000000000000000000000000000000000000000000008152600401612112906157d7565b60405180910390fd5b600073ffffffffffffffffffffffffffffffffffffffff168273ffffffffffffffffffffffffffffffffffffffff16141561218b576040517f08c379a000000000000000000000000000000000000000000000000000000000815260040161218290615843565b60405180910390fd5b60405180604001604052808373ffffffffffffffffffffffffffffffffffffffff168152602001826bffffffffffffffffffffffff168152506000808201518160000160006101000a81548173ffffffffffffffffffffffffffffffffffffffff021916908373ffffffffffffffffffffffffffffffffffffffff16021790555060208201518160000160146101000a8154816bffffffffffffffffffffffff02191690836bffffffffffffffffffffffff1602179055509050505050565b612253816130ff565b612292576040517f08c379a00000000000000000000000000000000000000000000000000000000081526004016122899061532b565b60405180910390fd5b50565b600033905090565b816006600083815260200190815260200160002060006101000a81548173ffffffffffffffffffffffffffffffffffffffff021916908373ffffffffffffffffffffffffffffffffffffffff160217905550808273ffffffffffffffffffffffffffffffffffffffff1661231083611512565b73ffffffffffffffffffffffffffffffffffffffff167f8c5be1e5ebec7d5bd14f71427d1e84f3dd0314c0f7b2291e5b200ac8c7c3b92560405160405180910390a45050565b7f000000000000000000000000000000000000000000000000000000000000000081106123b8576040517f08c379a00000000000000000000000000000000000000000000000000000000081526004016123af906158d5565b60405180910390fd5b6123c2828261316b565b5050565b6000806123d283611512565b90508073ffffffffffffffffffffffffffffffffffffffff168473ffffffffffffffffffffffffffffffffffffffff16148061241457506124138185611d21565b5b8061245257508373ffffffffffffffffffffffffffffffffffffffff1661243a84610b56565b73ffffffffffffffffffffffffffffffffffffffff16145b91505092915050565b8273ffffffffffffffffffffffffffffffffffffffff1661247b82611512565b73ffffffffffffffffffffffffffffffffffffffff16146124d1576040517f08c379a00000000000000000000000000000000000000000000000000000000081526004016124c890615967565b60405180910390fd5b600073ffffffffffffffffffffffffffffffffffffffff168273ffffffffffffffffffffffffffffffffffffffff161415612541576040517f08c379a0000000000000000000000000000000000000000000000000000000008152600401612538906159f9565b60405180910390fd5b61254c838383613345565b61255760008261229d565b6001600560008573ffffffffffffffffffffffffffffffffffffffff1673ffffffffffffffffffffffffffffffffffffffff16815260200190815260200160002060008282546125a791906155c6565b925050819055506001600560008473ffffffffffffffffffffffffffffffffffffffff1673ffffffffffffffffffffffffffffffffffffffff16815260200190815260200160002060008282546125fe9190615a19565b92505081905550816004600083815260200190815260200160002060006101000a81548173ffffffffffffffffffffffffffffffffffffffff021916908373ffffffffffffffffffffffffffffffffffffffff160217905550808273ffffffffffffffffffffffffffffffffffffffff168473ffffffffffffffffffffffffffffffffffffffff167fddf252ad1be2c89b69c2b068fc378daa952ba7f163c4a11628f55a4df523b3ef60405160405180910390a46126bd838383613355565b505050565b6000612710905090565b60007f000000000000000000000000000000000000000000000000000000000000000073ffffffffffffffffffffffffffffffffffffffff163073ffffffffffffffffffffffffffffffffffffffff1614801561274857507f000000000000000000000000000000000000000000000000000000000000000046145b15612775577f000000000000000000000000000000000000000000000000000000000000000090506127e3565b6127e07f00000000000000000000000000000000000000000000000000000000000000007f00000000000000000000000000000000000000000000000000000000000000007f0000000000000000000000000000000000000000000000000000000000000000613365565b90505b90565b600043821061282a576040517f08c379a000000000000000000000000000000000000000000000000000000000815260040161282190615abb565b60405180910390fd5b60008360000180549050905060005b818110156128ae57600061284d828461339f565b905084866000018281548110612866576128656152b0565b5b9060005260206000200160000160009054906101000a900463ffffffff1663ffffffff161115612898578092506128a8565b6001816128a59190615a19565b91505b50612839565b6000821461291357846000016001836128c791906155c6565b815481106128d8576128d76152b0565b5b9060005260206000200160000160049054906101000a90047bffffffffffffffffffffffffffffffffffffffffffffffffffffffff16612916565b60005b7bffffffffffffffffffffffffffffffffffffffffffffffffffffffff169250505092915050565b60006129498361148f565b905081600d60008573ffffffffffffffffffffffffffffffffffffffff1673ffffffffffffffffffffffffffffffffffffffff16815260200190815260200160002060006101000a81548173ffffffffffffffffffffffffffffffffffffffff021916908373ffffffffffffffffffffffffffffffffffffffff1602179055508173ffffffffffffffffffffffffffffffffffffffff168173ffffffffffffffffffffffffffffffffffffffff168473ffffffffffffffffffffffffffffffffffffffff167f3134e8a2e6d97e929a7e54011ea5485d7d196dd5f0ba4d4ef95803e8e3fc257f60405160405180910390a4612a4d8183612a48866133c5565b6133d7565b505050565b6000601160009054906101000a900473ffffffffffffffffffffffffffffffffffffffff16905081601160006101000a81548173ffffffffffffffffffffffffffffffffffffffff021916908373ffffffffffffffffffffffffffffffffffffffff1602179055508173ffffffffffffffffffffffffffffffffffffffff168173ffffffffffffffffffffffffffffffffffffffff167f8be0079c531659141344cd1fd0a4f28419497f9722a3daafe3b4186f6b6457e060405160405180910390a35050565b600081600001549050919050565b60606012805490508210612b6f576040517f08c379a0000000000000000000000000000000000000000000000000000000008152600401612b6690615b27565b60405180910390fd5b60128281548110612b8357612b826152b0565b5b906000526020600020018054612b9890614dc1565b80601f0160208091040260200160405190810160405280929190818152602001828054612bc490614dc1565b8015612c115780601f10612be657610100808354040283529160200191612c11565b820191906000526020600020905b815481529060010190602001808311612bf457829003601f168201915b50505050509050919050565b60606000821415612c65576040518060400160405280600181526020017f30000000000000000000000000000000000000000000000000000000000000008152509050612d79565b600082905060005b60008214612c97578080612c8090615b47565b915050600a82612c909190615011565b9150612c6d565b60008167ffffffffffffffff811115612cb357612cb2614a05565b5b6040519080825280601f01601f191660200182016040528015612ce55781602001600182028036833780820191505090505b5090505b60008514612d7257600182612cfe91906155c6565b9150600a85612d0d9190615b90565b6030612d199190615a19565b60f81b818381518110612d2f57612d2e6152b0565b5b60200101907effffffffffffffffffffffffffffffffffffffffffffffffffffffffffffff1916908160001a905350600a85612d6b9190615011565b9450612ce9565b8093505050505b919050565b6000808260000180549050905060008114612df05782600001600182612da491906155c6565b81548110612db557612db46152b0565b5b9060005260206000200160000160049054906101000a90047bffffffffffffffffffffffffffffffffffffffffffffffffffffffff16612df3565b60005b7bffffffffffffffffffffffffffffffffffffffffffffffffffffffff16915050919050565b8173ffffffffffffffffffffffffffffffffffffffff168373ffffffffffffffffffffffffffffffffffffffff161415612e88576040517f08c379a0000000000000000000000000000000000000000000000000000000008152600401612e7f90615c0d565b60405180910390fd5b80600760008573ffffffffffffffffffffffffffffffffffffffff1673ffffffffffffffffffffffffffffffffffffffff16815260200190815260200160002060008473ffffffffffffffffffffffffffffffffffffffff1673ffffffffffffffffffffffffffffffffffffffff16815260200190815260200160002060006101000a81548160ff0219169083151502179055508173ffffffffffffffffffffffffffffffffffffffff168373ffffffffffffffffffffffffffffffffffffffff167f17307eab39ab6107e8899845ad3d59bd9653f200f220920489ca2b5937696c3183604051612f799190614495565b60405180910390a3505050565b612f9184848461245b565b612f9d848484846135e4565b612fdc576040517f08c379a0000000000000000000000000000000000000000000000000000000008152600401612fd390615c9f565b60405180910390fd5b50505050565b6000612ff5612fef6126cc565b8361376c565b9050919050565b600080600061300d8787878761379f565b9150915061301a816138ac565b8192505050949350505050565b600080601060008473ffffffffffffffffffffffffffffffffffffffff1673ffffffffffffffffffffffffffffffffffffffff168152602001908152602001600020905061307481612b18565b915061307f81613a81565b50919050565b60007f2a55205a000000000000000000000000000000000000000000000000000000007bffffffffffffffffffffffffffffffffffffffffffffffffffffffff1916827bffffffffffffffffffffffffffffffffffffffffffffffffffffffff191614806130f857506130f782613a97565b5b9050919050565b60008073ffffffffffffffffffffffffffffffffffffffff166004600084815260200190815260200160002060009054906101000a900473ffffffffffffffffffffffffffffffffffffffff1673ffffffffffffffffffffffffffffffffffffffff1614159050919050565b600073ffffffffffffffffffffffffffffffffffffffff168273ffffffffffffffffffffffffffffffffffffffff1614156131db576040517f08c379a00000000000000000000000000000000000000000000000000000000081526004016131d290615d0b565b60405180910390fd5b6131e4816130ff565b15613224576040517f08c379a000000000000000000000000000000000000000000000000000000000815260040161321b90615d77565b60405180910390fd5b61323060008383613345565b6001600560008473ffffffffffffffffffffffffffffffffffffffff1673ffffffffffffffffffffffffffffffffffffffff16815260200190815260200160002060008282546132809190615a19565b92505081905550816004600083815260200190815260200160002060006101000a81548173ffffffffffffffffffffffffffffffffffffffff021916908373ffffffffffffffffffffffffffffffffffffffff160217905550808273ffffffffffffffffffffffffffffffffffffffff16600073ffffffffffffffffffffffffffffffffffffffff167fddf252ad1be2c89b69c2b068fc378daa952ba7f163c4a11628f55a4df523b3ef60405160405180910390a461334160008383613355565b5050565b613350838383613b01565b505050565b613360838383613c15565b505050565b60008383834630604051602001613380959493929190615d97565b6040516020818303038152906040528051906020012090509392505050565b600060028284186133b09190615011565b8284166133bd9190615a19565b905092915050565b60006133d082611610565b9050919050565b8173ffffffffffffffffffffffffffffffffffffffff168373ffffffffffffffffffffffffffffffffffffffff16141580156134135750600081115b156135df57600073ffffffffffffffffffffffffffffffffffffffff168373ffffffffffffffffffffffffffffffffffffffff16146134fb576000806134a4613c3184600e60008973ffffffffffffffffffffffffffffffffffffffff1673ffffffffffffffffffffffffffffffffffffffff168152602001908152602001600020613c479092919063ffffffff16565b915091508473ffffffffffffffffffffffffffffffffffffffff167fdec2bacdd2f05b59de34da9b523dff8be42e5e38e818c82fdb0bae774387a72483836040516134f0929190615dea565b60405180910390a250505b600073ffffffffffffffffffffffffffffffffffffffff168273ffffffffffffffffffffffffffffffffffffffff16146135de57600080613587613c7584600e60008873ffffffffffffffffffffffffffffffffffffffff1673ffffffffffffffffffffffffffffffffffffffff168152602001908152602001600020613c479092919063ffffffff16565b915091508373ffffffffffffffffffffffffffffffffffffffff167fdec2bacdd2f05b59de34da9b523dff8be42e5e38e818c82fdb0bae774387a72483836040516135d3929190615dea565b60405180910390a250505b5b505050565b60006136058473ffffffffffffffffffffffffffffffffffffffff16613c8b565b1561375f578373ffffffffffffffffffffffffffffffffffffffff1663150b7a0261362e612295565b8786866040518563ffffffff1660e01b81526004016136509493929190615e68565b6020604051808303816000875af192505050801561368c57506040513d601f19601f820116820180604052508101906136899190615ec9565b60015b61370f573d80600081146136bc576040519150601f19603f3d011682016040523d82523d6000602084013e6136c1565b606091505b50600081511415613707576040517f08c379a00000000000000000000000000000000000000000000000000000000081526004016136fe90615c9f565b60405180910390fd5b805181602001fd5b63150b7a0260e01b7bffffffffffffffffffffffffffffffffffffffffffffffffffffffff1916817bffffffffffffffffffffffffffffffffffffffffffffffffffffffff191614915050613764565b600190505b949350505050565b60008282604051602001613781929190615f63565b60405160208183030381529060405280519060200120905092915050565b6000807f7fffffffffffffffffffffffffffffff5d576e7357a4501ddfe92f46681b20a08360001c11156137da5760006003915091506138a3565b601b8560ff16141580156137f25750601c8560ff1614155b156138045760006004915091506138a3565b6000600187878787604051600081526020016040526040516138299493929190615fa9565b6020604051602081039080840390855afa15801561384b573d6000803e3d6000fd5b505050602060405103519050600073ffffffffffffffffffffffffffffffffffffffff168173ffffffffffffffffffffffffffffffffffffffff16141561389a576000600192509250506138a3565b80600092509250505b94509492505050565b600060048111156138c0576138bf615fee565b5b8160048111156138d3576138d2615fee565b5b14156138de57613a7e565b600160048111156138f2576138f1615fee565b5b81600481111561390557613904615fee565b5b1415613946576040517f08c379a000000000000000000000000000000000000000000000000000000000815260040161393d90616069565b60405180910390fd5b6002600481111561395a57613959615fee565b5b81600481111561396d5761396c615fee565b5b14156139ae576040517f08c379a00000000000000000000000000000000000000000000000000000000081526004016139a5906160d5565b60405180910390fd5b600360048111156139c2576139c1615fee565b5b8160048111156139d5576139d4615fee565b5b1415613a16576040517f08c379a0000000000000000000000000000000000000000000000000000000008152600401613a0d90616167565b60405180910390fd5b600480811115613a2957613a28615fee565b5b816004811115613a3c57613a3b615fee565b5b1415613a7d576040517f08c379a0000000000000000000000000000000000000000000000000000000008152600401613a74906161f9565b60405180910390fd5b5b50565b6001816000016000828254019250508190555050565b60007f01ffc9a7000000000000000000000000000000000000000000000000000000007bffffffffffffffffffffffffffffffffffffffffffffffffffffffff1916827bffffffffffffffffffffffffffffffffffffffffffffffffffffffff1916149050919050565b613b0c838383613cae565b600073ffffffffffffffffffffffffffffffffffffffff168373ffffffffffffffffffffffffffffffffffffffff161415613b4f57613b4a81613cb3565b613b8e565b8173ffffffffffffffffffffffffffffffffffffffff168373ffffffffffffffffffffffffffffffffffffffff1614613b8d57613b8c8382613cfc565b5b5b600073ffffffffffffffffffffffffffffffffffffffff168273ffffffffffffffffffffffffffffffffffffffff161415613bd157613bcc81613e69565b613c10565b8273ffffffffffffffffffffffffffffffffffffffff168273ffffffffffffffffffffffffffffffffffffffff1614613c0f57613c0e8282613f3a565b5b5b505050565b613c2183836001613fb9565b613c2c838383614079565b505050565b60008183613c3f91906155c6565b905092915050565b600080613c6985613c64613c5a88612d7e565b868863ffffffff16565b61407e565b91509150935093915050565b60008183613c839190615a19565b905092915050565b6000808273ffffffffffffffffffffffffffffffffffffffff163b119050919050565b505050565b600a80549050600b600083815260200190815260200160002081905550600a81908060018154018082558091505060019003906000526020600020016000909190919091505550565b60006001613d0984611610565b613d1391906155c6565b9050600060096000848152602001908152602001600020549050818114613df8576000600860008673ffffffffffffffffffffffffffffffffffffffff1673ffffffffffffffffffffffffffffffffffffffff168152602001908152602001600020600084815260200190815260200160002054905080600860008773ffffffffffffffffffffffffffffffffffffffff1673ffffffffffffffffffffffffffffffffffffffff168152602001908152602001600020600084815260200190815260200160002081905550816009600083815260200190815260200160002081905550505b6009600084815260200190815260200160002060009055600860008573ffffffffffffffffffffffffffffffffffffffff1673ffffffffffffffffffffffffffffffffffffffff16815260200190815260200160002060008381526020019081526020016000206000905550505050565b60006001600a80549050613e7d91906155c6565b90506000600b60008481526020019081526020016000205490506000600a8381548110613ead57613eac6152b0565b5b9060005260206000200154905080600a8381548110613ecf57613ece6152b0565b5b906000526020600020018190555081600b600083815260200190815260200160002081905550600b600085815260200190815260200160002060009055600a805480613f1e57613f1d616219565b5b6001900381819060005260206000200160009055905550505050565b6000613f4583611610565b905081600860008573ffffffffffffffffffffffffffffffffffffffff1673ffffffffffffffffffffffffffffffffffffffff168152602001908152602001600020600083815260200190815260200160002081905550806009600084815260200190815260200160002081905550505050565b600073ffffffffffffffffffffffffffffffffffffffff168373ffffffffffffffffffffffffffffffffffffffff16141561400957614006613c7582600f613c479092919063ffffffff16565b50505b600073ffffffffffffffffffffffffffffffffffffffff168273ffffffffffffffffffffffffffffffffffffffff16141561405957614056613c3182600f613c479092919063ffffffff16565b50505b6140746140658461148f565b61406e8461148f565b836133d7565b505050565b505050565b600080600084600001805490509050600061409886612d7e565b90506000821180156140ee575043866000016001846140b791906155c6565b815481106140c8576140c76152b0565b5b9060005260206000200160000160009054906101000a900463ffffffff1663ffffffff16145b1561417e576140fc85614280565b8660000160018461410d91906155c6565b8154811061411e5761411d6152b0565b5b9060005260206000200160000160046101000a8154817bffffffffffffffffffffffffffffffffffffffffffffffffffffffff02191690837bffffffffffffffffffffffffffffffffffffffffffffffffffffffff160217905550614271565b856000016040518060400160405280614196436142eb565b63ffffffff1681526020016141aa88614280565b7bffffffffffffffffffffffffffffffffffffffffffffffffffffffff168152509080600181540180825580915050600190039060005260206000200160009091909190915060008201518160000160006101000a81548163ffffffff021916908363ffffffff16021790555060208201518160000160046101000a8154817bffffffffffffffffffffffffffffffffffffffffffffffffffffffff02191690837bffffffffffffffffffffffffffffffffffffffffffffffffffffffff16021790555050505b80859350935050509250929050565b60007bffffffffffffffffffffffffffffffffffffffffffffffffffffffff80168211156142e3576040517f08c379a00000000000000000000000000000000000000000000000000000000081526004016142da906162ba565b60405180910390fd5b819050919050565b600063ffffffff8016821115614336576040517f08c379a000000000000000000000000000000000000000000000000000000000815260040161432d9061634c565b60405180910390fd5b819050919050565b82805461434a90614dc1565b90600052602060002090601f01602090048101928261436c57600085556143b3565b82601f1061438557803560ff19168380011785556143b3565b828001600101855582156143b3579182015b828111156143b2578235825591602001919060010190614397565b5b5090506143c091906143c4565b5090565b5b808211156143dd5760008160009055506001016143c5565b5090565b6000604051905090565b600080fd5b600080fd5b60007fffffffff0000000000000000000000000000000000000000000000000000000082169050919050565b61442a816143f5565b811461443557600080fd5b50565b60008135905061444781614421565b92915050565b600060208284031215614463576144626143eb565b5b600061447184828501614438565b91505092915050565b60008115159050919050565b61448f8161447a565b82525050565b60006020820190506144aa6000830184614486565b92915050565b600073ffffffffffffffffffffffffffffffffffffffff82169050919050565b60006144db826144b0565b9050919050565b6144eb816144d0565b81146144f657600080fd5b50565b600081359050614508816144e2565b92915050565b60006bffffffffffffffffffffffff82169050919050565b61452f8161450e565b811461453a57600080fd5b50565b60008135905061454c81614526565b92915050565b60008060408385031215614569576145686143eb565b5b6000614577858286016144f9565b92505060206145888582860161453d565b9150509250929050565b600081519050919050565b600082825260208201905092915050565b60005b838110156145cc5780820151818401526020810190506145b1565b838111156145db576000848401525b50505050565b6000601f19601f8301169050919050565b60006145fd82614592565b614607818561459d565b93506146178185602086016145ae565b614620816145e1565b840191505092915050565b6000602082019050818103600083015261464581846145f2565b905092915050565b6000819050919050565b6146608161464d565b811461466b57600080fd5b50565b60008135905061467d81614657565b92915050565b600060208284031215614699576146986143eb565b5b60006146a78482850161466e565b91505092915050565b6146b9816144d0565b82525050565b60006020820190506146d460008301846146b0565b92915050565b600080604083850312156146f1576146f06143eb565b5b60006146ff858286016144f9565b92505060206147108582860161466e565b9150509250929050565b6147238161464d565b82525050565b600060208201905061473e600083018461471a565b92915050565b60008060006060848603121561475d5761475c6143eb565b5b600061476b868287016144f9565b935050602061477c868287016144f9565b925050604061478d8682870161466e565b9150509250925092565b600080604083850312156147ae576147ad6143eb565b5b60006147bc8582860161466e565b92505060206147cd8582860161466e565b9150509250929050565b60006040820190506147ec60008301856146b0565b6147f9602083018461471a565b9392505050565b6000819050919050565b61481381614800565b82525050565b600060208201905061482e600083018461480a565b92915050565b600081519050919050565b600082825260208201905092915050565b6000819050602082019050919050565b600082825260208201905092915050565b600061487c82614592565b6148868185614860565b93506148968185602086016145ae565b61489f816145e1565b840191505092915050565b60006148b68383614871565b905092915050565b6000602082019050919050565b60006148d682614834565b6148e0818561483f565b9350836020820285016148f285614850565b8060005b8581101561492e578484038952815161490f85826148aa565b945061491a836148be565b925060208a019950506001810190506148f6565b50829750879550505050505092915050565b6000602082019050818103600083015261495a81846148cb565b905092915050565b600060208284031215614978576149776143eb565b5b6000614986848285016144f9565b91505092915050565b6149988161447a565b81146149a357600080fd5b50565b6000813590506149b58161498f565b92915050565b600080604083850312156149d2576149d16143eb565b5b60006149e0858286016144f9565b92505060206149f1858286016149a6565b9150509250929050565b600080fd5b600080fd5b7f4e487b7100000000000000000000000000000000000000000000000000000000600052604160045260246000fd5b614a3d826145e1565b810181811067ffffffffffffffff82111715614a5c57614a5b614a05565b5b80604052505050565b6000614a6f6143e1565b9050614a7b8282614a34565b919050565b600067ffffffffffffffff821115614a9b57614a9a614a05565b5b614aa4826145e1565b9050602081019050919050565b82818337600083830152505050565b6000614ad3614ace84614a80565b614a65565b905082815260208101848484011115614aef57614aee614a00565b5b614afa848285614ab1565b509392505050565b600082601f830112614b1757614b166149fb565b5b8135614b27848260208601614ac0565b91505092915050565b60008060008060808587031215614b4a57614b496143eb565b5b6000614b58878288016144f9565b9450506020614b69878288016144f9565b9350506040614b7a8782880161466e565b925050606085013567ffffffffffffffff811115614b9b57614b9a6143f0565b5b614ba787828801614b02565b91505092959194509250565b600060ff82169050919050565b614bc981614bb3565b8114614bd457600080fd5b50565b600081359050614be681614bc0565b92915050565b614bf581614800565b8114614c0057600080fd5b50565b600081359050614c1281614bec565b92915050565b60008060008060008060c08789031215614c3557614c346143eb565b5b6000614c4389828a016144f9565b9650506020614c5489828a0161466e565b9550506040614c6589828a0161466e565b9450506060614c7689828a01614bd7565b9350506080614c8789828a01614c03565b92505060a0614c9889828a01614c03565b9150509295509295509295565b600080fd5b600080fd5b60008083601f840112614cc557614cc46149fb565b5b8235905067ffffffffffffffff811115614ce257614ce1614ca5565b5b602083019150836001820283011115614cfe57614cfd614caa565b5b9250929050565b60008060208385031215614d1c57614d1b6143eb565b5b600083013567ffffffffffffffff811115614d3a57614d396143f0565b5b614d4685828601614caf565b92509250509250929050565b60008060408385031215614d6957614d686143eb565b5b6000614d77858286016144f9565b9250506020614d88858286016144f9565b9150509250929050565b7f4e487b7100000000000000000000000000000000000000000000000000000000600052602260045260246000fd5b60006002820490506001821680614dd957607f821691505b60208210811415614ded57614dec614d92565b5b50919050565b7f4552433732313a20617070726f76616c20746f2063757272656e74206f776e6560008201527f7200000000000000000000000000000000000000000000000000000000000000602082015250565b6000614e4f60218361459d565b9150614e5a82614df3565b604082019050919050565b60006020820190508181036000830152614e7e81614e42565b9050919050565b7f4552433732313a20617070726f76652063616c6c6572206973206e6f7420746f60008201527f6b656e206f776e6572206e6f7220617070726f76656420666f7220616c6c0000602082015250565b6000614ee1603e8361459d565b9150614eec82614e85565b604082019050919050565b60006020820190508181036000830152614f1081614ed4565b9050919050565b600081519050614f2681614657565b92915050565b600060208284031215614f4257614f416143eb565b5b6000614f5084828501614f17565b91505092915050565b7f4e487b7100000000000000000000000000000000000000000000000000000000600052601160045260246000fd5b6000614f938261464d565b9150614f9e8361464d565b9250817fffffffffffffffffffffffffffffffffffffffffffffffffffffffffffffffff0483118215151615614fd757614fd6614f59565b5b828202905092915050565b7f4e487b7100000000000000000000000000000000000000000000000000000000600052601260045260246000fd5b600061501c8261464d565b91506150278361464d565b92508261503757615036614fe2565b5b828204905092915050565b7f4552433732313a2063616c6c6572206973206e6f7420746f6b656e206f776e6560008201527f72206e6f7220617070726f766564000000000000000000000000000000000000602082015250565b600061509e602e8361459d565b91506150a982615042565b604082019050919050565b600060208201905081810360008301526150cd81615091565b9050919050565b7f455243373231456e756d657261626c653a206f776e657220696e646578206f7560008201527f74206f6620626f756e6473000000000000000000000000000000000000000000602082015250565b6000615130602b8361459d565b915061513b826150d4565b604082019050919050565b6000602082019050818103600083015261515f81615123565b9050919050565b7f596f7520617265206e6f7420616c6c6f77656420746f2073656c65637420736560008201527f74207072656665727265642076657273696f6e20666f72207468697320746f6b60208201527f656e000000000000000000000000000000000000000000000000000000000000604082015250565b60006151e860428361459d565b91506151f382615166565b606082019050919050565b60006020820190508181036000830152615217816151db565b9050919050565b7f455243373231456e756d657261626c653a20676c6f62616c20696e646578206f60008201527f7574206f6620626f756e64730000000000000000000000000000000000000000602082015250565b600061527a602c8361459d565b91506152858261521e565b604082019050919050565b600060208201905081810360008301526152a98161526d565b9050919050565b7f4e487b7100000000000000000000000000000000000000000000000000000000600052603260045260246000fd5b7f4552433732313a20696e76616c696420746f6b656e2049440000000000000000600082015250565b600061531560188361459d565b9150615320826152df565b602082019050919050565b6000602082019050818103600083015261534481615308565b9050919050565b7f4552433732313a2061646472657373207a65726f206973206e6f74206120766160008201527f6c6964206f776e65720000000000000000000000000000000000000000000000602082015250565b60006153a760298361459d565b91506153b28261534b565b604082019050919050565b600060208201905081810360008301526153d68161539a565b9050919050565b7f566f7465733a20626c6f636b206e6f7420796574206d696e6564000000000000600082015250565b6000615413601a8361459d565b915061541e826153dd565b602082019050919050565b6000602082019050818103600083015261544281615406565b9050919050565b600081905092915050565b600061545f82614592565b6154698185615449565b93506154798185602086016145ae565b80840191505092915050565b60006154918285615454565b915061549d8284615454565b91508190509392505050565b7f566f7465733a207369676e617475726520657870697265640000000000000000600082015250565b60006154df60188361459d565b91506154ea826154a9565b602082019050919050565b6000602082019050818103600083015261550e816154d2565b9050919050565b600060808201905061552a600083018761480a565b61553760208301866146b0565b615544604083018561471a565b615551606083018461471a565b95945050505050565b7f566f7465733a20696e76616c6964206e6f6e6365000000000000000000000000600082015250565b600061559060148361459d565b915061559b8261555a565b602082019050919050565b600060208201905081810360008301526155bf81615583565b9050919050565b60006155d18261464d565b91506155dc8361464d565b9250828210156155ef576155ee614f59565b5b828203905092915050565b6000615606838561459d565b9350615613838584614ab1565b61561c836145e1565b840190509392505050565b600060608201905061563c60008301876146b0565b818103602083015261564f8185876155fa565b905061565e604083018461471a565b95945050505050565b7f4f776e61626c653a206e6577206f776e657220697320746865207a65726f206160008201527f6464726573730000000000000000000000000000000000000000000000000000602082015250565b60006156c360268361459d565b91506156ce82615667565b604082019050919050565b600060208201905081810360008301526156f2816156b6565b9050919050565b7f4f776e61626c653a2063616c6c6572206973206e6f7420746865206f776e6572600082015250565b600061572f60208361459d565b915061573a826156f9565b602082019050919050565b6000602082019050818103600083015261575e81615722565b9050919050565b7f455243323938313a20726f79616c7479206665652077696c6c2065786365656460008201527f2073616c65507269636500000000000000000000000000000000000000000000602082015250565b60006157c1602a8361459d565b91506157cc82615765565b604082019050919050565b600060208201905081810360008301526157f0816157b4565b9050919050565b7f455243323938313a20696e76616c696420726563656976657200000000000000600082015250565b600061582d60198361459d565b9150615838826157f7565b602082019050919050565b6000602082019050818103600083015261585c81615820565b9050919050565b7f4d617820737570706c792068617320616c7265616479206265656e206163686960008201527f6576656400000000000000000000000000000000000000000000000000000000602082015250565b60006158bf60248361459d565b91506158ca82615863565b604082019050919050565b600060208201905081810360008301526158ee816158b2565b9050919050565b7f4552433732313a207472616e736665722066726f6d20696e636f72726563742060008201527f6f776e6572000000000000000000000000000000000000000000000000000000602082015250565b600061595160258361459d565b915061595c826158f5565b604082019050919050565b6000602082019050818103600083015261598081615944565b9050919050565b7f4552433732313a207472616e7366657220746f20746865207a65726f2061646460008201527f7265737300000000000000000000000000000000000000000000000000000000602082015250565b60006159e360248361459d565b91506159ee82615987565b604082019050919050565b60006020820190508181036000830152615a12816159d6565b9050919050565b6000615a248261464d565b9150615a2f8361464d565b9250827fffffffffffffffffffffffffffffffffffffffffffffffffffffffffffffffff03821115615a6457615a63614f59565b5b828201905092915050565b7f436865636b706f696e74733a20626c6f636b206e6f7420796574206d696e6564600082015250565b6000615aa560208361459d565b9150615ab082615a6f565b602082019050919050565b60006020820190508181036000830152615ad481615a98565b9050919050565b7f4e6f2076657273696f6e73206174207468697320696e64657820796574000000600082015250565b6000615b11601d8361459d565b9150615b1c82615adb565b602082019050919050565b60006020820190508181036000830152615b4081615b04565b9050919050565b6000615b528261464d565b91507fffffffffffffffffffffffffffffffffffffffffffffffffffffffffffffffff821415615b8557615b84614f59565b5b600182019050919050565b6000615b9b8261464d565b9150615ba68361464d565b925082615bb657615bb5614fe2565b5b828206905092915050565b7f4552433732313a20617070726f766520746f2063616c6c657200000000000000600082015250565b6000615bf760198361459d565b9150615c0282615bc1565b602082019050919050565b60006020820190508181036000830152615c2681615bea565b9050919050565b7f4552433732313a207472616e7366657220746f206e6f6e20455243373231526560008201527f63656976657220696d706c656d656e7465720000000000000000000000000000602082015250565b6000615c8960328361459d565b9150615c9482615c2d565b604082019050919050565b60006020820190508181036000830152615cb881615c7c565b9050919050565b7f4552433732313a206d696e7420746f20746865207a65726f2061646472657373600082015250565b6000615cf560208361459d565b9150615d0082615cbf565b602082019050919050565b60006020820190508181036000830152615d2481615ce8565b9050919050565b7f4552433732313a20746f6b656e20616c7265616479206d696e74656400000000600082015250565b6000615d61601c8361459d565b9150615d6c82615d2b565b602082019050919050565b60006020820190508181036000830152615d9081615d54565b9050919050565b600060a082019050615dac600083018861480a565b615db9602083018761480a565b615dc6604083018661480a565b615dd3606083018561471a565b615de060808301846146b0565b9695505050505050565b6000604082019050615dff600083018561471a565b615e0c602083018461471a565b9392505050565b600081519050919050565b600082825260208201905092915050565b6000615e3a82615e13565b615e448185615e1e565b9350615e548185602086016145ae565b615e5d816145e1565b840191505092915050565b6000608082019050615e7d60008301876146b0565b615e8a60208301866146b0565b615e97604083018561471a565b8181036060830152615ea98184615e2f565b905095945050505050565b600081519050615ec381614421565b92915050565b600060208284031215615edf57615ede6143eb565b5b6000615eed84828501615eb4565b91505092915050565b7f1901000000000000000000000000000000000000000000000000000000000000600082015250565b6000615f2c600283615449565b9150615f3782615ef6565b600282019050919050565b6000819050919050565b615f5d615f5882614800565b615f42565b82525050565b6000615f6e82615f1f565b9150615f7a8285615f4c565b602082019150615f8a8284615f4c565b6020820191508190509392505050565b615fa381614bb3565b82525050565b6000608082019050615fbe600083018761480a565b615fcb6020830186615f9a565b615fd8604083018561480a565b615fe5606083018461480a565b95945050505050565b7f4e487b7100000000000000000000000000000000000000000000000000000000600052602160045260246000fd5b7f45434453413a20696e76616c6964207369676e61747572650000000000000000600082015250565b600061605360188361459d565b915061605e8261601d565b602082019050919050565b6000602082019050818103600083015261608281616046565b9050919050565b7f45434453413a20696e76616c6964207369676e6174757265206c656e67746800600082015250565b60006160bf601f8361459d565b91506160ca82616089565b602082019050919050565b600060208201905081810360008301526160ee816160b2565b9050919050565b7f45434453413a20696e76616c6964207369676e6174757265202773272076616c60008201527f7565000000000000000000000000000000000000000000000000000000000000602082015250565b600061615160228361459d565b915061615c826160f5565b604082019050919050565b6000602082019050818103600083015261618081616144565b9050919050565b7f45434453413a20696e76616c6964207369676e6174757265202776272076616c60008201527f7565000000000000000000000000000000000000000000000000000000000000602082015250565b60006161e360228361459d565b91506161ee82616187565b604082019050919050565b60006020820190508181036000830152616212816161d6565b9050919050565b7f4e487b7100000000000000000000000000000000000000000000000000000000600052603160045260246000fd5b7f53616665436173743a2076616c756520646f65736e27742066697420696e203260008201527f3234206269747300000000000000000000000000000000000000000000000000602082015250565b60006162a460278361459d565b91506162af82616248565b604082019050919050565b600060208201905081810360008301526162d381616297565b9050919050565b7f53616665436173743a2076616c756520646f65736e27742066697420696e203360008201527f3220626974730000000000000000000000000000000000000000000000000000602082015250565b600061633660268361459d565b9150616341826162da565b604082019050919050565b6000602082019050818103600083015261636581616329565b905091905056fea26469706673582212209af80a889208ec3c82e3c1affa718e1d62cd8ff3273f5658dcdce18ea060945364736f6c634300080b0033",
  "immutableReferences": {
    "5670": [
      {
        "length": 32,
        "start": 10063
      }
    ],
    "5672": [
      {
        "length": 32,
        "start": 10022
      }
    ],
    "5674": [
      {
        "length": 32,
        "start": 9936
      }
    ],
    "5676": [
      {
        "length": 32,
        "start": 10139
      }
    ],
    "5678": [
      {
        "length": 32,
        "start": 10172
      }
    ],
    "5680": [
      {
        "length": 32,
        "start": 10106
      }
    ],
    "8676": [
      {
        "length": 32,
        "start": 7423
      },
      {
        "length": 32,
        "start": 9048
      }
    ],
    "8678": [
      {
        "length": 32,
        "start": 3426
      },
      {
        "length": 32,
        "start": 4615
      }
    ]
  },
  "source": "// SPDX-License-Identifier: MIT\n// An add-on to NFTs to make them able to grow in Metadata over time.\n\npragma solidity ^0.8.0;\n\nimport \"@openzeppelin/contracts/token/ERC721/extensions/ERC721Enumerable.sol\";\nimport \"@openzeppelin/contracts/token/ERC721/extensions/ERC721Royalty.sol\";\nimport \"@openzeppelin/contracts/token/ERC721/extensions/ERC721URIStorage.sol\";\nimport \"@openzeppelin/contracts/token/ERC721/extensions/draft-ERC721Votes.sol\";\nimport \"@openzeppelin/contracts/governance/Governor.sol\";\nimport \"@openzeppelin/contracts/token/ERC20/IERC20.sol\";\nimport \"@openzeppelin/contracts/access/Ownable.sol\";\nimport \"./interfaces/IERC721Version.sol\";\n\n\n/**\n@dev This is the core NFT. It is designed to be a self-upgrading NFT.\nERC721Version adds versioning to the Metadata.\nThe uri metadata can now point to different files added over time.\nThe limitations for adding new files should be derived in the inheriting contract\nERC721Enumerable is used to organize voting system\n\n */\n\ncontract ERC721Version is ERC721Enumerable, ERC721Royalty, ERC721URIStorage, ERC721Votes, IERC721Version, Ownable {\n\n    using Strings for uint256;\n\n    uint256 public immutable maxSupply;\n    uint256 public immutable mintingPrice;\n    string[] public versionBaseURI;\n    mapping(uint256 => uint256) public preferredVersionForOwner;\n    string[] public usefulFiles;\n    address creatorAddress;\n    address treasuryAddress;\n    \n\n    constructor(string memory name, string memory symbol, address _creatorAddress, uint256 _maxSupply, uint256 _mintingPrice, string memory _baseURI)ERC721(name,symbol) EIP712(name, \"1\" ){\n\n    maxSupply = _maxSupply;\n    mintingPrice = _mintingPrice;\n    creatorAddress = _creatorAddress;\n\n    }\n\n    function mint() external payable {\n        require(msg.value == mintingPrice);\n        _mint(msg.sender, this.totalSupply());\n        payable(creatorAddress).transfer(msg.value*80/100);\n        payable(treasuryAddress).transfer(msg.value*20/100);\n\n    }\n\n    function setTreasuryAddress(address _addressTreasury) public onlyOwner {\n        treasuryAddress = _addressTreasury;\n    }\n\n\n    // Declares all previous interface, if a new one is created it should be added here\n    function supportsInterface(bytes4 interfaceId) public view virtual override(ERC721Enumerable, ERC721Royalty, ERC721) returns (bool) {\n        return ERC721Enumerable.supportsInterface(interfaceId) || \n        ERC721Royalty.supportsInterface(interfaceId) || ERC721Version.supportsInterface(interfaceId) ||\n        ERC721.supportsInterface(interfaceId);\n    }\n\n    function tokenURI(uint256 tokenId) public view virtual override(ERC721, ERC721URIStorage) returns (string memory) {\n        _requireMinted(tokenId);\n\n        string memory baseURI = _baseURIfromVersion(preferredVersionForOwner[tokenId]);\n        return bytes(baseURI).length > 0 ? string(abi.encodePacked(baseURI, tokenId.toString())) : \"\";\n    }\n\n    function tokenURI(uint256 tokenId, uint256 version) public view virtual returns (string memory) {\n        _requireMinted(tokenId);\n\n        string memory baseURI = _baseURIfromVersion(version);\n        return bytes(baseURI).length > 0 ? string(abi.encodePacked(baseURI, tokenId.toString())) : \"\";\n    }\n\n    function setPreferredVersion(uint256 tokenId, uint256 version) public {\n        require(msg.sender == ownerOf(tokenId), \"You are not allowed to select set preferred version for this token\");\n        preferredVersionForOwner[tokenId] = version;\n\n    }\n\n    function allFileURI() public view returns (string[] memory) {\n        return usefulFiles;\n    }\n\n    function fileURI(uint256 fileId) public view returns (string memory) {\n        return usefulFiles[fileId];\n    }\n\n    function addNewVersion(string calldata _newBaseURI) public virtual{\n        \n        versionBaseURI.push(_newBaseURI);\n        emit NewVersion(msg.sender,_newBaseURI, versionBaseURI.length-1);     \n    }\n\n    function addNewFile(string calldata _fileURI) public virtual{\n\n        usefulFiles.push(_fileURI);\n        emit NewFile(msg.sender, _fileURI, usefulFiles.length-1);\n    }\n\n\n    // Selects the _beforeTokenTransfer function from Enumerable extension\n    function _beforeTokenTransfer(\n            address from,\n            address to,\n            uint256 tokenId\n        ) internal virtual override (ERC721,ERC721Enumerable) {\n        super._beforeTokenTransfer(from,to,tokenId);\n    }\n\n\n    // Selects the _burn function from Royalty and URIStorage extension, super.burn (ERC721) is called twice though..\n    // Super.burn risks only invoking one of the inherited functions.\n    // Super.burn(tokenId) should be sufficient alone due to the recursive calls within Royalty and URIStorage \n    // To check in test file.\n    function _burn(uint256 tokenId) internal virtual override (ERC721,ERC721Royalty, ERC721URIStorage) {\n        ERC721Royalty._burn(tokenId);\n        ERC721URIStorage._burn(tokenId);\n    }\n\n\n    function _afterTokenTransfer(\n        address from,\n        address to,\n        uint256 tokenId\n        ) internal virtual override (ERC721, ERC721Votes){\n        super._afterTokenTransfer(from,to,tokenId);\n    }\n\n\n    function _mint(address to, uint256 tokenId) internal virtual override {\n        require(tokenId < maxSupply, \"Max supply has already been achieved\");\n        super._mint(to, tokenId);\n    }\n\n    function _baseURIfromVersion(uint256 version) internal view returns ( string memory) {\n        require(version < versionBaseURI.length, \"No versions at this index yet\");\n        return versionBaseURI[version];\n    }\n\n    function setDefaultRoyalty(address receiver, uint96 feeNumerator) public onlyOwner {\n        _setDefaultRoyalty(receiver, feeNumerator);\n    }\n\n }",
  "sourcePath": "/Users/admin/Desktop/TokenSmith/contracts/ERC721Version.sol",
  "compiler": {
    "name": "solc",
    "version": "0.8.11+commit.d7f03943.Emscripten.clang"
  },
  "schemaVersion": "3.4.5",
  "updatedAt": "2022-08-07T14:35:04.096Z",
  "devdoc": {
    "details": "This is the core NFT. It is designed to be a self-upgrading NFT. ERC721Version adds versioning to the Metadata. The uri metadata can now point to different files added over time. The limitations for adding new files should be derived in the inheriting contract ERC721Enumerable is used to organize voting system",
    "kind": "dev",
    "methods": {
      "DOMAIN_SEPARATOR()": {
        "details": "Returns the contract's {EIP712} domain separator."
      },
      "addNewVersion(string)": {
        "details": "Add the coreURI of the new core generative base."
      },
      "allFileURI()": {
        "details": "Access to the complete list of files for project development"
      },
      "approve(address,uint256)": {
        "details": "See {IERC721-approve}."
      },
      "balanceOf(address)": {
        "details": "See {IERC721-balanceOf}."
      },
      "delegate(address)": {
        "details": "Delegates votes from the sender to `delegatee`."
      },
      "delegateBySig(address,uint256,uint256,uint8,bytes32,bytes32)": {
        "details": "Delegates votes from signer to `delegatee`."
      },
      "delegates(address)": {
        "details": "Returns the delegate that `account` has chosen."
      },
      "getApproved(uint256)": {
        "details": "See {IERC721-getApproved}."
      },
      "getPastTotalSupply(uint256)": {
        "details": "Returns the total supply of votes available at the end of a past block (`blockNumber`). NOTE: This value is the sum of all available votes, which is not necessarily the sum of all delegated votes. Votes that have not been delegated are still part of total supply, even though they would not participate in a vote. Requirements: - `blockNumber` must have been already mined"
      },
      "getPastVotes(address,uint256)": {
        "details": "Returns the amount of votes that `account` had at the end of a past block (`blockNumber`). Requirements: - `blockNumber` must have been already mined"
      },
      "getVotes(address)": {
        "details": "Returns the current amount of votes that `account` has."
      },
      "isApprovedForAll(address,address)": {
        "details": "See {IERC721-isApprovedForAll}."
      },
      "name()": {
        "details": "See {IERC721Metadata-name}."
      },
      "nonces(address)": {
        "details": "Returns an address nonce."
      },
      "owner()": {
        "details": "Returns the address of the current owner."
      },
      "ownerOf(uint256)": {
        "details": "See {IERC721-ownerOf}."
      },
      "renounceOwnership()": {
        "details": "Leaves the contract without owner. It will not be possible to call `onlyOwner` functions anymore. Can only be called by the current owner. NOTE: Renouncing ownership will leave the contract without an owner, thereby removing any functionality that is only available to the owner."
      },
      "royaltyInfo(uint256,uint256)": {
        "details": "Returns how much royalty is owed and to whom, based on a sale price that may be denominated in any unit of exchange. The royalty amount is denominated and should be paid in that same unit of exchange."
      },
      "safeTransferFrom(address,address,uint256)": {
        "details": "See {IERC721-safeTransferFrom}."
      },
      "safeTransferFrom(address,address,uint256,bytes)": {
        "details": "See {IERC721-safeTransferFrom}."
      },
      "setApprovalForAll(address,bool)": {
        "details": "See {IERC721-setApprovalForAll}."
      },
      "symbol()": {
        "details": "See {IERC721Metadata-symbol}."
      },
      "tokenByIndex(uint256)": {
        "details": "See {IERC721Enumerable-tokenByIndex}."
      },
      "tokenOfOwnerByIndex(address,uint256)": {
        "details": "See {IERC721Enumerable-tokenOfOwnerByIndex}."
      },
      "tokenURI(uint256,uint256)": {
        "details": "Access to the various procedurally generated core files and their upgraded version  "
      },
      "totalSupply()": {
        "details": "See {IERC721Enumerable-totalSupply}."
      },
      "transferFrom(address,address,uint256)": {
        "details": "See {IERC721-transferFrom}."
      },
      "transferOwnership(address)": {
        "details": "Transfers ownership of the contract to a new account (`newOwner`). Can only be called by the current owner."
      }
    },
    "version": 1
  },
  "userdoc": {
    "kind": "user",
    "methods": {},
    "version": 1
  }
}