{
  "contractName": "SimpleTreasury",
  "abi": [
    {
      "inputs": [
        {
          "internalType": "contract IERC721Version",
          "name": "_mainCollection",
          "type": "address"
        }
      ],
      "stateMutability": "nonpayable",
      "type": "constructor"
    },
    {
      "anonymous": false,
      "inputs": [
        {
          "indexed": true,
          "internalType": "address",
          "name": "_from",
          "type": "address"
        },
        {
          "indexed": false,
          "internalType": "uint256",
          "name": "_value",
          "type": "uint256"
        }
      ],
      "name": "EthTransferReceived",
      "type": "event"
    },
    {
      "anonymous": false,
      "inputs": [
        {
          "indexed": true,
          "internalType": "address",
          "name": "_to",
          "type": "address"
        },
        {
          "indexed": false,
          "internalType": "uint256",
          "name": "_value",
          "type": "uint256"
        }
      ],
      "name": "EtherWithdrawal",
      "type": "event"
    },
    {
      "anonymous": false,
      "inputs": [
        {
          "indexed": true,
          "internalType": "address",
          "name": "previousOwner",
          "type": "address"
        },
        {
          "indexed": true,
          "internalType": "address",
          "name": "newOwner",
          "type": "address"
        }
      ],
      "name": "OwnershipTransferred",
      "type": "event"
    },
    {
      "anonymous": false,
      "inputs": [
        {
          "indexed": false,
          "internalType": "address",
          "name": "treasuryOwner",
          "type": "address"
        },
        {
          "indexed": false,
          "internalType": "address",
          "name": "treasury",
          "type": "address"
        },
        {
          "indexed": false,
          "internalType": "address",
          "name": "token",
          "type": "address"
        }
      ],
      "name": "TreasuryInstantiated",
      "type": "event"
    },
    {
      "inputs": [],
      "name": "owner",
      "outputs": [
        {
          "internalType": "address",
          "name": "",
          "type": "address"
        }
      ],
      "stateMutability": "view",
      "type": "function"
    },
    {
      "inputs": [],
      "name": "renounceOwnership",
      "outputs": [],
      "stateMutability": "nonpayable",
      "type": "function"
    },
    {
      "inputs": [
        {
          "internalType": "address",
          "name": "newOwner",
          "type": "address"
        }
      ],
      "name": "transferOwnership",
      "outputs": [],
      "stateMutability": "nonpayable",
      "type": "function"
    },
    {
      "stateMutability": "payable",
      "type": "receive"
    },
    {
      "inputs": [],
      "name": "getBalance",
      "outputs": [
        {
          "internalType": "uint256",
          "name": "",
          "type": "uint256"
        }
      ],
      "stateMutability": "view",
      "type": "function"
    },
    {
      "inputs": [],
      "name": "getMainToken",
      "outputs": [
        {
          "internalType": "contract IERC721Version",
          "name": "",
          "type": "address"
        }
      ],
      "stateMutability": "view",
      "type": "function"
    },
    {
      "inputs": [
        {
          "internalType": "address payable",
          "name": "_addr",
          "type": "address"
        },
        {
          "internalType": "uint256",
          "name": "_amount",
          "type": "uint256"
        }
      ],
      "name": "sendETH",
      "outputs": [],
      "stateMutability": "nonpayable",
      "type": "function"
    }
  ],
  "bytecode": "0x60a060405234801561001057600080fd5b506040516105bf3803806105bf83398101604081905261002f916100dc565b6100383361008c565b6001600160a01b03811660808190526040805133815230602082015280820192909252517f0371e6c1451d0a54cd2b7d5cf31ff881fd3e2437d82386d1529501336060f5f29181900360600190a15061010c565b600080546001600160a01b038381166001600160a01b0319831681178455604051919092169283917f8be0079c531659141344cd1fd0a4f28419497f9722a3daafe3b4186f6b6457e09190a35050565b6000602082840312156100ee57600080fd5b81516001600160a01b038116811461010557600080fd5b9392505050565b608051610499610126600039600060e301526104996000f3fe6080604052600436106100595760003560e01c806312065fe0146100b15780634de046d5146100d457806364a197f31461011b578063715018a61461013d5780638da5cb5b14610152578063f2fde38b1461017057600080fd5b366100ac57346001600082825461007091906103cf565b909155505060405134815233907f7633918dd12eec332d7212b2ddc5cfd92b19ba6b4bca27ecc63534c3bf137b659060200160405180910390a2005b600080fd5b3480156100bd57600080fd5b506001546040519081526020015b60405180910390f35b3480156100e057600080fd5b507f00000000000000000000000000000000000000000000000000000000000000005b6040516001600160a01b0390911681526020016100cb565b34801561012757600080fd5b5061013b6101363660046103fc565b610190565b005b34801561014957600080fd5b5061013b6101a6565b34801561015e57600080fd5b506000546001600160a01b0316610103565b34801561017c57600080fd5b5061013b61018b366004610428565b6101ba565b610198610238565b6101a28282610292565b5050565b6101ae610238565b6101b86000610369565b565b6101c2610238565b6001600160a01b03811661022c5760405162461bcd60e51b815260206004820152602660248201527f4f776e61626c653a206e6577206f776e657220697320746865207a65726f206160448201526564647265737360d01b60648201526084015b60405180910390fd5b61023581610369565b50565b6000546001600160a01b031633146101b85760405162461bcd60e51b815260206004820181905260248201527f4f776e61626c653a2063616c6c6572206973206e6f7420746865206f776e65726044820152606401610223565b6001548111156102d95760405162461bcd60e51b8152602060048201526012602482015271496e73756666696369656e742066756e647360701b6044820152606401610223565b6040516001600160a01b0383169082156108fc029083906000818181858888f1935050505015801561030f573d6000803e3d6000fd5b508060016000828254610322919061044c565b90915550506040518181526001600160a01b038316907fc70a094cb0b20f152b6d171a215827df475885ee85e81c9626d07200d7ddea429060200160405180910390a25050565b600080546001600160a01b038381166001600160a01b0319831681178455604051919092169283917f8be0079c531659141344cd1fd0a4f28419497f9722a3daafe3b4186f6b6457e09190a35050565b634e487b7160e01b600052601160045260246000fd5b600082198211156103e2576103e26103b9565b500190565b6001600160a01b038116811461023557600080fd5b6000806040838503121561040f57600080fd5b823561041a816103e7565b946020939093013593505050565b60006020828403121561043a57600080fd5b8135610445816103e7565b9392505050565b60008282101561045e5761045e6103b9565b50039056fea264697066735822122040ccbc6b429c57334221bb5413659af583b271e2e60cbb12ff4e0d68006a75f364736f6c634300080b0033",
  "immutableReferences": {
    "10656": [
      {
        "length": 32,
        "start": 227
      }
    ]
  },
  "source": "// SPDX-License-Identifier: MIT\npragma solidity >=0.4.22 <0.9.0;\n\n\nimport \"@openzeppelin/contracts/token/ERC721/IERC721.sol\";\nimport \"@openzeppelin/contracts/token/ERC20/IERC20.sol\";\nimport \"@openzeppelin/contracts/access/Ownable.sol\";\n\n\nimport \"./ERC721Version.sol\";\nimport \"./interfaces/ISimpleTreasury.sol\";\n\n\ncontract SimpleTreasury is ISimpleTreasury, Ownable {\n\n    // The amount of Ether within the treasury.\n    uint256 balance;\n    // The token representing the NFT collection.\n    IERC721Version private immutable mainTokenOfProject;\n\n\n\n    constructor (IERC721Version _mainCollection) {\n        mainTokenOfProject =  _mainCollection;\n        // from ownable owner = msg.sender;\n        emit TreasuryInstantiated(msg.sender, address(this), address(mainTokenOfProject));     \n    }\n    \n \n    receive() payable external{\n        balance += msg.value;\n        emit EthTransferReceived(msg.sender, msg.value);\n    }\n\n    function getBalance() external view returns (uint256) {return balance;}\n\n    function getMainToken() external view returns (IERC721Version) {return mainTokenOfProject;}\n\n\n    function sendETH(address payable _addr, uint256 _amount) public onlyOwner {\n      _withdraw(_addr, _amount);\n    }\n\n    function _withdraw( address payable destAddr, uint256 amount) private{\n        require(amount <=  balance, \"Insufficient funds\");\n        destAddr.transfer(amount);\n        balance -= amount;\n        emit EtherWithdrawal(destAddr, amount);\n    }\n\n}",
  "sourcePath": "/Users/admin/Desktop/GeneralCoding/TokenSmith/contracts/SimpleTreasury.sol",
  "compiler": {
    "name": "solc",
    "version": "0.8.11+commit.d7f03943.Emscripten.clang"
  },
  "schemaVersion": "3.4.5",
  "updatedAt": "2022-08-15T10:35:57.452Z",
  "devdoc": {
    "kind": "dev",
    "methods": {
      "owner()": {
        "details": "Returns the address of the current owner."
      },
      "renounceOwnership()": {
        "details": "Leaves the contract without owner. It will not be possible to call `onlyOwner` functions anymore. Can only be called by the current owner. NOTE: Renouncing ownership will leave the contract without an owner, thereby removing any functionality that is only available to the owner."
      },
      "transferOwnership(address)": {
        "details": "Transfers ownership of the contract to a new account (`newOwner`). Can only be called by the current owner."
      }
    },
    "version": 1
  },
  "userdoc": {
    "kind": "user",
    "methods": {},
    "version": 1
  }
}