{
  "contractName": "SimpleTreasury",
  "abi": [
    {
      "inputs": [
        {
          "internalType": "contract IERC721Version",
          "name": "_mainCollection",
          "type": "address"
        }
      ],
      "stateMutability": "nonpayable",
      "type": "constructor"
    },
    {
      "anonymous": false,
      "inputs": [
        {
          "indexed": true,
          "internalType": "address",
          "name": "_from",
          "type": "address"
        },
        {
          "indexed": false,
          "internalType": "uint256",
          "name": "_value",
          "type": "uint256"
        }
      ],
      "name": "EthTransferReceived",
      "type": "event"
    },
    {
      "anonymous": false,
      "inputs": [
        {
          "indexed": true,
          "internalType": "address",
          "name": "_to",
          "type": "address"
        },
        {
          "indexed": false,
          "internalType": "uint256",
          "name": "_value",
          "type": "uint256"
        }
      ],
      "name": "EtherWithdrawal",
      "type": "event"
    },
    {
      "anonymous": false,
      "inputs": [
        {
          "indexed": true,
          "internalType": "address",
          "name": "previousOwner",
          "type": "address"
        },
        {
          "indexed": true,
          "internalType": "address",
          "name": "newOwner",
          "type": "address"
        }
      ],
      "name": "OwnershipTransferred",
      "type": "event"
    },
    {
      "anonymous": false,
      "inputs": [
        {
          "indexed": false,
          "internalType": "address",
          "name": "treasuryOwner",
          "type": "address"
        },
        {
          "indexed": false,
          "internalType": "address",
          "name": "treasury",
          "type": "address"
        },
        {
          "indexed": false,
          "internalType": "address",
          "name": "token",
          "type": "address"
        }
      ],
      "name": "TreasuryInstantiated",
      "type": "event"
    },
    {
      "inputs": [],
      "name": "owner",
      "outputs": [
        {
          "internalType": "address",
          "name": "",
          "type": "address"
        }
      ],
      "stateMutability": "view",
      "type": "function"
    },
    {
      "inputs": [],
      "name": "renounceOwnership",
      "outputs": [],
      "stateMutability": "nonpayable",
      "type": "function"
    },
    {
      "inputs": [
        {
          "internalType": "address",
          "name": "newOwner",
          "type": "address"
        }
      ],
      "name": "transferOwnership",
      "outputs": [],
      "stateMutability": "nonpayable",
      "type": "function"
    },
    {
      "stateMutability": "payable",
      "type": "receive"
    },
    {
      "inputs": [],
      "name": "getBalance",
      "outputs": [
        {
          "internalType": "uint256",
          "name": "",
          "type": "uint256"
        }
      ],
      "stateMutability": "view",
      "type": "function"
    },
    {
      "inputs": [],
      "name": "getMainToken",
      "outputs": [
        {
          "internalType": "contract IERC721Version",
          "name": "",
          "type": "address"
        }
      ],
      "stateMutability": "view",
      "type": "function"
    },
    {
      "inputs": [
        {
          "internalType": "address payable",
          "name": "_addr",
          "type": "address"
        },
        {
          "internalType": "uint256",
          "name": "_amount",
          "type": "uint256"
        }
      ],
      "name": "sendETH",
      "outputs": [],
      "stateMutability": "nonpayable",
      "type": "function"
    }
  ],
  "bytecode": "0x60a06040523480156200001157600080fd5b5060405162000c3338038062000c3383398181016040528101906200003791906200021b565b620000576200004b620000d160201b60201c565b620000d960201b60201c565b8073ffffffffffffffffffffffffffffffffffffffff1660808173ffffffffffffffffffffffffffffffffffffffff16815250507f0371e6c1451d0a54cd2b7d5cf31ff881fd3e2437d82386d1529501336060f5f23330608051604051620000c2939291906200025e565b60405180910390a1506200029b565b600033905090565b60008060009054906101000a900473ffffffffffffffffffffffffffffffffffffffff169050816000806101000a81548173ffffffffffffffffffffffffffffffffffffffff021916908373ffffffffffffffffffffffffffffffffffffffff1602179055508173ffffffffffffffffffffffffffffffffffffffff168173ffffffffffffffffffffffffffffffffffffffff167f8be0079c531659141344cd1fd0a4f28419497f9722a3daafe3b4186f6b6457e060405160405180910390a35050565b600080fd5b600073ffffffffffffffffffffffffffffffffffffffff82169050919050565b6000620001cf82620001a2565b9050919050565b6000620001e382620001c2565b9050919050565b620001f581620001d6565b81146200020157600080fd5b50565b6000815190506200021581620001ea565b92915050565b6000602082840312156200023457620002336200019d565b5b6000620002448482850162000204565b91505092915050565b6200025881620001c2565b82525050565b60006060820190506200027560008301866200024d565b6200028460208301856200024d565b6200029360408301846200024d565b949350505050565b60805161097c620002b760003960006101c4015261097c6000f3fe6080604052600436106100595760003560e01c806312065fe0146100cc5780634de046d5146100f757806364a197f314610122578063715018a61461014b5780638da5cb5b14610162578063f2fde38b1461018d576100c7565b366100c75734600160008282546100709190610539565b925050819055503373ffffffffffffffffffffffffffffffffffffffff167f7633918dd12eec332d7212b2ddc5cfd92b19ba6b4bca27ecc63534c3bf137b65346040516100bd919061059e565b60405180910390a2005b600080fd5b3480156100d857600080fd5b506100e16101b6565b6040516100ee919061059e565b60405180910390f35b34801561010357600080fd5b5061010c6101c0565b6040516101199190610638565b60405180910390f35b34801561012e57600080fd5b50610149600480360381019061014491906106c2565b6101e8565b005b34801561015757600080fd5b506101606101fe565b005b34801561016e57600080fd5b50610177610212565b6040516101849190610723565b60405180910390f35b34801561019957600080fd5b506101b460048036038101906101af919061076a565b61023b565b005b6000600154905090565b60007f0000000000000000000000000000000000000000000000000000000000000000905090565b6101f06102bf565b6101fa828261033d565b5050565b6102066102bf565b6102106000610434565b565b60008060009054906101000a900473ffffffffffffffffffffffffffffffffffffffff16905090565b6102436102bf565b600073ffffffffffffffffffffffffffffffffffffffff168173ffffffffffffffffffffffffffffffffffffffff1614156102b3576040517f08c379a00000000000000000000000000000000000000000000000000000000081526004016102aa9061081a565b60405180910390fd5b6102bc81610434565b50565b6102c76104f8565b73ffffffffffffffffffffffffffffffffffffffff166102e5610212565b73ffffffffffffffffffffffffffffffffffffffff161461033b576040517f08c379a000000000000000000000000000000000000000000000000000000000815260040161033290610886565b60405180910390fd5b565b600154811115610382576040517f08c379a0000000000000000000000000000000000000000000000000000000008152600401610379906108f2565b60405180910390fd5b8173ffffffffffffffffffffffffffffffffffffffff166108fc829081150290604051600060405180830381858888f193505050501580156103c8573d6000803e3d6000fd5b5080600160008282546103db9190610912565b925050819055508173ffffffffffffffffffffffffffffffffffffffff167fc70a094cb0b20f152b6d171a215827df475885ee85e81c9626d07200d7ddea4282604051610428919061059e565b60405180910390a25050565b60008060009054906101000a900473ffffffffffffffffffffffffffffffffffffffff169050816000806101000a81548173ffffffffffffffffffffffffffffffffffffffff021916908373ffffffffffffffffffffffffffffffffffffffff1602179055508173ffffffffffffffffffffffffffffffffffffffff168173ffffffffffffffffffffffffffffffffffffffff167f8be0079c531659141344cd1fd0a4f28419497f9722a3daafe3b4186f6b6457e060405160405180910390a35050565b600033905090565b6000819050919050565b7f4e487b7100000000000000000000000000000000000000000000000000000000600052601160045260246000fd5b600061054482610500565b915061054f83610500565b9250827fffffffffffffffffffffffffffffffffffffffffffffffffffffffffffffffff038211156105845761058361050a565b5b828201905092915050565b61059881610500565b82525050565b60006020820190506105b3600083018461058f565b92915050565b600073ffffffffffffffffffffffffffffffffffffffff82169050919050565b6000819050919050565b60006105fe6105f96105f4846105b9565b6105d9565b6105b9565b9050919050565b6000610610826105e3565b9050919050565b600061062282610605565b9050919050565b61063281610617565b82525050565b600060208201905061064d6000830184610629565b92915050565b600080fd5b6000610663826105b9565b9050919050565b61067381610658565b811461067e57600080fd5b50565b6000813590506106908161066a565b92915050565b61069f81610500565b81146106aa57600080fd5b50565b6000813590506106bc81610696565b92915050565b600080604083850312156106d9576106d8610653565b5b60006106e785828601610681565b92505060206106f8858286016106ad565b9150509250929050565b600061070d826105b9565b9050919050565b61071d81610702565b82525050565b60006020820190506107386000830184610714565b92915050565b61074781610702565b811461075257600080fd5b50565b6000813590506107648161073e565b92915050565b6000602082840312156107805761077f610653565b5b600061078e84828501610755565b91505092915050565b600082825260208201905092915050565b7f4f776e61626c653a206e6577206f776e657220697320746865207a65726f206160008201527f6464726573730000000000000000000000000000000000000000000000000000602082015250565b6000610804602683610797565b915061080f826107a8565b604082019050919050565b60006020820190508181036000830152610833816107f7565b9050919050565b7f4f776e61626c653a2063616c6c6572206973206e6f7420746865206f776e6572600082015250565b6000610870602083610797565b915061087b8261083a565b602082019050919050565b6000602082019050818103600083015261089f81610863565b9050919050565b7f496e73756666696369656e742066756e64730000000000000000000000000000600082015250565b60006108dc601283610797565b91506108e7826108a6565b602082019050919050565b6000602082019050818103600083015261090b816108cf565b9050919050565b600061091d82610500565b915061092883610500565b92508282101561093b5761093a61050a565b5b82820390509291505056fea26469706673582212209ab6a0fd6e0bf478620e3b7d830b57f423aaef27670cf958cf5e90bc5c805fb864736f6c634300080b0033",
  "immutableReferences": {
    "10447": [
      {
        "length": 32,
        "start": 452
      }
    ]
  },
  "source": "// SPDX-License-Identifier: MIT\npragma solidity >=0.4.22 <0.9.0;\n\n\nimport \"@openzeppelin/contracts/token/ERC721/IERC721.sol\";\nimport \"@openzeppelin/contracts/token/ERC20/IERC20.sol\";\nimport \"@openzeppelin/contracts/access/Ownable.sol\";\n\n\nimport \"./ERC721Version.sol\";\nimport \"./interfaces/ISimpleTreasury.sol\";\n\n\ncontract SimpleTreasury is ISimpleTreasury, Ownable {\n\n    // The amount of Ether within the treasury.\n    uint256 balance;\n    // The token representing the NFT collection.\n    IERC721Version private immutable mainTokenOfProject;\n\n\n\n    constructor (IERC721Version _mainCollection) {\n        mainTokenOfProject =  _mainCollection;\n        // from ownable owner = msg.sender;\n        emit TreasuryInstantiated(msg.sender, address(this), address(mainTokenOfProject));     \n    }\n    \n \n    receive() payable external{\n        balance += msg.value;\n        emit EthTransferReceived(msg.sender, msg.value);\n    }\n\n    function getBalance() external view returns (uint256) {return balance;}\n\n    function getMainToken() external view returns (IERC721Version) {return mainTokenOfProject;}\n\n\n    function sendETH(address payable _addr, uint256 _amount) public onlyOwner {\n      _withdraw(_addr, _amount);\n    }\n\n    function _withdraw( address payable destAddr, uint256 amount) private{\n        require(amount <=  balance, \"Insufficient funds\");\n        destAddr.transfer(amount);\n        balance -= amount;\n        emit EtherWithdrawal(destAddr, amount);\n    }\n\n}",
  "sourcePath": "/Users/admin/Desktop/TokenSmith/contracts/SimpleTreasury.sol",
  "compiler": {
    "name": "solc",
    "version": "0.8.11+commit.d7f03943.Emscripten.clang"
  },
  "schemaVersion": "3.4.5",
  "updatedAt": "2022-08-07T14:35:04.117Z",
  "devdoc": {
    "kind": "dev",
    "methods": {
      "owner()": {
        "details": "Returns the address of the current owner."
      },
      "renounceOwnership()": {
        "details": "Leaves the contract without owner. It will not be possible to call `onlyOwner` functions anymore. Can only be called by the current owner. NOTE: Renouncing ownership will leave the contract without an owner, thereby removing any functionality that is only available to the owner."
      },
      "transferOwnership(address)": {
        "details": "Transfers ownership of the contract to a new account (`newOwner`). Can only be called by the current owner."
      }
    },
    "version": 1
  },
  "userdoc": {
    "kind": "user",
    "methods": {},
    "version": 1
  }
}